{
	"contracts/1_RadioDistUsdt.sol": {
		"USDTDistributor": {
			"abi": [
				{
					"inputs": [
						{
							"internalType": "address",
							"name": "_usdtToken",
							"type": "address"
						}
					],
					"stateMutability": "nonpayable",
					"type": "constructor"
				},
				{
					"anonymous": false,
					"inputs": [
						{
							"indexed": true,
							"internalType": "address",
							"name": "sender",
							"type": "address"
						},
						{
							"indexed": true,
							"internalType": "address",
							"name": "recipient",
							"type": "address"
						},
						{
							"indexed": false,
							"internalType": "uint256",
							"name": "amount",
							"type": "uint256"
						}
					],
					"name": "Distribution",
					"type": "event"
				},
				{
					"inputs": [
						{
							"internalType": "address",
							"name": "recipient",
							"type": "address"
						},
						{
							"internalType": "uint256",
							"name": "amountInUSDT",
							"type": "uint256"
						}
					],
					"name": "distribute",
					"outputs": [],
					"stateMutability": "nonpayable",
					"type": "function"
				},
				{
					"inputs": [
						{
							"internalType": "address",
							"name": "recipient",
							"type": "address"
						},
						{
							"internalType": "uint256",
							"name": "wholePart",
							"type": "uint256"
						},
						{
							"internalType": "uint256",
							"name": "decimalPart",
							"type": "uint256"
						}
					],
					"name": "distributeDecimal",
					"outputs": [],
					"stateMutability": "nonpayable",
					"type": "function"
				},
				{
					"inputs": [],
					"name": "owner",
					"outputs": [
						{
							"internalType": "address",
							"name": "",
							"type": "address"
						}
					],
					"stateMutability": "view",
					"type": "function"
				},
				{
					"inputs": [],
					"name": "usdtToken",
					"outputs": [
						{
							"internalType": "contract IERC20",
							"name": "",
							"type": "address"
						}
					],
					"stateMutability": "view",
					"type": "function"
				}
			],
			"devdoc": {
				"kind": "dev",
				"methods": {},
				"version": 1
			},
			"evm": {
				"assembly": "    /* \"contracts/1_RadioDistUsdt.sol\":263:1932  contract USDTDistributor {... */\n  mstore(0x40, 0x80)\n    /* \"contracts/1_RadioDistUsdt.sol\":448:722  constructor(address _usdtToken) {... */\n  callvalue\n  dup1\n  iszero\n  tag_1\n  jumpi\n  0x00\n  dup1\n  revert\ntag_1:\n  pop\n  mload(0x40)\n  sub(codesize, bytecodeSize)\n  dup1\n  bytecodeSize\n  dup4\n  codecopy\n  dup2\n  dup2\n  add\n  0x40\n  mstore\n  dup2\n  add\n  swap1\n  tag_2\n  swap2\n  swap1\n  tag_3\n  jump\t// in\ntag_2:\n    /* \"contracts/1_RadioDistUsdt.sol\":521:522  0 */\n  0x00\n    /* \"contracts/1_RadioDistUsdt.sol\":499:523  _usdtToken != address(0) */\n  0xffffffffffffffffffffffffffffffffffffffff\n  and\n    /* \"contracts/1_RadioDistUsdt.sol\":499:509  _usdtToken */\n  dup2\n    /* \"contracts/1_RadioDistUsdt.sol\":499:523  _usdtToken != address(0) */\n  0xffffffffffffffffffffffffffffffffffffffff\n  and\n  sub\n    /* \"contracts/1_RadioDistUsdt.sol\":491:562  require(_usdtToken != address(0), \"USDT token address cannot be zero.\") */\n  tag_6\n  jumpi\n  mload(0x40)\n  0x08c379a000000000000000000000000000000000000000000000000000000000\n  dup2\n  mstore\n  0x04\n  add\n  tag_7\n  swap1\n  tag_8\n  jump\t// in\ntag_7:\n  mload(0x40)\n  dup1\n  swap2\n  sub\n  swap1\n  revert\ntag_6:\n    /* \"contracts/1_RadioDistUsdt.sol\":581:591  msg.sender */\n  caller\n    /* \"contracts/1_RadioDistUsdt.sol\":573:578  owner */\n  0x00\n  dup1\n    /* \"contracts/1_RadioDistUsdt.sol\":573:591  owner = msg.sender */\n  0x0100\n  exp\n  dup2\n  sload\n  dup2\n  0xffffffffffffffffffffffffffffffffffffffff\n  mul\n  not\n  and\n  swap1\n  dup4\n  0xffffffffffffffffffffffffffffffffffffffff\n  and\n  mul\n  or\n  swap1\n  sstore\n  pop\n    /* \"contracts/1_RadioDistUsdt.sol\":672:682  _usdtToken */\n  dup1\n    /* \"contracts/1_RadioDistUsdt.sol\":653:662  usdtToken */\n  0x01\n  0x00\n    /* \"contracts/1_RadioDistUsdt.sol\":653:683  usdtToken = IERC20(_usdtToken) */\n  0x0100\n  exp\n  dup2\n  sload\n  dup2\n  0xffffffffffffffffffffffffffffffffffffffff\n  mul\n  not\n  and\n  swap1\n  dup4\n  0xffffffffffffffffffffffffffffffffffffffff\n  and\n  mul\n  or\n  swap1\n  sstore\n  pop\n    /* \"contracts/1_RadioDistUsdt.sol\":448:722  constructor(address _usdtToken) {... */\n  pop\n    /* \"contracts/1_RadioDistUsdt.sol\":263:1932  contract USDTDistributor {... */\n  jump(tag_9)\n    /* \"#utility.yul\":88:205   */\ntag_11:\n    /* \"#utility.yul\":197:198   */\n  0x00\n    /* \"#utility.yul\":194:195   */\n  dup1\n    /* \"#utility.yul\":187:199   */\n  revert\n    /* \"#utility.yul\":334:460   */\ntag_13:\n    /* \"#utility.yul\":371:378   */\n  0x00\n    /* \"#utility.yul\":411:453   */\n  0xffffffffffffffffffffffffffffffffffffffff\n    /* \"#utility.yul\":404:409   */\n  dup3\n    /* \"#utility.yul\":400:454   */\n  and\n    /* \"#utility.yul\":389:454   */\n  swap1\n  pop\n    /* \"#utility.yul\":334:460   */\n  swap2\n  swap1\n  pop\n  jump\t// out\n    /* \"#utility.yul\":466:562   */\ntag_14:\n    /* \"#utility.yul\":503:510   */\n  0x00\n    /* \"#utility.yul\":532:556   */\n  tag_26\n    /* \"#utility.yul\":550:555   */\n  dup3\n    /* \"#utility.yul\":532:556   */\n  tag_13\n  jump\t// in\ntag_26:\n    /* \"#utility.yul\":521:556   */\n  swap1\n  pop\n    /* \"#utility.yul\":466:562   */\n  swap2\n  swap1\n  pop\n  jump\t// out\n    /* \"#utility.yul\":568:690   */\ntag_15:\n    /* \"#utility.yul\":641:665   */\n  tag_28\n    /* \"#utility.yul\":659:664   */\n  dup2\n    /* \"#utility.yul\":641:665   */\n  tag_14\n  jump\t// in\ntag_28:\n    /* \"#utility.yul\":634:639   */\n  dup2\n    /* \"#utility.yul\":631:666   */\n  eq\n    /* \"#utility.yul\":621:684   */\n  tag_29\n  jumpi\n    /* \"#utility.yul\":680:681   */\n  0x00\n    /* \"#utility.yul\":677:678   */\n  dup1\n    /* \"#utility.yul\":670:682   */\n  revert\n    /* \"#utility.yul\":621:684   */\ntag_29:\n    /* \"#utility.yul\":568:690   */\n  pop\n  jump\t// out\n    /* \"#utility.yul\":696:839   */\ntag_16:\n    /* \"#utility.yul\":753:758   */\n  0x00\n    /* \"#utility.yul\":784:790   */\n  dup2\n    /* \"#utility.yul\":778:791   */\n  mload\n    /* \"#utility.yul\":769:791   */\n  swap1\n  pop\n    /* \"#utility.yul\":800:833   */\n  tag_31\n    /* \"#utility.yul\":827:832   */\n  dup2\n    /* \"#utility.yul\":800:833   */\n  tag_15\n  jump\t// in\ntag_31:\n    /* \"#utility.yul\":696:839   */\n  swap3\n  swap2\n  pop\n  pop\n  jump\t// out\n    /* \"#utility.yul\":845:1196   */\ntag_3:\n    /* \"#utility.yul\":915:921   */\n  0x00\n    /* \"#utility.yul\":964:966   */\n  0x20\n    /* \"#utility.yul\":952:961   */\n  dup3\n    /* \"#utility.yul\":943:950   */\n  dup5\n    /* \"#utility.yul\":939:962   */\n  sub\n    /* \"#utility.yul\":935:967   */\n  slt\n    /* \"#utility.yul\":932:1051   */\n  iszero\n  tag_33\n  jumpi\n    /* \"#utility.yul\":970:1049   */\n  tag_34\n  tag_11\n  jump\t// in\ntag_34:\n    /* \"#utility.yul\":932:1051   */\ntag_33:\n    /* \"#utility.yul\":1090:1091   */\n  0x00\n    /* \"#utility.yul\":1115:1179   */\n  tag_35\n    /* \"#utility.yul\":1171:1178   */\n  dup5\n    /* \"#utility.yul\":1162:1168   */\n  dup3\n    /* \"#utility.yul\":1151:1160   */\n  dup6\n    /* \"#utility.yul\":1147:1169   */\n  add\n    /* \"#utility.yul\":1115:1179   */\n  tag_16\n  jump\t// in\ntag_35:\n    /* \"#utility.yul\":1105:1179   */\n  swap2\n  pop\n    /* \"#utility.yul\":1061:1189   */\n  pop\n    /* \"#utility.yul\":845:1196   */\n  swap3\n  swap2\n  pop\n  pop\n  jump\t// out\n    /* \"#utility.yul\":1202:1371   */\ntag_17:\n    /* \"#utility.yul\":1286:1297   */\n  0x00\n    /* \"#utility.yul\":1320:1326   */\n  dup3\n    /* \"#utility.yul\":1315:1318   */\n  dup3\n    /* \"#utility.yul\":1308:1327   */\n  mstore\n    /* \"#utility.yul\":1360:1364   */\n  0x20\n    /* \"#utility.yul\":1355:1358   */\n  dup3\n    /* \"#utility.yul\":1351:1365   */\n  add\n    /* \"#utility.yul\":1336:1365   */\n  swap1\n  pop\n    /* \"#utility.yul\":1202:1371   */\n  swap3\n  swap2\n  pop\n  pop\n  jump\t// out\n    /* \"#utility.yul\":1377:1598   */\ntag_18:\n    /* \"#utility.yul\":1517:1551   */\n  0x5553445420746f6b656e20616464726573732063616e6e6f74206265207a6572\n    /* \"#utility.yul\":1513:1514   */\n  0x00\n    /* \"#utility.yul\":1505:1511   */\n  dup3\n    /* \"#utility.yul\":1501:1515   */\n  add\n    /* \"#utility.yul\":1494:1552   */\n  mstore\n    /* \"#utility.yul\":1586:1590   */\n  0x6f2e000000000000000000000000000000000000000000000000000000000000\n    /* \"#utility.yul\":1581:1583   */\n  0x20\n    /* \"#utility.yul\":1573:1579   */\n  dup3\n    /* \"#utility.yul\":1569:1584   */\n  add\n    /* \"#utility.yul\":1562:1591   */\n  mstore\n    /* \"#utility.yul\":1377:1598   */\n  pop\n  jump\t// out\n    /* \"#utility.yul\":1604:1970   */\ntag_19:\n    /* \"#utility.yul\":1746:1749   */\n  0x00\n    /* \"#utility.yul\":1767:1834   */\n  tag_39\n    /* \"#utility.yul\":1831:1833   */\n  0x22\n    /* \"#utility.yul\":1826:1829   */\n  dup4\n    /* \"#utility.yul\":1767:1834   */\n  tag_17\n  jump\t// in\ntag_39:\n    /* \"#utility.yul\":1760:1834   */\n  swap2\n  pop\n    /* \"#utility.yul\":1843:1936   */\n  tag_40\n    /* \"#utility.yul\":1932:1935   */\n  dup3\n    /* \"#utility.yul\":1843:1936   */\n  tag_18\n  jump\t// in\ntag_40:\n    /* \"#utility.yul\":1961:1963   */\n  0x40\n    /* \"#utility.yul\":1956:1959   */\n  dup3\n    /* \"#utility.yul\":1952:1964   */\n  add\n    /* \"#utility.yul\":1945:1964   */\n  swap1\n  pop\n    /* \"#utility.yul\":1604:1970   */\n  swap2\n  swap1\n  pop\n  jump\t// out\n    /* \"#utility.yul\":1976:2395   */\ntag_8:\n    /* \"#utility.yul\":2142:2146   */\n  0x00\n    /* \"#utility.yul\":2180:2182   */\n  0x20\n    /* \"#utility.yul\":2169:2178   */\n  dup3\n    /* \"#utility.yul\":2165:2183   */\n  add\n    /* \"#utility.yul\":2157:2183   */\n  swap1\n  pop\n    /* \"#utility.yul\":2229:2238   */\n  dup2\n    /* \"#utility.yul\":2223:2227   */\n  dup2\n    /* \"#utility.yul\":2219:2239   */\n  sub\n    /* \"#utility.yul\":2215:2216   */\n  0x00\n    /* \"#utility.yul\":2204:2213   */\n  dup4\n    /* \"#utility.yul\":2200:2217   */\n  add\n    /* \"#utility.yul\":2193:2240   */\n  mstore\n    /* \"#utility.yul\":2257:2388   */\n  tag_42\n    /* \"#utility.yul\":2383:2387   */\n  dup2\n    /* \"#utility.yul\":2257:2388   */\n  tag_19\n  jump\t// in\ntag_42:\n    /* \"#utility.yul\":2249:2388   */\n  swap1\n  pop\n    /* \"#utility.yul\":1976:2395   */\n  swap2\n  swap1\n  pop\n  jump\t// out\n    /* \"contracts/1_RadioDistUsdt.sol\":263:1932  contract USDTDistributor {... */\ntag_9:\n  dataSize(sub_0)\n  dup1\n  dataOffset(sub_0)\n  0x00\n  codecopy\n  0x00\n  return\nstop\n\nsub_0: assembly {\n        /* \"contracts/1_RadioDistUsdt.sol\":263:1932  contract USDTDistributor {... */\n      mstore(0x40, 0x80)\n      callvalue\n      dup1\n      iszero\n      tag_1\n      jumpi\n      0x00\n      dup1\n      revert\n    tag_1:\n      pop\n      jumpi(tag_2, lt(calldatasize, 0x04))\n      shr(0xe0, calldataload(0x00))\n      dup1\n      0x8ba122e4\n      eq\n      tag_3\n      jumpi\n      dup1\n      0x8da5cb5b\n      eq\n      tag_4\n      jumpi\n      dup1\n      0xa98ad46c\n      eq\n      tag_5\n      jumpi\n      dup1\n      0xfb932108\n      eq\n      tag_6\n      jumpi\n    tag_2:\n      0x00\n      dup1\n      revert\n        /* \"contracts/1_RadioDistUsdt.sol\":1419:1929  function distributeDecimal(address recipient, uint256 wholePart, uint256 decimalPart) public onlyOwner {... */\n    tag_3:\n      tag_7\n      0x04\n      dup1\n      calldatasize\n      sub\n      dup2\n      add\n      swap1\n      tag_8\n      swap2\n      swap1\n      tag_9\n      jump\t// in\n    tag_8:\n      tag_10\n      jump\t// in\n    tag_7:\n      stop\n        /* \"contracts/1_RadioDistUsdt.sol\":295:315  address public owner */\n    tag_4:\n      tag_11\n      tag_12\n      jump\t// in\n    tag_11:\n      mload(0x40)\n      tag_13\n      swap2\n      swap1\n      tag_14\n      jump\t// in\n    tag_13:\n      mload(0x40)\n      dup1\n      swap2\n      sub\n      swap1\n      return\n        /* \"contracts/1_RadioDistUsdt.sol\":322:345  IERC20 public usdtToken */\n    tag_5:\n      tag_15\n      tag_16\n      jump\t// in\n    tag_15:\n      mload(0x40)\n      tag_17\n      swap2\n      swap1\n      tag_18\n      jump\t// in\n    tag_17:\n      mload(0x40)\n      dup1\n      swap2\n      sub\n      swap1\n      return\n        /* \"contracts/1_RadioDistUsdt.sol\":921:1363  function distribute(address recipient, uint256 amountInUSDT) public onlyOwner {... */\n    tag_6:\n      tag_19\n      0x04\n      dup1\n      calldatasize\n      sub\n      dup2\n      add\n      swap1\n      tag_20\n      swap2\n      swap1\n      tag_21\n      jump\t// in\n    tag_20:\n      tag_22\n      jump\t// in\n    tag_19:\n      stop\n        /* \"contracts/1_RadioDistUsdt.sol\":1419:1929  function distributeDecimal(address recipient, uint256 wholePart, uint256 decimalPart) public onlyOwner {... */\n    tag_10:\n        /* \"contracts/1_RadioDistUsdt.sol\":784:789  owner */\n      0x00\n      dup1\n      sload\n      swap1\n      0x0100\n      exp\n      swap1\n      div\n      0xffffffffffffffffffffffffffffffffffffffff\n      and\n        /* \"contracts/1_RadioDistUsdt.sol\":770:789  msg.sender == owner */\n      0xffffffffffffffffffffffffffffffffffffffff\n      and\n        /* \"contracts/1_RadioDistUsdt.sol\":770:780  msg.sender */\n      caller\n        /* \"contracts/1_RadioDistUsdt.sol\":770:789  msg.sender == owner */\n      0xffffffffffffffffffffffffffffffffffffffff\n      and\n      eq\n        /* \"contracts/1_RadioDistUsdt.sol\":762:834  require(msg.sender == owner, \"Only the owner can execute this function\") */\n      tag_24\n      jumpi\n      mload(0x40)\n      0x08c379a000000000000000000000000000000000000000000000000000000000\n      dup2\n      mstore\n      0x04\n      add\n      tag_25\n      swap1\n      tag_26\n      jump\t// in\n    tag_25:\n      mload(0x40)\n      dup1\n      swap2\n      sub\n      swap1\n      revert\n    tag_24:\n        /* \"contracts/1_RadioDistUsdt.sol\":1562:1563  0 */\n      0x00\n        /* \"contracts/1_RadioDistUsdt.sol\":1541:1564  recipient != address(0) */\n      0xffffffffffffffffffffffffffffffffffffffff\n      and\n        /* \"contracts/1_RadioDistUsdt.sol\":1541:1550  recipient */\n      dup4\n        /* \"contracts/1_RadioDistUsdt.sol\":1541:1564  recipient != address(0) */\n      0xffffffffffffffffffffffffffffffffffffffff\n      and\n      sub\n        /* \"contracts/1_RadioDistUsdt.sol\":1533:1602  require(recipient != address(0), \"Recipient address cannot be zero.\") */\n      tag_28\n      jumpi\n      mload(0x40)\n      0x08c379a000000000000000000000000000000000000000000000000000000000\n      dup2\n      mstore\n      0x04\n      add\n      tag_29\n      swap1\n      tag_30\n      jump\t// in\n    tag_29:\n      mload(0x40)\n      dup1\n      swap2\n      sub\n      swap1\n      revert\n    tag_28:\n        /* \"contracts/1_RadioDistUsdt.sol\":1635:1638  1e6 */\n      0x0f4240\n        /* \"contracts/1_RadioDistUsdt.sol\":1621:1632  decimalPart */\n      dup2\n        /* \"contracts/1_RadioDistUsdt.sol\":1621:1638  decimalPart < 1e6 */\n      lt\n        /* \"contracts/1_RadioDistUsdt.sol\":1613:1705  require(decimalPart < 1e6, \"Decimal part should be less than 1e6 for six decimal precision\") */\n      tag_31\n      jumpi\n      mload(0x40)\n      0x08c379a000000000000000000000000000000000000000000000000000000000\n      dup2\n      mstore\n      0x04\n      add\n      tag_32\n      swap1\n      tag_33\n      jump\t// in\n    tag_32:\n      mload(0x40)\n      dup1\n      swap2\n      sub\n      swap1\n      revert\n    tag_31:\n        /* \"contracts/1_RadioDistUsdt.sol\":1716:1736  uint256 amountInUSDT */\n      0x00\n        /* \"contracts/1_RadioDistUsdt.sol\":1757:1768  decimalPart */\n      dup2\n        /* \"contracts/1_RadioDistUsdt.sol\":1751:1754  1e6 */\n      0x0f4240\n        /* \"contracts/1_RadioDistUsdt.sol\":1739:1748  wholePart */\n      dup5\n        /* \"contracts/1_RadioDistUsdt.sol\":1739:1754  wholePart * 1e6 */\n      tag_34\n      swap2\n      swap1\n      tag_35\n      jump\t// in\n    tag_34:\n        /* \"contracts/1_RadioDistUsdt.sol\":1739:1768  wholePart * 1e6 + decimalPart */\n      tag_36\n      swap2\n      swap1\n      tag_37\n      jump\t// in\n    tag_36:\n        /* \"contracts/1_RadioDistUsdt.sol\":1716:1768  uint256 amountInUSDT = wholePart * 1e6 + decimalPart */\n      swap1\n      pop\n        /* \"contracts/1_RadioDistUsdt.sol\":1787:1796  usdtToken */\n      0x01\n      0x00\n      swap1\n      sload\n      swap1\n      0x0100\n      exp\n      swap1\n      div\n      0xffffffffffffffffffffffffffffffffffffffff\n      and\n        /* \"contracts/1_RadioDistUsdt.sol\":1787:1809  usdtToken.transferFrom */\n      0xffffffffffffffffffffffffffffffffffffffff\n      and\n      0x23b872dd\n        /* \"contracts/1_RadioDistUsdt.sol\":1810:1815  owner */\n      0x00\n      dup1\n      sload\n      swap1\n      0x0100\n      exp\n      swap1\n      div\n      0xffffffffffffffffffffffffffffffffffffffff\n      and\n        /* \"contracts/1_RadioDistUsdt.sol\":1817:1826  recipient */\n      dup7\n        /* \"contracts/1_RadioDistUsdt.sol\":1828:1840  amountInUSDT */\n      dup5\n        /* \"contracts/1_RadioDistUsdt.sol\":1787:1841  usdtToken.transferFrom(owner, recipient, amountInUSDT) */\n      mload(0x40)\n      dup5\n      0xffffffff\n      and\n      0xe0\n      shl\n      dup2\n      mstore\n      0x04\n      add\n      tag_38\n      swap4\n      swap3\n      swap2\n      swap1\n      tag_39\n      jump\t// in\n    tag_38:\n      0x20\n      mload(0x40)\n      dup1\n      dup4\n      sub\n      dup2\n      0x00\n      dup8\n      gas\n      call\n      iszero\n      dup1\n      iszero\n      tag_41\n      jumpi\n      returndatasize\n      0x00\n      dup1\n      returndatacopy\n      revert(0x00, returndatasize)\n    tag_41:\n      pop\n      pop\n      pop\n      pop\n      mload(0x40)\n      returndatasize\n      not(0x1f)\n      0x1f\n      dup3\n      add\n      and\n      dup3\n      add\n      dup1\n      0x40\n      mstore\n      pop\n      dup2\n      add\n      swap1\n      tag_42\n      swap2\n      swap1\n      tag_43\n      jump\t// in\n    tag_42:\n        /* \"contracts/1_RadioDistUsdt.sol\":1779:1861  require(usdtToken.transferFrom(owner, recipient, amountInUSDT), \"Transfer failed\") */\n      tag_44\n      jumpi\n      mload(0x40)\n      0x08c379a000000000000000000000000000000000000000000000000000000000\n      dup2\n      mstore\n      0x04\n      add\n      tag_45\n      swap1\n      tag_46\n      jump\t// in\n    tag_45:\n      mload(0x40)\n      dup1\n      swap2\n      sub\n      swap1\n      revert\n    tag_44:\n        /* \"contracts/1_RadioDistUsdt.sol\":1897:1906  recipient */\n      dup4\n        /* \"contracts/1_RadioDistUsdt.sol\":1877:1921  Distribution(owner, recipient, amountInUSDT) */\n      0xffffffffffffffffffffffffffffffffffffffff\n      and\n        /* \"contracts/1_RadioDistUsdt.sol\":1890:1895  owner */\n      0x00\n      dup1\n      sload\n      swap1\n      0x0100\n      exp\n      swap1\n      div\n      0xffffffffffffffffffffffffffffffffffffffff\n      and\n        /* \"contracts/1_RadioDistUsdt.sol\":1877:1921  Distribution(owner, recipient, amountInUSDT) */\n      0xffffffffffffffffffffffffffffffffffffffff\n      and\n      0x022bd701e0d563742a0cf249c998c6c6a8db069e863592a0581053cdec2973ef\n        /* \"contracts/1_RadioDistUsdt.sol\":1908:1920  amountInUSDT */\n      dup4\n        /* \"contracts/1_RadioDistUsdt.sol\":1877:1921  Distribution(owner, recipient, amountInUSDT) */\n      mload(0x40)\n      tag_47\n      swap2\n      swap1\n      tag_48\n      jump\t// in\n    tag_47:\n      mload(0x40)\n      dup1\n      swap2\n      sub\n      swap1\n      log3\n        /* \"contracts/1_RadioDistUsdt.sol\":1522:1929  {... */\n      pop\n        /* \"contracts/1_RadioDistUsdt.sol\":1419:1929  function distributeDecimal(address recipient, uint256 wholePart, uint256 decimalPart) public onlyOwner {... */\n      pop\n      pop\n      pop\n      jump\t// out\n        /* \"contracts/1_RadioDistUsdt.sol\":295:315  address public owner */\n    tag_12:\n      0x00\n      dup1\n      sload\n      swap1\n      0x0100\n      exp\n      swap1\n      div\n      0xffffffffffffffffffffffffffffffffffffffff\n      and\n      dup2\n      jump\t// out\n        /* \"contracts/1_RadioDistUsdt.sol\":322:345  IERC20 public usdtToken */\n    tag_16:\n      0x01\n      0x00\n      swap1\n      sload\n      swap1\n      0x0100\n      exp\n      swap1\n      div\n      0xffffffffffffffffffffffffffffffffffffffff\n      and\n      dup2\n      jump\t// out\n        /* \"contracts/1_RadioDistUsdt.sol\":921:1363  function distribute(address recipient, uint256 amountInUSDT) public onlyOwner {... */\n    tag_22:\n        /* \"contracts/1_RadioDistUsdt.sol\":784:789  owner */\n      0x00\n      dup1\n      sload\n      swap1\n      0x0100\n      exp\n      swap1\n      div\n      0xffffffffffffffffffffffffffffffffffffffff\n      and\n        /* \"contracts/1_RadioDistUsdt.sol\":770:789  msg.sender == owner */\n      0xffffffffffffffffffffffffffffffffffffffff\n      and\n        /* \"contracts/1_RadioDistUsdt.sol\":770:780  msg.sender */\n      caller\n        /* \"contracts/1_RadioDistUsdt.sol\":770:789  msg.sender == owner */\n      0xffffffffffffffffffffffffffffffffffffffff\n      and\n      eq\n        /* \"contracts/1_RadioDistUsdt.sol\":762:834  require(msg.sender == owner, \"Only the owner can execute this function\") */\n      tag_50\n      jumpi\n      mload(0x40)\n      0x08c379a000000000000000000000000000000000000000000000000000000000\n      dup2\n      mstore\n      0x04\n      add\n      tag_51\n      swap1\n      tag_26\n      jump\t// in\n    tag_51:\n      mload(0x40)\n      dup1\n      swap2\n      sub\n      swap1\n      revert\n    tag_50:\n        /* \"contracts/1_RadioDistUsdt.sol\":1039:1040  0 */\n      0x00\n        /* \"contracts/1_RadioDistUsdt.sol\":1018:1041  recipient != address(0) */\n      0xffffffffffffffffffffffffffffffffffffffff\n      and\n        /* \"contracts/1_RadioDistUsdt.sol\":1018:1027  recipient */\n      dup3\n        /* \"contracts/1_RadioDistUsdt.sol\":1018:1041  recipient != address(0) */\n      0xffffffffffffffffffffffffffffffffffffffff\n      and\n      sub\n        /* \"contracts/1_RadioDistUsdt.sol\":1010:1079  require(recipient != address(0), \"Recipient address cannot be zero.\") */\n      tag_53\n      jumpi\n      mload(0x40)\n      0x08c379a000000000000000000000000000000000000000000000000000000000\n      dup2\n      mstore\n      0x04\n      add\n      tag_54\n      swap1\n      tag_30\n      jump\t// in\n    tag_54:\n      mload(0x40)\n      dup1\n      swap2\n      sub\n      swap1\n      revert\n    tag_53:\n        /* \"contracts/1_RadioDistUsdt.sol\":1090:1116  uint256 amountWithDecimals */\n      0x00\n        /* \"contracts/1_RadioDistUsdt.sol\":1134:1137  1e6 */\n      0x0f4240\n        /* \"contracts/1_RadioDistUsdt.sol\":1119:1131  amountInUSDT */\n      dup3\n        /* \"contracts/1_RadioDistUsdt.sol\":1119:1137  amountInUSDT * 1e6 */\n      tag_55\n      swap2\n      swap1\n      tag_35\n      jump\t// in\n    tag_55:\n        /* \"contracts/1_RadioDistUsdt.sol\":1090:1137  uint256 amountWithDecimals = amountInUSDT * 1e6 */\n      swap1\n      pop\n        /* \"contracts/1_RadioDistUsdt.sol\":1209:1218  usdtToken */\n      0x01\n      0x00\n      swap1\n      sload\n      swap1\n      0x0100\n      exp\n      swap1\n      div\n      0xffffffffffffffffffffffffffffffffffffffff\n      and\n        /* \"contracts/1_RadioDistUsdt.sol\":1209:1231  usdtToken.transferFrom */\n      0xffffffffffffffffffffffffffffffffffffffff\n      and\n      0x23b872dd\n        /* \"contracts/1_RadioDistUsdt.sol\":1232:1237  owner */\n      0x00\n      dup1\n      sload\n      swap1\n      0x0100\n      exp\n      swap1\n      div\n      0xffffffffffffffffffffffffffffffffffffffff\n      and\n        /* \"contracts/1_RadioDistUsdt.sol\":1239:1248  recipient */\n      dup6\n        /* \"contracts/1_RadioDistUsdt.sol\":1250:1268  amountWithDecimals */\n      dup5\n        /* \"contracts/1_RadioDistUsdt.sol\":1209:1269  usdtToken.transferFrom(owner, recipient, amountWithDecimals) */\n      mload(0x40)\n      dup5\n      0xffffffff\n      and\n      0xe0\n      shl\n      dup2\n      mstore\n      0x04\n      add\n      tag_56\n      swap4\n      swap3\n      swap2\n      swap1\n      tag_39\n      jump\t// in\n    tag_56:\n      0x20\n      mload(0x40)\n      dup1\n      dup4\n      sub\n      dup2\n      0x00\n      dup8\n      gas\n      call\n      iszero\n      dup1\n      iszero\n      tag_58\n      jumpi\n      returndatasize\n      0x00\n      dup1\n      returndatacopy\n      revert(0x00, returndatasize)\n    tag_58:\n      pop\n      pop\n      pop\n      pop\n      mload(0x40)\n      returndatasize\n      not(0x1f)\n      0x1f\n      dup3\n      add\n      and\n      dup3\n      add\n      dup1\n      0x40\n      mstore\n      pop\n      dup2\n      add\n      swap1\n      tag_59\n      swap2\n      swap1\n      tag_43\n      jump\t// in\n    tag_59:\n        /* \"contracts/1_RadioDistUsdt.sol\":1201:1289  require(usdtToken.transferFrom(owner, recipient, amountWithDecimals), \"Transfer failed\") */\n      tag_60\n      jumpi\n      mload(0x40)\n      0x08c379a000000000000000000000000000000000000000000000000000000000\n      dup2\n      mstore\n      0x04\n      add\n      tag_61\n      swap1\n      tag_46\n      jump\t// in\n    tag_61:\n      mload(0x40)\n      dup1\n      swap2\n      sub\n      swap1\n      revert\n    tag_60:\n        /* \"contracts/1_RadioDistUsdt.sol\":1325:1334  recipient */\n      dup3\n        /* \"contracts/1_RadioDistUsdt.sol\":1305:1355  Distribution(owner, recipient, amountWithDecimals) */\n      0xffffffffffffffffffffffffffffffffffffffff\n      and\n        /* \"contracts/1_RadioDistUsdt.sol\":1318:1323  owner */\n      0x00\n      dup1\n      sload\n      swap1\n      0x0100\n      exp\n      swap1\n      div\n      0xffffffffffffffffffffffffffffffffffffffff\n      and\n        /* \"contracts/1_RadioDistUsdt.sol\":1305:1355  Distribution(owner, recipient, amountWithDecimals) */\n      0xffffffffffffffffffffffffffffffffffffffff\n      and\n      0x022bd701e0d563742a0cf249c998c6c6a8db069e863592a0581053cdec2973ef\n        /* \"contracts/1_RadioDistUsdt.sol\":1336:1354  amountWithDecimals */\n      dup4\n        /* \"contracts/1_RadioDistUsdt.sol\":1305:1355  Distribution(owner, recipient, amountWithDecimals) */\n      mload(0x40)\n      tag_62\n      swap2\n      swap1\n      tag_48\n      jump\t// in\n    tag_62:\n      mload(0x40)\n      dup1\n      swap2\n      sub\n      swap1\n      log3\n        /* \"contracts/1_RadioDistUsdt.sol\":999:1363  {... */\n      pop\n        /* \"contracts/1_RadioDistUsdt.sol\":921:1363  function distribute(address recipient, uint256 amountInUSDT) public onlyOwner {... */\n      pop\n      pop\n      jump\t// out\n        /* \"#utility.yul\":88:205   */\n    tag_64:\n        /* \"#utility.yul\":197:198   */\n      0x00\n        /* \"#utility.yul\":194:195   */\n      dup1\n        /* \"#utility.yul\":187:199   */\n      revert\n        /* \"#utility.yul\":334:460   */\n    tag_66:\n        /* \"#utility.yul\":371:378   */\n      0x00\n        /* \"#utility.yul\":411:453   */\n      0xffffffffffffffffffffffffffffffffffffffff\n        /* \"#utility.yul\":404:409   */\n      dup3\n        /* \"#utility.yul\":400:454   */\n      and\n        /* \"#utility.yul\":389:454   */\n      swap1\n      pop\n        /* \"#utility.yul\":334:460   */\n      swap2\n      swap1\n      pop\n      jump\t// out\n        /* \"#utility.yul\":466:562   */\n    tag_67:\n        /* \"#utility.yul\":503:510   */\n      0x00\n        /* \"#utility.yul\":532:556   */\n      tag_99\n        /* \"#utility.yul\":550:555   */\n      dup3\n        /* \"#utility.yul\":532:556   */\n      tag_66\n      jump\t// in\n    tag_99:\n        /* \"#utility.yul\":521:556   */\n      swap1\n      pop\n        /* \"#utility.yul\":466:562   */\n      swap2\n      swap1\n      pop\n      jump\t// out\n        /* \"#utility.yul\":568:690   */\n    tag_68:\n        /* \"#utility.yul\":641:665   */\n      tag_101\n        /* \"#utility.yul\":659:664   */\n      dup2\n        /* \"#utility.yul\":641:665   */\n      tag_67\n      jump\t// in\n    tag_101:\n        /* \"#utility.yul\":634:639   */\n      dup2\n        /* \"#utility.yul\":631:666   */\n      eq\n        /* \"#utility.yul\":621:684   */\n      tag_102\n      jumpi\n        /* \"#utility.yul\":680:681   */\n      0x00\n        /* \"#utility.yul\":677:678   */\n      dup1\n        /* \"#utility.yul\":670:682   */\n      revert\n        /* \"#utility.yul\":621:684   */\n    tag_102:\n        /* \"#utility.yul\":568:690   */\n      pop\n      jump\t// out\n        /* \"#utility.yul\":696:835   */\n    tag_69:\n        /* \"#utility.yul\":742:747   */\n      0x00\n        /* \"#utility.yul\":780:786   */\n      dup2\n        /* \"#utility.yul\":767:787   */\n      calldataload\n        /* \"#utility.yul\":758:787   */\n      swap1\n      pop\n        /* \"#utility.yul\":796:829   */\n      tag_104\n        /* \"#utility.yul\":823:828   */\n      dup2\n        /* \"#utility.yul\":796:829   */\n      tag_68\n      jump\t// in\n    tag_104:\n        /* \"#utility.yul\":696:835   */\n      swap3\n      swap2\n      pop\n      pop\n      jump\t// out\n        /* \"#utility.yul\":841:918   */\n    tag_70:\n        /* \"#utility.yul\":878:885   */\n      0x00\n        /* \"#utility.yul\":907:912   */\n      dup2\n        /* \"#utility.yul\":896:912   */\n      swap1\n      pop\n        /* \"#utility.yul\":841:918   */\n      swap2\n      swap1\n      pop\n      jump\t// out\n        /* \"#utility.yul\":924:1046   */\n    tag_71:\n        /* \"#utility.yul\":997:1021   */\n      tag_107\n        /* \"#utility.yul\":1015:1020   */\n      dup2\n        /* \"#utility.yul\":997:1021   */\n      tag_70\n      jump\t// in\n    tag_107:\n        /* \"#utility.yul\":990:995   */\n      dup2\n        /* \"#utility.yul\":987:1022   */\n      eq\n        /* \"#utility.yul\":977:1040   */\n      tag_108\n      jumpi\n        /* \"#utility.yul\":1036:1037   */\n      0x00\n        /* \"#utility.yul\":1033:1034   */\n      dup1\n        /* \"#utility.yul\":1026:1038   */\n      revert\n        /* \"#utility.yul\":977:1040   */\n    tag_108:\n        /* \"#utility.yul\":924:1046   */\n      pop\n      jump\t// out\n        /* \"#utility.yul\":1052:1191   */\n    tag_72:\n        /* \"#utility.yul\":1098:1103   */\n      0x00\n        /* \"#utility.yul\":1136:1142   */\n      dup2\n        /* \"#utility.yul\":1123:1143   */\n      calldataload\n        /* \"#utility.yul\":1114:1143   */\n      swap1\n      pop\n        /* \"#utility.yul\":1152:1185   */\n      tag_110\n        /* \"#utility.yul\":1179:1184   */\n      dup2\n        /* \"#utility.yul\":1152:1185   */\n      tag_71\n      jump\t// in\n    tag_110:\n        /* \"#utility.yul\":1052:1191   */\n      swap3\n      swap2\n      pop\n      pop\n      jump\t// out\n        /* \"#utility.yul\":1197:1816   */\n    tag_9:\n        /* \"#utility.yul\":1274:1280   */\n      0x00\n        /* \"#utility.yul\":1282:1288   */\n      dup1\n        /* \"#utility.yul\":1290:1296   */\n      0x00\n        /* \"#utility.yul\":1339:1341   */\n      0x60\n        /* \"#utility.yul\":1327:1336   */\n      dup5\n        /* \"#utility.yul\":1318:1325   */\n      dup7\n        /* \"#utility.yul\":1314:1337   */\n      sub\n        /* \"#utility.yul\":1310:1342   */\n      slt\n        /* \"#utility.yul\":1307:1426   */\n      iszero\n      tag_112\n      jumpi\n        /* \"#utility.yul\":1345:1424   */\n      tag_113\n      tag_64\n      jump\t// in\n    tag_113:\n        /* \"#utility.yul\":1307:1426   */\n    tag_112:\n        /* \"#utility.yul\":1465:1466   */\n      0x00\n        /* \"#utility.yul\":1490:1543   */\n      tag_114\n        /* \"#utility.yul\":1535:1542   */\n      dup7\n        /* \"#utility.yul\":1526:1532   */\n      dup3\n        /* \"#utility.yul\":1515:1524   */\n      dup8\n        /* \"#utility.yul\":1511:1533   */\n      add\n        /* \"#utility.yul\":1490:1543   */\n      tag_69\n      jump\t// in\n    tag_114:\n        /* \"#utility.yul\":1480:1543   */\n      swap4\n      pop\n        /* \"#utility.yul\":1436:1553   */\n      pop\n        /* \"#utility.yul\":1592:1594   */\n      0x20\n        /* \"#utility.yul\":1618:1671   */\n      tag_115\n        /* \"#utility.yul\":1663:1670   */\n      dup7\n        /* \"#utility.yul\":1654:1660   */\n      dup3\n        /* \"#utility.yul\":1643:1652   */\n      dup8\n        /* \"#utility.yul\":1639:1661   */\n      add\n        /* \"#utility.yul\":1618:1671   */\n      tag_72\n      jump\t// in\n    tag_115:\n        /* \"#utility.yul\":1608:1671   */\n      swap3\n      pop\n        /* \"#utility.yul\":1563:1681   */\n      pop\n        /* \"#utility.yul\":1720:1722   */\n      0x40\n        /* \"#utility.yul\":1746:1799   */\n      tag_116\n        /* \"#utility.yul\":1791:1798   */\n      dup7\n        /* \"#utility.yul\":1782:1788   */\n      dup3\n        /* \"#utility.yul\":1771:1780   */\n      dup8\n        /* \"#utility.yul\":1767:1789   */\n      add\n        /* \"#utility.yul\":1746:1799   */\n      tag_72\n      jump\t// in\n    tag_116:\n        /* \"#utility.yul\":1736:1799   */\n      swap2\n      pop\n        /* \"#utility.yul\":1691:1809   */\n      pop\n        /* \"#utility.yul\":1197:1816   */\n      swap3\n      pop\n      swap3\n      pop\n      swap3\n      jump\t// out\n        /* \"#utility.yul\":1822:1940   */\n    tag_73:\n        /* \"#utility.yul\":1909:1933   */\n      tag_118\n        /* \"#utility.yul\":1927:1932   */\n      dup2\n        /* \"#utility.yul\":1909:1933   */\n      tag_67\n      jump\t// in\n    tag_118:\n        /* \"#utility.yul\":1904:1907   */\n      dup3\n        /* \"#utility.yul\":1897:1934   */\n      mstore\n        /* \"#utility.yul\":1822:1940   */\n      pop\n      pop\n      jump\t// out\n        /* \"#utility.yul\":1946:2168   */\n    tag_14:\n        /* \"#utility.yul\":2039:2043   */\n      0x00\n        /* \"#utility.yul\":2077:2079   */\n      0x20\n        /* \"#utility.yul\":2066:2075   */\n      dup3\n        /* \"#utility.yul\":2062:2080   */\n      add\n        /* \"#utility.yul\":2054:2080   */\n      swap1\n      pop\n        /* \"#utility.yul\":2090:2161   */\n      tag_120\n        /* \"#utility.yul\":2158:2159   */\n      0x00\n        /* \"#utility.yul\":2147:2156   */\n      dup4\n        /* \"#utility.yul\":2143:2160   */\n      add\n        /* \"#utility.yul\":2134:2140   */\n      dup5\n        /* \"#utility.yul\":2090:2161   */\n      tag_73\n      jump\t// in\n    tag_120:\n        /* \"#utility.yul\":1946:2168   */\n      swap3\n      swap2\n      pop\n      pop\n      jump\t// out\n        /* \"#utility.yul\":2174:2234   */\n    tag_74:\n        /* \"#utility.yul\":2202:2205   */\n      0x00\n        /* \"#utility.yul\":2223:2228   */\n      dup2\n        /* \"#utility.yul\":2216:2228   */\n      swap1\n      pop\n        /* \"#utility.yul\":2174:2234   */\n      swap2\n      swap1\n      pop\n      jump\t// out\n        /* \"#utility.yul\":2240:2382   */\n    tag_75:\n        /* \"#utility.yul\":2290:2299   */\n      0x00\n        /* \"#utility.yul\":2323:2376   */\n      tag_123\n        /* \"#utility.yul\":2341:2375   */\n      tag_124\n        /* \"#utility.yul\":2350:2374   */\n      tag_125\n        /* \"#utility.yul\":2368:2373   */\n      dup5\n        /* \"#utility.yul\":2350:2374   */\n      tag_66\n      jump\t// in\n    tag_125:\n        /* \"#utility.yul\":2341:2375   */\n      tag_74\n      jump\t// in\n    tag_124:\n        /* \"#utility.yul\":2323:2376   */\n      tag_66\n      jump\t// in\n    tag_123:\n        /* \"#utility.yul\":2310:2376   */\n      swap1\n      pop\n        /* \"#utility.yul\":2240:2382   */\n      swap2\n      swap1\n      pop\n      jump\t// out\n        /* \"#utility.yul\":2388:2514   */\n    tag_76:\n        /* \"#utility.yul\":2438:2447   */\n      0x00\n        /* \"#utility.yul\":2471:2508   */\n      tag_127\n        /* \"#utility.yul\":2502:2507   */\n      dup3\n        /* \"#utility.yul\":2471:2508   */\n      tag_75\n      jump\t// in\n    tag_127:\n        /* \"#utility.yul\":2458:2508   */\n      swap1\n      pop\n        /* \"#utility.yul\":2388:2514   */\n      swap2\n      swap1\n      pop\n      jump\t// out\n        /* \"#utility.yul\":2520:2659   */\n    tag_77:\n        /* \"#utility.yul\":2583:2592   */\n      0x00\n        /* \"#utility.yul\":2616:2653   */\n      tag_129\n        /* \"#utility.yul\":2647:2652   */\n      dup3\n        /* \"#utility.yul\":2616:2653   */\n      tag_76\n      jump\t// in\n    tag_129:\n        /* \"#utility.yul\":2603:2653   */\n      swap1\n      pop\n        /* \"#utility.yul\":2520:2659   */\n      swap2\n      swap1\n      pop\n      jump\t// out\n        /* \"#utility.yul\":2665:2822   */\n    tag_78:\n        /* \"#utility.yul\":2765:2815   */\n      tag_131\n        /* \"#utility.yul\":2809:2814   */\n      dup2\n        /* \"#utility.yul\":2765:2815   */\n      tag_77\n      jump\t// in\n    tag_131:\n        /* \"#utility.yul\":2760:2763   */\n      dup3\n        /* \"#utility.yul\":2753:2816   */\n      mstore\n        /* \"#utility.yul\":2665:2822   */\n      pop\n      pop\n      jump\t// out\n        /* \"#utility.yul\":2828:3076   */\n    tag_18:\n        /* \"#utility.yul\":2934:2938   */\n      0x00\n        /* \"#utility.yul\":2972:2974   */\n      0x20\n        /* \"#utility.yul\":2961:2970   */\n      dup3\n        /* \"#utility.yul\":2957:2975   */\n      add\n        /* \"#utility.yul\":2949:2975   */\n      swap1\n      pop\n        /* \"#utility.yul\":2985:3069   */\n      tag_133\n        /* \"#utility.yul\":3066:3067   */\n      0x00\n        /* \"#utility.yul\":3055:3064   */\n      dup4\n        /* \"#utility.yul\":3051:3068   */\n      add\n        /* \"#utility.yul\":3042:3048   */\n      dup5\n        /* \"#utility.yul\":2985:3069   */\n      tag_78\n      jump\t// in\n    tag_133:\n        /* \"#utility.yul\":2828:3076   */\n      swap3\n      swap2\n      pop\n      pop\n      jump\t// out\n        /* \"#utility.yul\":3082:3556   */\n    tag_21:\n        /* \"#utility.yul\":3150:3156   */\n      0x00\n        /* \"#utility.yul\":3158:3164   */\n      dup1\n        /* \"#utility.yul\":3207:3209   */\n      0x40\n        /* \"#utility.yul\":3195:3204   */\n      dup4\n        /* \"#utility.yul\":3186:3193   */\n      dup6\n        /* \"#utility.yul\":3182:3205   */\n      sub\n        /* \"#utility.yul\":3178:3210   */\n      slt\n        /* \"#utility.yul\":3175:3294   */\n      iszero\n      tag_135\n      jumpi\n        /* \"#utility.yul\":3213:3292   */\n      tag_136\n      tag_64\n      jump\t// in\n    tag_136:\n        /* \"#utility.yul\":3175:3294   */\n    tag_135:\n        /* \"#utility.yul\":3333:3334   */\n      0x00\n        /* \"#utility.yul\":3358:3411   */\n      tag_137\n        /* \"#utility.yul\":3403:3410   */\n      dup6\n        /* \"#utility.yul\":3394:3400   */\n      dup3\n        /* \"#utility.yul\":3383:3392   */\n      dup7\n        /* \"#utility.yul\":3379:3401   */\n      add\n        /* \"#utility.yul\":3358:3411   */\n      tag_69\n      jump\t// in\n    tag_137:\n        /* \"#utility.yul\":3348:3411   */\n      swap3\n      pop\n        /* \"#utility.yul\":3304:3421   */\n      pop\n        /* \"#utility.yul\":3460:3462   */\n      0x20\n        /* \"#utility.yul\":3486:3539   */\n      tag_138\n        /* \"#utility.yul\":3531:3538   */\n      dup6\n        /* \"#utility.yul\":3522:3528   */\n      dup3\n        /* \"#utility.yul\":3511:3520   */\n      dup7\n        /* \"#utility.yul\":3507:3529   */\n      add\n        /* \"#utility.yul\":3486:3539   */\n      tag_72\n      jump\t// in\n    tag_138:\n        /* \"#utility.yul\":3476:3539   */\n      swap2\n      pop\n        /* \"#utility.yul\":3431:3549   */\n      pop\n        /* \"#utility.yul\":3082:3556   */\n      swap3\n      pop\n      swap3\n      swap1\n      pop\n      jump\t// out\n        /* \"#utility.yul\":3562:3731   */\n    tag_79:\n        /* \"#utility.yul\":3646:3657   */\n      0x00\n        /* \"#utility.yul\":3680:3686   */\n      dup3\n        /* \"#utility.yul\":3675:3678   */\n      dup3\n        /* \"#utility.yul\":3668:3687   */\n      mstore\n        /* \"#utility.yul\":3720:3724   */\n      0x20\n        /* \"#utility.yul\":3715:3718   */\n      dup3\n        /* \"#utility.yul\":3711:3725   */\n      add\n        /* \"#utility.yul\":3696:3725   */\n      swap1\n      pop\n        /* \"#utility.yul\":3562:3731   */\n      swap3\n      swap2\n      pop\n      pop\n      jump\t// out\n        /* \"#utility.yul\":3737:3964   */\n    tag_80:\n        /* \"#utility.yul\":3877:3911   */\n      0x4f6e6c7920746865206f776e65722063616e2065786563757465207468697320\n        /* \"#utility.yul\":3873:3874   */\n      0x00\n        /* \"#utility.yul\":3865:3871   */\n      dup3\n        /* \"#utility.yul\":3861:3875   */\n      add\n        /* \"#utility.yul\":3854:3912   */\n      mstore\n        /* \"#utility.yul\":3946:3956   */\n      0x66756e6374696f6e000000000000000000000000000000000000000000000000\n        /* \"#utility.yul\":3941:3943   */\n      0x20\n        /* \"#utility.yul\":3933:3939   */\n      dup3\n        /* \"#utility.yul\":3929:3944   */\n      add\n        /* \"#utility.yul\":3922:3957   */\n      mstore\n        /* \"#utility.yul\":3737:3964   */\n      pop\n      jump\t// out\n        /* \"#utility.yul\":3970:4336   */\n    tag_81:\n        /* \"#utility.yul\":4112:4115   */\n      0x00\n        /* \"#utility.yul\":4133:4200   */\n      tag_142\n        /* \"#utility.yul\":4197:4199   */\n      0x28\n        /* \"#utility.yul\":4192:4195   */\n      dup4\n        /* \"#utility.yul\":4133:4200   */\n      tag_79\n      jump\t// in\n    tag_142:\n        /* \"#utility.yul\":4126:4200   */\n      swap2\n      pop\n        /* \"#utility.yul\":4209:4302   */\n      tag_143\n        /* \"#utility.yul\":4298:4301   */\n      dup3\n        /* \"#utility.yul\":4209:4302   */\n      tag_80\n      jump\t// in\n    tag_143:\n        /* \"#utility.yul\":4327:4329   */\n      0x40\n        /* \"#utility.yul\":4322:4325   */\n      dup3\n        /* \"#utility.yul\":4318:4330   */\n      add\n        /* \"#utility.yul\":4311:4330   */\n      swap1\n      pop\n        /* \"#utility.yul\":3970:4336   */\n      swap2\n      swap1\n      pop\n      jump\t// out\n        /* \"#utility.yul\":4342:4761   */\n    tag_26:\n        /* \"#utility.yul\":4508:4512   */\n      0x00\n        /* \"#utility.yul\":4546:4548   */\n      0x20\n        /* \"#utility.yul\":4535:4544   */\n      dup3\n        /* \"#utility.yul\":4531:4549   */\n      add\n        /* \"#utility.yul\":4523:4549   */\n      swap1\n      pop\n        /* \"#utility.yul\":4595:4604   */\n      dup2\n        /* \"#utility.yul\":4589:4593   */\n      dup2\n        /* \"#utility.yul\":4585:4605   */\n      sub\n        /* \"#utility.yul\":4581:4582   */\n      0x00\n        /* \"#utility.yul\":4570:4579   */\n      dup4\n        /* \"#utility.yul\":4566:4583   */\n      add\n        /* \"#utility.yul\":4559:4606   */\n      mstore\n        /* \"#utility.yul\":4623:4754   */\n      tag_145\n        /* \"#utility.yul\":4749:4753   */\n      dup2\n        /* \"#utility.yul\":4623:4754   */\n      tag_81\n      jump\t// in\n    tag_145:\n        /* \"#utility.yul\":4615:4754   */\n      swap1\n      pop\n        /* \"#utility.yul\":4342:4761   */\n      swap2\n      swap1\n      pop\n      jump\t// out\n        /* \"#utility.yul\":4767:4987   */\n    tag_82:\n        /* \"#utility.yul\":4907:4941   */\n      0x526563697069656e7420616464726573732063616e6e6f74206265207a65726f\n        /* \"#utility.yul\":4903:4904   */\n      0x00\n        /* \"#utility.yul\":4895:4901   */\n      dup3\n        /* \"#utility.yul\":4891:4905   */\n      add\n        /* \"#utility.yul\":4884:4942   */\n      mstore\n        /* \"#utility.yul\":4976:4979   */\n      0x2e00000000000000000000000000000000000000000000000000000000000000\n        /* \"#utility.yul\":4971:4973   */\n      0x20\n        /* \"#utility.yul\":4963:4969   */\n      dup3\n        /* \"#utility.yul\":4959:4974   */\n      add\n        /* \"#utility.yul\":4952:4980   */\n      mstore\n        /* \"#utility.yul\":4767:4987   */\n      pop\n      jump\t// out\n        /* \"#utility.yul\":4993:5359   */\n    tag_83:\n        /* \"#utility.yul\":5135:5138   */\n      0x00\n        /* \"#utility.yul\":5156:5223   */\n      tag_148\n        /* \"#utility.yul\":5220:5222   */\n      0x21\n        /* \"#utility.yul\":5215:5218   */\n      dup4\n        /* \"#utility.yul\":5156:5223   */\n      tag_79\n      jump\t// in\n    tag_148:\n        /* \"#utility.yul\":5149:5223   */\n      swap2\n      pop\n        /* \"#utility.yul\":5232:5325   */\n      tag_149\n        /* \"#utility.yul\":5321:5324   */\n      dup3\n        /* \"#utility.yul\":5232:5325   */\n      tag_82\n      jump\t// in\n    tag_149:\n        /* \"#utility.yul\":5350:5352   */\n      0x40\n        /* \"#utility.yul\":5345:5348   */\n      dup3\n        /* \"#utility.yul\":5341:5353   */\n      add\n        /* \"#utility.yul\":5334:5353   */\n      swap1\n      pop\n        /* \"#utility.yul\":4993:5359   */\n      swap2\n      swap1\n      pop\n      jump\t// out\n        /* \"#utility.yul\":5365:5784   */\n    tag_30:\n        /* \"#utility.yul\":5531:5535   */\n      0x00\n        /* \"#utility.yul\":5569:5571   */\n      0x20\n        /* \"#utility.yul\":5558:5567   */\n      dup3\n        /* \"#utility.yul\":5554:5572   */\n      add\n        /* \"#utility.yul\":5546:5572   */\n      swap1\n      pop\n        /* \"#utility.yul\":5618:5627   */\n      dup2\n        /* \"#utility.yul\":5612:5616   */\n      dup2\n        /* \"#utility.yul\":5608:5628   */\n      sub\n        /* \"#utility.yul\":5604:5605   */\n      0x00\n        /* \"#utility.yul\":5593:5602   */\n      dup4\n        /* \"#utility.yul\":5589:5606   */\n      add\n        /* \"#utility.yul\":5582:5629   */\n      mstore\n        /* \"#utility.yul\":5646:5777   */\n      tag_151\n        /* \"#utility.yul\":5772:5776   */\n      dup2\n        /* \"#utility.yul\":5646:5777   */\n      tag_83\n      jump\t// in\n    tag_151:\n        /* \"#utility.yul\":5638:5777   */\n      swap1\n      pop\n        /* \"#utility.yul\":5365:5784   */\n      swap2\n      swap1\n      pop\n      jump\t// out\n        /* \"#utility.yul\":5790:6039   */\n    tag_84:\n        /* \"#utility.yul\":5930:5964   */\n      0x446563696d616c20706172742073686f756c64206265206c657373207468616e\n        /* \"#utility.yul\":5926:5927   */\n      0x00\n        /* \"#utility.yul\":5918:5924   */\n      dup3\n        /* \"#utility.yul\":5914:5928   */\n      add\n        /* \"#utility.yul\":5907:5965   */\n      mstore\n        /* \"#utility.yul\":5999:6031   */\n      0x2031653620666f722073697820646563696d616c20707265636973696f6e0000\n        /* \"#utility.yul\":5994:5996   */\n      0x20\n        /* \"#utility.yul\":5986:5992   */\n      dup3\n        /* \"#utility.yul\":5982:5997   */\n      add\n        /* \"#utility.yul\":5975:6032   */\n      mstore\n        /* \"#utility.yul\":5790:6039   */\n      pop\n      jump\t// out\n        /* \"#utility.yul\":6045:6411   */\n    tag_85:\n        /* \"#utility.yul\":6187:6190   */\n      0x00\n        /* \"#utility.yul\":6208:6275   */\n      tag_154\n        /* \"#utility.yul\":6272:6274   */\n      0x3e\n        /* \"#utility.yul\":6267:6270   */\n      dup4\n        /* \"#utility.yul\":6208:6275   */\n      tag_79\n      jump\t// in\n    tag_154:\n        /* \"#utility.yul\":6201:6275   */\n      swap2\n      pop\n        /* \"#utility.yul\":6284:6377   */\n      tag_155\n        /* \"#utility.yul\":6373:6376   */\n      dup3\n        /* \"#utility.yul\":6284:6377   */\n      tag_84\n      jump\t// in\n    tag_155:\n        /* \"#utility.yul\":6402:6404   */\n      0x40\n        /* \"#utility.yul\":6397:6400   */\n      dup3\n        /* \"#utility.yul\":6393:6405   */\n      add\n        /* \"#utility.yul\":6386:6405   */\n      swap1\n      pop\n        /* \"#utility.yul\":6045:6411   */\n      swap2\n      swap1\n      pop\n      jump\t// out\n        /* \"#utility.yul\":6417:6836   */\n    tag_33:\n        /* \"#utility.yul\":6583:6587   */\n      0x00\n        /* \"#utility.yul\":6621:6623   */\n      0x20\n        /* \"#utility.yul\":6610:6619   */\n      dup3\n        /* \"#utility.yul\":6606:6624   */\n      add\n        /* \"#utility.yul\":6598:6624   */\n      swap1\n      pop\n        /* \"#utility.yul\":6670:6679   */\n      dup2\n        /* \"#utility.yul\":6664:6668   */\n      dup2\n        /* \"#utility.yul\":6660:6680   */\n      sub\n        /* \"#utility.yul\":6656:6657   */\n      0x00\n        /* \"#utility.yul\":6645:6654   */\n      dup4\n        /* \"#utility.yul\":6641:6658   */\n      add\n        /* \"#utility.yul\":6634:6681   */\n      mstore\n        /* \"#utility.yul\":6698:6829   */\n      tag_157\n        /* \"#utility.yul\":6824:6828   */\n      dup2\n        /* \"#utility.yul\":6698:6829   */\n      tag_85\n      jump\t// in\n    tag_157:\n        /* \"#utility.yul\":6690:6829   */\n      swap1\n      pop\n        /* \"#utility.yul\":6417:6836   */\n      swap2\n      swap1\n      pop\n      jump\t// out\n        /* \"#utility.yul\":6842:7022   */\n    tag_86:\n        /* \"#utility.yul\":6890:6967   */\n      0x4e487b7100000000000000000000000000000000000000000000000000000000\n        /* \"#utility.yul\":6887:6888   */\n      0x00\n        /* \"#utility.yul\":6880:6968   */\n      mstore\n        /* \"#utility.yul\":6987:6991   */\n      0x11\n        /* \"#utility.yul\":6984:6985   */\n      0x04\n        /* \"#utility.yul\":6977:6992   */\n      mstore\n        /* \"#utility.yul\":7011:7015   */\n      0x24\n        /* \"#utility.yul\":7008:7009   */\n      0x00\n        /* \"#utility.yul\":7001:7016   */\n      revert\n        /* \"#utility.yul\":7028:7438   */\n    tag_35:\n        /* \"#utility.yul\":7068:7075   */\n      0x00\n        /* \"#utility.yul\":7091:7111   */\n      tag_160\n        /* \"#utility.yul\":7109:7110   */\n      dup3\n        /* \"#utility.yul\":7091:7111   */\n      tag_70\n      jump\t// in\n    tag_160:\n        /* \"#utility.yul\":7086:7111   */\n      swap2\n      pop\n        /* \"#utility.yul\":7125:7145   */\n      tag_161\n        /* \"#utility.yul\":7143:7144   */\n      dup4\n        /* \"#utility.yul\":7125:7145   */\n      tag_70\n      jump\t// in\n    tag_161:\n        /* \"#utility.yul\":7120:7145   */\n      swap3\n      pop\n        /* \"#utility.yul\":7180:7181   */\n      dup3\n        /* \"#utility.yul\":7177:7178   */\n      dup3\n        /* \"#utility.yul\":7173:7182   */\n      mul\n        /* \"#utility.yul\":7202:7232   */\n      tag_162\n        /* \"#utility.yul\":7220:7231   */\n      dup2\n        /* \"#utility.yul\":7202:7232   */\n      tag_70\n      jump\t// in\n    tag_162:\n        /* \"#utility.yul\":7191:7232   */\n      swap2\n      pop\n        /* \"#utility.yul\":7381:7382   */\n      dup3\n        /* \"#utility.yul\":7372:7379   */\n      dup3\n        /* \"#utility.yul\":7368:7383   */\n      div\n        /* \"#utility.yul\":7365:7366   */\n      dup5\n        /* \"#utility.yul\":7362:7384   */\n      eq\n        /* \"#utility.yul\":7342:7343   */\n      dup4\n        /* \"#utility.yul\":7335:7344   */\n      iszero\n        /* \"#utility.yul\":7315:7398   */\n      or\n        /* \"#utility.yul\":7292:7431   */\n      tag_163\n      jumpi\n        /* \"#utility.yul\":7411:7429   */\n      tag_164\n      tag_86\n      jump\t// in\n    tag_164:\n        /* \"#utility.yul\":7292:7431   */\n    tag_163:\n        /* \"#utility.yul\":7076:7438   */\n      pop\n        /* \"#utility.yul\":7028:7438   */\n      swap3\n      swap2\n      pop\n      pop\n      jump\t// out\n        /* \"#utility.yul\":7444:7635   */\n    tag_37:\n        /* \"#utility.yul\":7484:7487   */\n      0x00\n        /* \"#utility.yul\":7503:7523   */\n      tag_166\n        /* \"#utility.yul\":7521:7522   */\n      dup3\n        /* \"#utility.yul\":7503:7523   */\n      tag_70\n      jump\t// in\n    tag_166:\n        /* \"#utility.yul\":7498:7523   */\n      swap2\n      pop\n        /* \"#utility.yul\":7537:7557   */\n      tag_167\n        /* \"#utility.yul\":7555:7556   */\n      dup4\n        /* \"#utility.yul\":7537:7557   */\n      tag_70\n      jump\t// in\n    tag_167:\n        /* \"#utility.yul\":7532:7557   */\n      swap3\n      pop\n        /* \"#utility.yul\":7580:7581   */\n      dup3\n        /* \"#utility.yul\":7577:7578   */\n      dup3\n        /* \"#utility.yul\":7573:7582   */\n      add\n        /* \"#utility.yul\":7566:7582   */\n      swap1\n      pop\n        /* \"#utility.yul\":7601:7604   */\n      dup1\n        /* \"#utility.yul\":7598:7599   */\n      dup3\n        /* \"#utility.yul\":7595:7605   */\n      gt\n        /* \"#utility.yul\":7592:7628   */\n      iszero\n      tag_168\n      jumpi\n        /* \"#utility.yul\":7608:7626   */\n      tag_169\n      tag_86\n      jump\t// in\n    tag_169:\n        /* \"#utility.yul\":7592:7628   */\n    tag_168:\n        /* \"#utility.yul\":7444:7635   */\n      swap3\n      swap2\n      pop\n      pop\n      jump\t// out\n        /* \"#utility.yul\":7641:7759   */\n    tag_87:\n        /* \"#utility.yul\":7728:7752   */\n      tag_171\n        /* \"#utility.yul\":7746:7751   */\n      dup2\n        /* \"#utility.yul\":7728:7752   */\n      tag_70\n      jump\t// in\n    tag_171:\n        /* \"#utility.yul\":7723:7726   */\n      dup3\n        /* \"#utility.yul\":7716:7753   */\n      mstore\n        /* \"#utility.yul\":7641:7759   */\n      pop\n      pop\n      jump\t// out\n        /* \"#utility.yul\":7765:8207   */\n    tag_39:\n        /* \"#utility.yul\":7914:7918   */\n      0x00\n        /* \"#utility.yul\":7952:7954   */\n      0x60\n        /* \"#utility.yul\":7941:7950   */\n      dup3\n        /* \"#utility.yul\":7937:7955   */\n      add\n        /* \"#utility.yul\":7929:7955   */\n      swap1\n      pop\n        /* \"#utility.yul\":7965:8036   */\n      tag_173\n        /* \"#utility.yul\":8033:8034   */\n      0x00\n        /* \"#utility.yul\":8022:8031   */\n      dup4\n        /* \"#utility.yul\":8018:8035   */\n      add\n        /* \"#utility.yul\":8009:8015   */\n      dup7\n        /* \"#utility.yul\":7965:8036   */\n      tag_73\n      jump\t// in\n    tag_173:\n        /* \"#utility.yul\":8046:8118   */\n      tag_174\n        /* \"#utility.yul\":8114:8116   */\n      0x20\n        /* \"#utility.yul\":8103:8112   */\n      dup4\n        /* \"#utility.yul\":8099:8117   */\n      add\n        /* \"#utility.yul\":8090:8096   */\n      dup6\n        /* \"#utility.yul\":8046:8118   */\n      tag_73\n      jump\t// in\n    tag_174:\n        /* \"#utility.yul\":8128:8200   */\n      tag_175\n        /* \"#utility.yul\":8196:8198   */\n      0x40\n        /* \"#utility.yul\":8185:8194   */\n      dup4\n        /* \"#utility.yul\":8181:8199   */\n      add\n        /* \"#utility.yul\":8172:8178   */\n      dup5\n        /* \"#utility.yul\":8128:8200   */\n      tag_87\n      jump\t// in\n    tag_175:\n        /* \"#utility.yul\":7765:8207   */\n      swap5\n      swap4\n      pop\n      pop\n      pop\n      pop\n      jump\t// out\n        /* \"#utility.yul\":8213:8303   */\n    tag_88:\n        /* \"#utility.yul\":8247:8254   */\n      0x00\n        /* \"#utility.yul\":8290:8295   */\n      dup2\n        /* \"#utility.yul\":8283:8296   */\n      iszero\n        /* \"#utility.yul\":8276:8297   */\n      iszero\n        /* \"#utility.yul\":8265:8297   */\n      swap1\n      pop\n        /* \"#utility.yul\":8213:8303   */\n      swap2\n      swap1\n      pop\n      jump\t// out\n        /* \"#utility.yul\":8309:8425   */\n    tag_89:\n        /* \"#utility.yul\":8379:8400   */\n      tag_178\n        /* \"#utility.yul\":8394:8399   */\n      dup2\n        /* \"#utility.yul\":8379:8400   */\n      tag_88\n      jump\t// in\n    tag_178:\n        /* \"#utility.yul\":8372:8377   */\n      dup2\n        /* \"#utility.yul\":8369:8401   */\n      eq\n        /* \"#utility.yul\":8359:8419   */\n      tag_179\n      jumpi\n        /* \"#utility.yul\":8415:8416   */\n      0x00\n        /* \"#utility.yul\":8412:8413   */\n      dup1\n        /* \"#utility.yul\":8405:8417   */\n      revert\n        /* \"#utility.yul\":8359:8419   */\n    tag_179:\n        /* \"#utility.yul\":8309:8425   */\n      pop\n      jump\t// out\n        /* \"#utility.yul\":8431:8568   */\n    tag_90:\n        /* \"#utility.yul\":8485:8490   */\n      0x00\n        /* \"#utility.yul\":8516:8522   */\n      dup2\n        /* \"#utility.yul\":8510:8523   */\n      mload\n        /* \"#utility.yul\":8501:8523   */\n      swap1\n      pop\n        /* \"#utility.yul\":8532:8562   */\n      tag_181\n        /* \"#utility.yul\":8556:8561   */\n      dup2\n        /* \"#utility.yul\":8532:8562   */\n      tag_89\n      jump\t// in\n    tag_181:\n        /* \"#utility.yul\":8431:8568   */\n      swap3\n      swap2\n      pop\n      pop\n      jump\t// out\n        /* \"#utility.yul\":8574:8919   */\n    tag_43:\n        /* \"#utility.yul\":8641:8647   */\n      0x00\n        /* \"#utility.yul\":8690:8692   */\n      0x20\n        /* \"#utility.yul\":8678:8687   */\n      dup3\n        /* \"#utility.yul\":8669:8676   */\n      dup5\n        /* \"#utility.yul\":8665:8688   */\n      sub\n        /* \"#utility.yul\":8661:8693   */\n      slt\n        /* \"#utility.yul\":8658:8777   */\n      iszero\n      tag_183\n      jumpi\n        /* \"#utility.yul\":8696:8775   */\n      tag_184\n      tag_64\n      jump\t// in\n    tag_184:\n        /* \"#utility.yul\":8658:8777   */\n    tag_183:\n        /* \"#utility.yul\":8816:8817   */\n      0x00\n        /* \"#utility.yul\":8841:8902   */\n      tag_185\n        /* \"#utility.yul\":8894:8901   */\n      dup5\n        /* \"#utility.yul\":8885:8891   */\n      dup3\n        /* \"#utility.yul\":8874:8883   */\n      dup6\n        /* \"#utility.yul\":8870:8892   */\n      add\n        /* \"#utility.yul\":8841:8902   */\n      tag_90\n      jump\t// in\n    tag_185:\n        /* \"#utility.yul\":8831:8902   */\n      swap2\n      pop\n        /* \"#utility.yul\":8787:8912   */\n      pop\n        /* \"#utility.yul\":8574:8919   */\n      swap3\n      swap2\n      pop\n      pop\n      jump\t// out\n        /* \"#utility.yul\":8925:9090   */\n    tag_91:\n        /* \"#utility.yul\":9065:9082   */\n      0x5472616e73666572206661696c65640000000000000000000000000000000000\n        /* \"#utility.yul\":9061:9062   */\n      0x00\n        /* \"#utility.yul\":9053:9059   */\n      dup3\n        /* \"#utility.yul\":9049:9063   */\n      add\n        /* \"#utility.yul\":9042:9083   */\n      mstore\n        /* \"#utility.yul\":8925:9090   */\n      pop\n      jump\t// out\n        /* \"#utility.yul\":9096:9462   */\n    tag_92:\n        /* \"#utility.yul\":9238:9241   */\n      0x00\n        /* \"#utility.yul\":9259:9326   */\n      tag_188\n        /* \"#utility.yul\":9323:9325   */\n      0x0f\n        /* \"#utility.yul\":9318:9321   */\n      dup4\n        /* \"#utility.yul\":9259:9326   */\n      tag_79\n      jump\t// in\n    tag_188:\n        /* \"#utility.yul\":9252:9326   */\n      swap2\n      pop\n        /* \"#utility.yul\":9335:9428   */\n      tag_189\n        /* \"#utility.yul\":9424:9427   */\n      dup3\n        /* \"#utility.yul\":9335:9428   */\n      tag_91\n      jump\t// in\n    tag_189:\n        /* \"#utility.yul\":9453:9455   */\n      0x20\n        /* \"#utility.yul\":9448:9451   */\n      dup3\n        /* \"#utility.yul\":9444:9456   */\n      add\n        /* \"#utility.yul\":9437:9456   */\n      swap1\n      pop\n        /* \"#utility.yul\":9096:9462   */\n      swap2\n      swap1\n      pop\n      jump\t// out\n        /* \"#utility.yul\":9468:9887   */\n    tag_46:\n        /* \"#utility.yul\":9634:9638   */\n      0x00\n        /* \"#utility.yul\":9672:9674   */\n      0x20\n        /* \"#utility.yul\":9661:9670   */\n      dup3\n        /* \"#utility.yul\":9657:9675   */\n      add\n        /* \"#utility.yul\":9649:9675   */\n      swap1\n      pop\n        /* \"#utility.yul\":9721:9730   */\n      dup2\n        /* \"#utility.yul\":9715:9719   */\n      dup2\n        /* \"#utility.yul\":9711:9731   */\n      sub\n        /* \"#utility.yul\":9707:9708   */\n      0x00\n        /* \"#utility.yul\":9696:9705   */\n      dup4\n        /* \"#utility.yul\":9692:9709   */\n      add\n        /* \"#utility.yul\":9685:9732   */\n      mstore\n        /* \"#utility.yul\":9749:9880   */\n      tag_191\n        /* \"#utility.yul\":9875:9879   */\n      dup2\n        /* \"#utility.yul\":9749:9880   */\n      tag_92\n      jump\t// in\n    tag_191:\n        /* \"#utility.yul\":9741:9880   */\n      swap1\n      pop\n        /* \"#utility.yul\":9468:9887   */\n      swap2\n      swap1\n      pop\n      jump\t// out\n        /* \"#utility.yul\":9893:10115   */\n    tag_48:\n        /* \"#utility.yul\":9986:9990   */\n      0x00\n        /* \"#utility.yul\":10024:10026   */\n      0x20\n        /* \"#utility.yul\":10013:10022   */\n      dup3\n        /* \"#utility.yul\":10009:10027   */\n      add\n        /* \"#utility.yul\":10001:10027   */\n      swap1\n      pop\n        /* \"#utility.yul\":10037:10108   */\n      tag_193\n        /* \"#utility.yul\":10105:10106   */\n      0x00\n        /* \"#utility.yul\":10094:10103   */\n      dup4\n        /* \"#utility.yul\":10090:10107   */\n      add\n        /* \"#utility.yul\":10081:10087   */\n      dup5\n        /* \"#utility.yul\":10037:10108   */\n      tag_87\n      jump\t// in\n    tag_193:\n        /* \"#utility.yul\":9893:10115   */\n      swap3\n      swap2\n      pop\n      pop\n      jump\t// out\n\n    auxdata: 0xa26469706673582212206475b1cb7abee7e781a7455607f83074ec4cdbde8f12c6cb39d9c8a1ffb8c35064736f6c63430008190033\n}\n",
				"bytecode": {
					"linkReferences": {},
					"object": "608060405234801561000f575f80fd5b50604051610e48380380610e4883398181016040528101906100319190610182565b5f73ffffffffffffffffffffffffffffffffffffffff168173ffffffffffffffffffffffffffffffffffffffff160361009f576040517f08c379a00000000000000000000000000000000000000000000000000000000081526004016100969061022d565b60405180910390fd5b335f806101000a81548173ffffffffffffffffffffffffffffffffffffffff021916908373ffffffffffffffffffffffffffffffffffffffff1602179055508060015f6101000a81548173ffffffffffffffffffffffffffffffffffffffff021916908373ffffffffffffffffffffffffffffffffffffffff1602179055505061024b565b5f80fd5b5f73ffffffffffffffffffffffffffffffffffffffff82169050919050565b5f61015182610128565b9050919050565b61016181610147565b811461016b575f80fd5b50565b5f8151905061017c81610158565b92915050565b5f6020828403121561019757610196610124565b5b5f6101a48482850161016e565b91505092915050565b5f82825260208201905092915050565b7f5553445420746f6b656e20616464726573732063616e6e6f74206265207a65725f8201527f6f2e000000000000000000000000000000000000000000000000000000000000602082015250565b5f6102176022836101ad565b9150610222826101bd565b604082019050919050565b5f6020820190508181035f8301526102448161020b565b9050919050565b610bf0806102585f395ff3fe608060405234801561000f575f80fd5b506004361061004a575f3560e01c80638ba122e41461004e5780638da5cb5b1461006a578063a98ad46c14610088578063fb932108146100a6575b5f80fd5b61006860048036038101906100639190610710565b6100c2565b005b6100726103a5565b60405161007f919061076f565b60405180910390f35b6100906103c8565b60405161009d91906107e3565b60405180910390f35b6100c060048036038101906100bb91906107fc565b6103ed565b005b5f8054906101000a900473ffffffffffffffffffffffffffffffffffffffff1673ffffffffffffffffffffffffffffffffffffffff163373ffffffffffffffffffffffffffffffffffffffff161461014f576040517f08c379a0000000000000000000000000000000000000000000000000000000008152600401610146906108ba565b60405180910390fd5b5f73ffffffffffffffffffffffffffffffffffffffff168373ffffffffffffffffffffffffffffffffffffffff16036101bd576040517f08c379a00000000000000000000000000000000000000000000000000000000081526004016101b490610948565b60405180910390fd5b620f42408110610202576040517f08c379a00000000000000000000000000000000000000000000000000000000081526004016101f9906109d6565b60405180910390fd5b5f81620f4240846102139190610a21565b61021d9190610a62565b905060015f9054906101000a900473ffffffffffffffffffffffffffffffffffffffff1673ffffffffffffffffffffffffffffffffffffffff166323b872dd5f8054906101000a900473ffffffffffffffffffffffffffffffffffffffff1686846040518463ffffffff1660e01b815260040161029c93929190610aa4565b6020604051808303815f875af11580156102b8573d5f803e3d5ffd5b505050506040513d601f19601f820116820180604052508101906102dc9190610b0e565b61031b576040517f08c379a000000000000000000000000000000000000000000000000000000000815260040161031290610b83565b60405180910390fd5b8373ffffffffffffffffffffffffffffffffffffffff165f8054906101000a900473ffffffffffffffffffffffffffffffffffffffff1673ffffffffffffffffffffffffffffffffffffffff167f022bd701e0d563742a0cf249c998c6c6a8db069e863592a0581053cdec2973ef836040516103979190610ba1565b60405180910390a350505050565b5f8054906101000a900473ffffffffffffffffffffffffffffffffffffffff1681565b60015f9054906101000a900473ffffffffffffffffffffffffffffffffffffffff1681565b5f8054906101000a900473ffffffffffffffffffffffffffffffffffffffff1673ffffffffffffffffffffffffffffffffffffffff163373ffffffffffffffffffffffffffffffffffffffff161461047a576040517f08c379a0000000000000000000000000000000000000000000000000000000008152600401610471906108ba565b60405180910390fd5b5f73ffffffffffffffffffffffffffffffffffffffff168273ffffffffffffffffffffffffffffffffffffffff16036104e8576040517f08c379a00000000000000000000000000000000000000000000000000000000081526004016104df90610948565b60405180910390fd5b5f620f4240826104f89190610a21565b905060015f9054906101000a900473ffffffffffffffffffffffffffffffffffffffff1673ffffffffffffffffffffffffffffffffffffffff166323b872dd5f8054906101000a900473ffffffffffffffffffffffffffffffffffffffff1685846040518463ffffffff1660e01b815260040161057793929190610aa4565b6020604051808303815f875af1158015610593573d5f803e3d5ffd5b505050506040513d601f19601f820116820180604052508101906105b79190610b0e565b6105f6576040517f08c379a00000000000000000000000000000000000000000000000000000000081526004016105ed90610b83565b60405180910390fd5b8273ffffffffffffffffffffffffffffffffffffffff165f8054906101000a900473ffffffffffffffffffffffffffffffffffffffff1673ffffffffffffffffffffffffffffffffffffffff167f022bd701e0d563742a0cf249c998c6c6a8db069e863592a0581053cdec2973ef836040516106729190610ba1565b60405180910390a3505050565b5f80fd5b5f73ffffffffffffffffffffffffffffffffffffffff82169050919050565b5f6106ac82610683565b9050919050565b6106bc816106a2565b81146106c6575f80fd5b50565b5f813590506106d7816106b3565b92915050565b5f819050919050565b6106ef816106dd565b81146106f9575f80fd5b50565b5f8135905061070a816106e6565b92915050565b5f805f606084860312156107275761072661067f565b5b5f610734868287016106c9565b9350506020610745868287016106fc565b9250506040610756868287016106fc565b9150509250925092565b610769816106a2565b82525050565b5f6020820190506107825f830184610760565b92915050565b5f819050919050565b5f6107ab6107a66107a184610683565b610788565b610683565b9050919050565b5f6107bc82610791565b9050919050565b5f6107cd826107b2565b9050919050565b6107dd816107c3565b82525050565b5f6020820190506107f65f8301846107d4565b92915050565b5f80604083850312156108125761081161067f565b5b5f61081f858286016106c9565b9250506020610830858286016106fc565b9150509250929050565b5f82825260208201905092915050565b7f4f6e6c7920746865206f776e65722063616e20657865637574652074686973205f8201527f66756e6374696f6e000000000000000000000000000000000000000000000000602082015250565b5f6108a460288361083a565b91506108af8261084a565b604082019050919050565b5f6020820190508181035f8301526108d181610898565b9050919050565b7f526563697069656e7420616464726573732063616e6e6f74206265207a65726f5f8201527f2e00000000000000000000000000000000000000000000000000000000000000602082015250565b5f61093260218361083a565b915061093d826108d8565b604082019050919050565b5f6020820190508181035f83015261095f81610926565b9050919050565b7f446563696d616c20706172742073686f756c64206265206c657373207468616e5f8201527f2031653620666f722073697820646563696d616c20707265636973696f6e0000602082015250565b5f6109c0603e8361083a565b91506109cb82610966565b604082019050919050565b5f6020820190508181035f8301526109ed816109b4565b9050919050565b7f4e487b71000000000000000000000000000000000000000000000000000000005f52601160045260245ffd5b5f610a2b826106dd565b9150610a36836106dd565b9250828202610a44816106dd565b91508282048414831517610a5b57610a5a6109f4565b5b5092915050565b5f610a6c826106dd565b9150610a77836106dd565b9250828201905080821115610a8f57610a8e6109f4565b5b92915050565b610a9e816106dd565b82525050565b5f606082019050610ab75f830186610760565b610ac46020830185610760565b610ad16040830184610a95565b949350505050565b5f8115159050919050565b610aed81610ad9565b8114610af7575f80fd5b50565b5f81519050610b0881610ae4565b92915050565b5f60208284031215610b2357610b2261067f565b5b5f610b3084828501610afa565b91505092915050565b7f5472616e73666572206661696c656400000000000000000000000000000000005f82015250565b5f610b6d600f8361083a565b9150610b7882610b39565b602082019050919050565b5f6020820190508181035f830152610b9a81610b61565b9050919050565b5f602082019050610bb45f830184610a95565b9291505056fea26469706673582212206475b1cb7abee7e781a7455607f83074ec4cdbde8f12c6cb39d9c8a1ffb8c35064736f6c63430008190033",
					"opcodes": "PUSH1 0x80 PUSH1 0x40 MSTORE CALLVALUE DUP1 ISZERO PUSH2 0xF JUMPI PUSH0 DUP1 REVERT JUMPDEST POP PUSH1 0x40 MLOAD PUSH2 0xE48 CODESIZE SUB DUP1 PUSH2 0xE48 DUP4 CODECOPY DUP2 DUP2 ADD PUSH1 0x40 MSTORE DUP2 ADD SWAP1 PUSH2 0x31 SWAP2 SWAP1 PUSH2 0x182 JUMP JUMPDEST PUSH0 PUSH20 0xFFFFFFFFFFFFFFFFFFFFFFFFFFFFFFFFFFFFFFFF AND DUP2 PUSH20 0xFFFFFFFFFFFFFFFFFFFFFFFFFFFFFFFFFFFFFFFF AND SUB PUSH2 0x9F JUMPI PUSH1 0x40 MLOAD PUSH32 0x8C379A000000000000000000000000000000000000000000000000000000000 DUP2 MSTORE PUSH1 0x4 ADD PUSH2 0x96 SWAP1 PUSH2 0x22D JUMP JUMPDEST PUSH1 0x40 MLOAD DUP1 SWAP2 SUB SWAP1 REVERT JUMPDEST CALLER PUSH0 DUP1 PUSH2 0x100 EXP DUP2 SLOAD DUP2 PUSH20 0xFFFFFFFFFFFFFFFFFFFFFFFFFFFFFFFFFFFFFFFF MUL NOT AND SWAP1 DUP4 PUSH20 0xFFFFFFFFFFFFFFFFFFFFFFFFFFFFFFFFFFFFFFFF AND MUL OR SWAP1 SSTORE POP DUP1 PUSH1 0x1 PUSH0 PUSH2 0x100 EXP DUP2 SLOAD DUP2 PUSH20 0xFFFFFFFFFFFFFFFFFFFFFFFFFFFFFFFFFFFFFFFF MUL NOT AND SWAP1 DUP4 PUSH20 0xFFFFFFFFFFFFFFFFFFFFFFFFFFFFFFFFFFFFFFFF AND MUL OR SWAP1 SSTORE POP POP PUSH2 0x24B JUMP JUMPDEST PUSH0 DUP1 REVERT JUMPDEST PUSH0 PUSH20 0xFFFFFFFFFFFFFFFFFFFFFFFFFFFFFFFFFFFFFFFF DUP3 AND SWAP1 POP SWAP2 SWAP1 POP JUMP JUMPDEST PUSH0 PUSH2 0x151 DUP3 PUSH2 0x128 JUMP JUMPDEST SWAP1 POP SWAP2 SWAP1 POP JUMP JUMPDEST PUSH2 0x161 DUP2 PUSH2 0x147 JUMP JUMPDEST DUP2 EQ PUSH2 0x16B JUMPI PUSH0 DUP1 REVERT JUMPDEST POP JUMP JUMPDEST PUSH0 DUP2 MLOAD SWAP1 POP PUSH2 0x17C DUP2 PUSH2 0x158 JUMP JUMPDEST SWAP3 SWAP2 POP POP JUMP JUMPDEST PUSH0 PUSH1 0x20 DUP3 DUP5 SUB SLT ISZERO PUSH2 0x197 JUMPI PUSH2 0x196 PUSH2 0x124 JUMP JUMPDEST JUMPDEST PUSH0 PUSH2 0x1A4 DUP5 DUP3 DUP6 ADD PUSH2 0x16E JUMP JUMPDEST SWAP2 POP POP SWAP3 SWAP2 POP POP JUMP JUMPDEST PUSH0 DUP3 DUP3 MSTORE PUSH1 0x20 DUP3 ADD SWAP1 POP SWAP3 SWAP2 POP POP JUMP JUMPDEST PUSH32 0x5553445420746F6B656E20616464726573732063616E6E6F74206265207A6572 PUSH0 DUP3 ADD MSTORE PUSH32 0x6F2E000000000000000000000000000000000000000000000000000000000000 PUSH1 0x20 DUP3 ADD MSTORE POP JUMP JUMPDEST PUSH0 PUSH2 0x217 PUSH1 0x22 DUP4 PUSH2 0x1AD JUMP JUMPDEST SWAP2 POP PUSH2 0x222 DUP3 PUSH2 0x1BD JUMP JUMPDEST PUSH1 0x40 DUP3 ADD SWAP1 POP SWAP2 SWAP1 POP JUMP JUMPDEST PUSH0 PUSH1 0x20 DUP3 ADD SWAP1 POP DUP2 DUP2 SUB PUSH0 DUP4 ADD MSTORE PUSH2 0x244 DUP2 PUSH2 0x20B JUMP JUMPDEST SWAP1 POP SWAP2 SWAP1 POP JUMP JUMPDEST PUSH2 0xBF0 DUP1 PUSH2 0x258 PUSH0 CODECOPY PUSH0 RETURN INVALID PUSH1 0x80 PUSH1 0x40 MSTORE CALLVALUE DUP1 ISZERO PUSH2 0xF JUMPI PUSH0 DUP1 REVERT JUMPDEST POP PUSH1 0x4 CALLDATASIZE LT PUSH2 0x4A JUMPI PUSH0 CALLDATALOAD PUSH1 0xE0 SHR DUP1 PUSH4 0x8BA122E4 EQ PUSH2 0x4E JUMPI DUP1 PUSH4 0x8DA5CB5B EQ PUSH2 0x6A JUMPI DUP1 PUSH4 0xA98AD46C EQ PUSH2 0x88 JUMPI DUP1 PUSH4 0xFB932108 EQ PUSH2 0xA6 JUMPI JUMPDEST PUSH0 DUP1 REVERT JUMPDEST PUSH2 0x68 PUSH1 0x4 DUP1 CALLDATASIZE SUB DUP2 ADD SWAP1 PUSH2 0x63 SWAP2 SWAP1 PUSH2 0x710 JUMP JUMPDEST PUSH2 0xC2 JUMP JUMPDEST STOP JUMPDEST PUSH2 0x72 PUSH2 0x3A5 JUMP JUMPDEST PUSH1 0x40 MLOAD PUSH2 0x7F SWAP2 SWAP1 PUSH2 0x76F JUMP JUMPDEST PUSH1 0x40 MLOAD DUP1 SWAP2 SUB SWAP1 RETURN JUMPDEST PUSH2 0x90 PUSH2 0x3C8 JUMP JUMPDEST PUSH1 0x40 MLOAD PUSH2 0x9D SWAP2 SWAP1 PUSH2 0x7E3 JUMP JUMPDEST PUSH1 0x40 MLOAD DUP1 SWAP2 SUB SWAP1 RETURN JUMPDEST PUSH2 0xC0 PUSH1 0x4 DUP1 CALLDATASIZE SUB DUP2 ADD SWAP1 PUSH2 0xBB SWAP2 SWAP1 PUSH2 0x7FC JUMP JUMPDEST PUSH2 0x3ED JUMP JUMPDEST STOP JUMPDEST PUSH0 DUP1 SLOAD SWAP1 PUSH2 0x100 EXP SWAP1 DIV PUSH20 0xFFFFFFFFFFFFFFFFFFFFFFFFFFFFFFFFFFFFFFFF AND PUSH20 0xFFFFFFFFFFFFFFFFFFFFFFFFFFFFFFFFFFFFFFFF AND CALLER PUSH20 0xFFFFFFFFFFFFFFFFFFFFFFFFFFFFFFFFFFFFFFFF AND EQ PUSH2 0x14F JUMPI PUSH1 0x40 MLOAD PUSH32 0x8C379A000000000000000000000000000000000000000000000000000000000 DUP2 MSTORE PUSH1 0x4 ADD PUSH2 0x146 SWAP1 PUSH2 0x8BA JUMP JUMPDEST PUSH1 0x40 MLOAD DUP1 SWAP2 SUB SWAP1 REVERT JUMPDEST PUSH0 PUSH20 0xFFFFFFFFFFFFFFFFFFFFFFFFFFFFFFFFFFFFFFFF AND DUP4 PUSH20 0xFFFFFFFFFFFFFFFFFFFFFFFFFFFFFFFFFFFFFFFF AND SUB PUSH2 0x1BD JUMPI PUSH1 0x40 MLOAD PUSH32 0x8C379A000000000000000000000000000000000000000000000000000000000 DUP2 MSTORE PUSH1 0x4 ADD PUSH2 0x1B4 SWAP1 PUSH2 0x948 JUMP JUMPDEST PUSH1 0x40 MLOAD DUP1 SWAP2 SUB SWAP1 REVERT JUMPDEST PUSH3 0xF4240 DUP2 LT PUSH2 0x202 JUMPI PUSH1 0x40 MLOAD PUSH32 0x8C379A000000000000000000000000000000000000000000000000000000000 DUP2 MSTORE PUSH1 0x4 ADD PUSH2 0x1F9 SWAP1 PUSH2 0x9D6 JUMP JUMPDEST PUSH1 0x40 MLOAD DUP1 SWAP2 SUB SWAP1 REVERT JUMPDEST PUSH0 DUP2 PUSH3 0xF4240 DUP5 PUSH2 0x213 SWAP2 SWAP1 PUSH2 0xA21 JUMP JUMPDEST PUSH2 0x21D SWAP2 SWAP1 PUSH2 0xA62 JUMP JUMPDEST SWAP1 POP PUSH1 0x1 PUSH0 SWAP1 SLOAD SWAP1 PUSH2 0x100 EXP SWAP1 DIV PUSH20 0xFFFFFFFFFFFFFFFFFFFFFFFFFFFFFFFFFFFFFFFF AND PUSH20 0xFFFFFFFFFFFFFFFFFFFFFFFFFFFFFFFFFFFFFFFF AND PUSH4 0x23B872DD PUSH0 DUP1 SLOAD SWAP1 PUSH2 0x100 EXP SWAP1 DIV PUSH20 0xFFFFFFFFFFFFFFFFFFFFFFFFFFFFFFFFFFFFFFFF AND DUP7 DUP5 PUSH1 0x40 MLOAD DUP5 PUSH4 0xFFFFFFFF AND PUSH1 0xE0 SHL DUP2 MSTORE PUSH1 0x4 ADD PUSH2 0x29C SWAP4 SWAP3 SWAP2 SWAP1 PUSH2 0xAA4 JUMP JUMPDEST PUSH1 0x20 PUSH1 0x40 MLOAD DUP1 DUP4 SUB DUP2 PUSH0 DUP8 GAS CALL ISZERO DUP1 ISZERO PUSH2 0x2B8 JUMPI RETURNDATASIZE PUSH0 DUP1 RETURNDATACOPY RETURNDATASIZE PUSH0 REVERT JUMPDEST POP POP POP POP PUSH1 0x40 MLOAD RETURNDATASIZE PUSH1 0x1F NOT PUSH1 0x1F DUP3 ADD AND DUP3 ADD DUP1 PUSH1 0x40 MSTORE POP DUP2 ADD SWAP1 PUSH2 0x2DC SWAP2 SWAP1 PUSH2 0xB0E JUMP JUMPDEST PUSH2 0x31B JUMPI PUSH1 0x40 MLOAD PUSH32 0x8C379A000000000000000000000000000000000000000000000000000000000 DUP2 MSTORE PUSH1 0x4 ADD PUSH2 0x312 SWAP1 PUSH2 0xB83 JUMP JUMPDEST PUSH1 0x40 MLOAD DUP1 SWAP2 SUB SWAP1 REVERT JUMPDEST DUP4 PUSH20 0xFFFFFFFFFFFFFFFFFFFFFFFFFFFFFFFFFFFFFFFF AND PUSH0 DUP1 SLOAD SWAP1 PUSH2 0x100 EXP SWAP1 DIV PUSH20 0xFFFFFFFFFFFFFFFFFFFFFFFFFFFFFFFFFFFFFFFF AND PUSH20 0xFFFFFFFFFFFFFFFFFFFFFFFFFFFFFFFFFFFFFFFF AND PUSH32 0x22BD701E0D563742A0CF249C998C6C6A8DB069E863592A0581053CDEC2973EF DUP4 PUSH1 0x40 MLOAD PUSH2 0x397 SWAP2 SWAP1 PUSH2 0xBA1 JUMP JUMPDEST PUSH1 0x40 MLOAD DUP1 SWAP2 SUB SWAP1 LOG3 POP POP POP POP JUMP JUMPDEST PUSH0 DUP1 SLOAD SWAP1 PUSH2 0x100 EXP SWAP1 DIV PUSH20 0xFFFFFFFFFFFFFFFFFFFFFFFFFFFFFFFFFFFFFFFF AND DUP2 JUMP JUMPDEST PUSH1 0x1 PUSH0 SWAP1 SLOAD SWAP1 PUSH2 0x100 EXP SWAP1 DIV PUSH20 0xFFFFFFFFFFFFFFFFFFFFFFFFFFFFFFFFFFFFFFFF AND DUP2 JUMP JUMPDEST PUSH0 DUP1 SLOAD SWAP1 PUSH2 0x100 EXP SWAP1 DIV PUSH20 0xFFFFFFFFFFFFFFFFFFFFFFFFFFFFFFFFFFFFFFFF AND PUSH20 0xFFFFFFFFFFFFFFFFFFFFFFFFFFFFFFFFFFFFFFFF AND CALLER PUSH20 0xFFFFFFFFFFFFFFFFFFFFFFFFFFFFFFFFFFFFFFFF AND EQ PUSH2 0x47A JUMPI PUSH1 0x40 MLOAD PUSH32 0x8C379A000000000000000000000000000000000000000000000000000000000 DUP2 MSTORE PUSH1 0x4 ADD PUSH2 0x471 SWAP1 PUSH2 0x8BA JUMP JUMPDEST PUSH1 0x40 MLOAD DUP1 SWAP2 SUB SWAP1 REVERT JUMPDEST PUSH0 PUSH20 0xFFFFFFFFFFFFFFFFFFFFFFFFFFFFFFFFFFFFFFFF AND DUP3 PUSH20 0xFFFFFFFFFFFFFFFFFFFFFFFFFFFFFFFFFFFFFFFF AND SUB PUSH2 0x4E8 JUMPI PUSH1 0x40 MLOAD PUSH32 0x8C379A000000000000000000000000000000000000000000000000000000000 DUP2 MSTORE PUSH1 0x4 ADD PUSH2 0x4DF SWAP1 PUSH2 0x948 JUMP JUMPDEST PUSH1 0x40 MLOAD DUP1 SWAP2 SUB SWAP1 REVERT JUMPDEST PUSH0 PUSH3 0xF4240 DUP3 PUSH2 0x4F8 SWAP2 SWAP1 PUSH2 0xA21 JUMP JUMPDEST SWAP1 POP PUSH1 0x1 PUSH0 SWAP1 SLOAD SWAP1 PUSH2 0x100 EXP SWAP1 DIV PUSH20 0xFFFFFFFFFFFFFFFFFFFFFFFFFFFFFFFFFFFFFFFF AND PUSH20 0xFFFFFFFFFFFFFFFFFFFFFFFFFFFFFFFFFFFFFFFF AND PUSH4 0x23B872DD PUSH0 DUP1 SLOAD SWAP1 PUSH2 0x100 EXP SWAP1 DIV PUSH20 0xFFFFFFFFFFFFFFFFFFFFFFFFFFFFFFFFFFFFFFFF AND DUP6 DUP5 PUSH1 0x40 MLOAD DUP5 PUSH4 0xFFFFFFFF AND PUSH1 0xE0 SHL DUP2 MSTORE PUSH1 0x4 ADD PUSH2 0x577 SWAP4 SWAP3 SWAP2 SWAP1 PUSH2 0xAA4 JUMP JUMPDEST PUSH1 0x20 PUSH1 0x40 MLOAD DUP1 DUP4 SUB DUP2 PUSH0 DUP8 GAS CALL ISZERO DUP1 ISZERO PUSH2 0x593 JUMPI RETURNDATASIZE PUSH0 DUP1 RETURNDATACOPY RETURNDATASIZE PUSH0 REVERT JUMPDEST POP POP POP POP PUSH1 0x40 MLOAD RETURNDATASIZE PUSH1 0x1F NOT PUSH1 0x1F DUP3 ADD AND DUP3 ADD DUP1 PUSH1 0x40 MSTORE POP DUP2 ADD SWAP1 PUSH2 0x5B7 SWAP2 SWAP1 PUSH2 0xB0E JUMP JUMPDEST PUSH2 0x5F6 JUMPI PUSH1 0x40 MLOAD PUSH32 0x8C379A000000000000000000000000000000000000000000000000000000000 DUP2 MSTORE PUSH1 0x4 ADD PUSH2 0x5ED SWAP1 PUSH2 0xB83 JUMP JUMPDEST PUSH1 0x40 MLOAD DUP1 SWAP2 SUB SWAP1 REVERT JUMPDEST DUP3 PUSH20 0xFFFFFFFFFFFFFFFFFFFFFFFFFFFFFFFFFFFFFFFF AND PUSH0 DUP1 SLOAD SWAP1 PUSH2 0x100 EXP SWAP1 DIV PUSH20 0xFFFFFFFFFFFFFFFFFFFFFFFFFFFFFFFFFFFFFFFF AND PUSH20 0xFFFFFFFFFFFFFFFFFFFFFFFFFFFFFFFFFFFFFFFF AND PUSH32 0x22BD701E0D563742A0CF249C998C6C6A8DB069E863592A0581053CDEC2973EF DUP4 PUSH1 0x40 MLOAD PUSH2 0x672 SWAP2 SWAP1 PUSH2 0xBA1 JUMP JUMPDEST PUSH1 0x40 MLOAD DUP1 SWAP2 SUB SWAP1 LOG3 POP POP POP JUMP JUMPDEST PUSH0 DUP1 REVERT JUMPDEST PUSH0 PUSH20 0xFFFFFFFFFFFFFFFFFFFFFFFFFFFFFFFFFFFFFFFF DUP3 AND SWAP1 POP SWAP2 SWAP1 POP JUMP JUMPDEST PUSH0 PUSH2 0x6AC DUP3 PUSH2 0x683 JUMP JUMPDEST SWAP1 POP SWAP2 SWAP1 POP JUMP JUMPDEST PUSH2 0x6BC DUP2 PUSH2 0x6A2 JUMP JUMPDEST DUP2 EQ PUSH2 0x6C6 JUMPI PUSH0 DUP1 REVERT JUMPDEST POP JUMP JUMPDEST PUSH0 DUP2 CALLDATALOAD SWAP1 POP PUSH2 0x6D7 DUP2 PUSH2 0x6B3 JUMP JUMPDEST SWAP3 SWAP2 POP POP JUMP JUMPDEST PUSH0 DUP2 SWAP1 POP SWAP2 SWAP1 POP JUMP JUMPDEST PUSH2 0x6EF DUP2 PUSH2 0x6DD JUMP JUMPDEST DUP2 EQ PUSH2 0x6F9 JUMPI PUSH0 DUP1 REVERT JUMPDEST POP JUMP JUMPDEST PUSH0 DUP2 CALLDATALOAD SWAP1 POP PUSH2 0x70A DUP2 PUSH2 0x6E6 JUMP JUMPDEST SWAP3 SWAP2 POP POP JUMP JUMPDEST PUSH0 DUP1 PUSH0 PUSH1 0x60 DUP5 DUP7 SUB SLT ISZERO PUSH2 0x727 JUMPI PUSH2 0x726 PUSH2 0x67F JUMP JUMPDEST JUMPDEST PUSH0 PUSH2 0x734 DUP7 DUP3 DUP8 ADD PUSH2 0x6C9 JUMP JUMPDEST SWAP4 POP POP PUSH1 0x20 PUSH2 0x745 DUP7 DUP3 DUP8 ADD PUSH2 0x6FC JUMP JUMPDEST SWAP3 POP POP PUSH1 0x40 PUSH2 0x756 DUP7 DUP3 DUP8 ADD PUSH2 0x6FC JUMP JUMPDEST SWAP2 POP POP SWAP3 POP SWAP3 POP SWAP3 JUMP JUMPDEST PUSH2 0x769 DUP2 PUSH2 0x6A2 JUMP JUMPDEST DUP3 MSTORE POP POP JUMP JUMPDEST PUSH0 PUSH1 0x20 DUP3 ADD SWAP1 POP PUSH2 0x782 PUSH0 DUP4 ADD DUP5 PUSH2 0x760 JUMP JUMPDEST SWAP3 SWAP2 POP POP JUMP JUMPDEST PUSH0 DUP2 SWAP1 POP SWAP2 SWAP1 POP JUMP JUMPDEST PUSH0 PUSH2 0x7AB PUSH2 0x7A6 PUSH2 0x7A1 DUP5 PUSH2 0x683 JUMP JUMPDEST PUSH2 0x788 JUMP JUMPDEST PUSH2 0x683 JUMP JUMPDEST SWAP1 POP SWAP2 SWAP1 POP JUMP JUMPDEST PUSH0 PUSH2 0x7BC DUP3 PUSH2 0x791 JUMP JUMPDEST SWAP1 POP SWAP2 SWAP1 POP JUMP JUMPDEST PUSH0 PUSH2 0x7CD DUP3 PUSH2 0x7B2 JUMP JUMPDEST SWAP1 POP SWAP2 SWAP1 POP JUMP JUMPDEST PUSH2 0x7DD DUP2 PUSH2 0x7C3 JUMP JUMPDEST DUP3 MSTORE POP POP JUMP JUMPDEST PUSH0 PUSH1 0x20 DUP3 ADD SWAP1 POP PUSH2 0x7F6 PUSH0 DUP4 ADD DUP5 PUSH2 0x7D4 JUMP JUMPDEST SWAP3 SWAP2 POP POP JUMP JUMPDEST PUSH0 DUP1 PUSH1 0x40 DUP4 DUP6 SUB SLT ISZERO PUSH2 0x812 JUMPI PUSH2 0x811 PUSH2 0x67F JUMP JUMPDEST JUMPDEST PUSH0 PUSH2 0x81F DUP6 DUP3 DUP7 ADD PUSH2 0x6C9 JUMP JUMPDEST SWAP3 POP POP PUSH1 0x20 PUSH2 0x830 DUP6 DUP3 DUP7 ADD PUSH2 0x6FC JUMP JUMPDEST SWAP2 POP POP SWAP3 POP SWAP3 SWAP1 POP JUMP JUMPDEST PUSH0 DUP3 DUP3 MSTORE PUSH1 0x20 DUP3 ADD SWAP1 POP SWAP3 SWAP2 POP POP JUMP JUMPDEST PUSH32 0x4F6E6C7920746865206F776E65722063616E2065786563757465207468697320 PUSH0 DUP3 ADD MSTORE PUSH32 0x66756E6374696F6E000000000000000000000000000000000000000000000000 PUSH1 0x20 DUP3 ADD MSTORE POP JUMP JUMPDEST PUSH0 PUSH2 0x8A4 PUSH1 0x28 DUP4 PUSH2 0x83A JUMP JUMPDEST SWAP2 POP PUSH2 0x8AF DUP3 PUSH2 0x84A JUMP JUMPDEST PUSH1 0x40 DUP3 ADD SWAP1 POP SWAP2 SWAP1 POP JUMP JUMPDEST PUSH0 PUSH1 0x20 DUP3 ADD SWAP1 POP DUP2 DUP2 SUB PUSH0 DUP4 ADD MSTORE PUSH2 0x8D1 DUP2 PUSH2 0x898 JUMP JUMPDEST SWAP1 POP SWAP2 SWAP1 POP JUMP JUMPDEST PUSH32 0x526563697069656E7420616464726573732063616E6E6F74206265207A65726F PUSH0 DUP3 ADD MSTORE PUSH32 0x2E00000000000000000000000000000000000000000000000000000000000000 PUSH1 0x20 DUP3 ADD MSTORE POP JUMP JUMPDEST PUSH0 PUSH2 0x932 PUSH1 0x21 DUP4 PUSH2 0x83A JUMP JUMPDEST SWAP2 POP PUSH2 0x93D DUP3 PUSH2 0x8D8 JUMP JUMPDEST PUSH1 0x40 DUP3 ADD SWAP1 POP SWAP2 SWAP1 POP JUMP JUMPDEST PUSH0 PUSH1 0x20 DUP3 ADD SWAP1 POP DUP2 DUP2 SUB PUSH0 DUP4 ADD MSTORE PUSH2 0x95F DUP2 PUSH2 0x926 JUMP JUMPDEST SWAP1 POP SWAP2 SWAP1 POP JUMP JUMPDEST PUSH32 0x446563696D616C20706172742073686F756C64206265206C657373207468616E PUSH0 DUP3 ADD MSTORE PUSH32 0x2031653620666F722073697820646563696D616C20707265636973696F6E0000 PUSH1 0x20 DUP3 ADD MSTORE POP JUMP JUMPDEST PUSH0 PUSH2 0x9C0 PUSH1 0x3E DUP4 PUSH2 0x83A JUMP JUMPDEST SWAP2 POP PUSH2 0x9CB DUP3 PUSH2 0x966 JUMP JUMPDEST PUSH1 0x40 DUP3 ADD SWAP1 POP SWAP2 SWAP1 POP JUMP JUMPDEST PUSH0 PUSH1 0x20 DUP3 ADD SWAP1 POP DUP2 DUP2 SUB PUSH0 DUP4 ADD MSTORE PUSH2 0x9ED DUP2 PUSH2 0x9B4 JUMP JUMPDEST SWAP1 POP SWAP2 SWAP1 POP JUMP JUMPDEST PUSH32 0x4E487B7100000000000000000000000000000000000000000000000000000000 PUSH0 MSTORE PUSH1 0x11 PUSH1 0x4 MSTORE PUSH1 0x24 PUSH0 REVERT JUMPDEST PUSH0 PUSH2 0xA2B DUP3 PUSH2 0x6DD JUMP JUMPDEST SWAP2 POP PUSH2 0xA36 DUP4 PUSH2 0x6DD JUMP JUMPDEST SWAP3 POP DUP3 DUP3 MUL PUSH2 0xA44 DUP2 PUSH2 0x6DD JUMP JUMPDEST SWAP2 POP DUP3 DUP3 DIV DUP5 EQ DUP4 ISZERO OR PUSH2 0xA5B JUMPI PUSH2 0xA5A PUSH2 0x9F4 JUMP JUMPDEST JUMPDEST POP SWAP3 SWAP2 POP POP JUMP JUMPDEST PUSH0 PUSH2 0xA6C DUP3 PUSH2 0x6DD JUMP JUMPDEST SWAP2 POP PUSH2 0xA77 DUP4 PUSH2 0x6DD JUMP JUMPDEST SWAP3 POP DUP3 DUP3 ADD SWAP1 POP DUP1 DUP3 GT ISZERO PUSH2 0xA8F JUMPI PUSH2 0xA8E PUSH2 0x9F4 JUMP JUMPDEST JUMPDEST SWAP3 SWAP2 POP POP JUMP JUMPDEST PUSH2 0xA9E DUP2 PUSH2 0x6DD JUMP JUMPDEST DUP3 MSTORE POP POP JUMP JUMPDEST PUSH0 PUSH1 0x60 DUP3 ADD SWAP1 POP PUSH2 0xAB7 PUSH0 DUP4 ADD DUP7 PUSH2 0x760 JUMP JUMPDEST PUSH2 0xAC4 PUSH1 0x20 DUP4 ADD DUP6 PUSH2 0x760 JUMP JUMPDEST PUSH2 0xAD1 PUSH1 0x40 DUP4 ADD DUP5 PUSH2 0xA95 JUMP JUMPDEST SWAP5 SWAP4 POP POP POP POP JUMP JUMPDEST PUSH0 DUP2 ISZERO ISZERO SWAP1 POP SWAP2 SWAP1 POP JUMP JUMPDEST PUSH2 0xAED DUP2 PUSH2 0xAD9 JUMP JUMPDEST DUP2 EQ PUSH2 0xAF7 JUMPI PUSH0 DUP1 REVERT JUMPDEST POP JUMP JUMPDEST PUSH0 DUP2 MLOAD SWAP1 POP PUSH2 0xB08 DUP2 PUSH2 0xAE4 JUMP JUMPDEST SWAP3 SWAP2 POP POP JUMP JUMPDEST PUSH0 PUSH1 0x20 DUP3 DUP5 SUB SLT ISZERO PUSH2 0xB23 JUMPI PUSH2 0xB22 PUSH2 0x67F JUMP JUMPDEST JUMPDEST PUSH0 PUSH2 0xB30 DUP5 DUP3 DUP6 ADD PUSH2 0xAFA JUMP JUMPDEST SWAP2 POP POP SWAP3 SWAP2 POP POP JUMP JUMPDEST PUSH32 0x5472616E73666572206661696C65640000000000000000000000000000000000 PUSH0 DUP3 ADD MSTORE POP JUMP JUMPDEST PUSH0 PUSH2 0xB6D PUSH1 0xF DUP4 PUSH2 0x83A JUMP JUMPDEST SWAP2 POP PUSH2 0xB78 DUP3 PUSH2 0xB39 JUMP JUMPDEST PUSH1 0x20 DUP3 ADD SWAP1 POP SWAP2 SWAP1 POP JUMP JUMPDEST PUSH0 PUSH1 0x20 DUP3 ADD SWAP1 POP DUP2 DUP2 SUB PUSH0 DUP4 ADD MSTORE PUSH2 0xB9A DUP2 PUSH2 0xB61 JUMP JUMPDEST SWAP1 POP SWAP2 SWAP1 POP JUMP JUMPDEST PUSH0 PUSH1 0x20 DUP3 ADD SWAP1 POP PUSH2 0xBB4 PUSH0 DUP4 ADD DUP5 PUSH2 0xA95 JUMP JUMPDEST SWAP3 SWAP2 POP POP JUMP INVALID LOG2 PUSH5 0x6970667358 0x22 SLT KECCAK256 PUSH5 0x75B1CB7ABE 0xE7 0xE7 DUP2 0xA7 GASLIMIT JUMP SMOD 0xF8 ADDRESS PUSH21 0xEC4CDBDE8F12C6CB39D9C8A1FFB8C35064736F6C63 NUMBER STOP ADDMOD NOT STOP CALLER "
				},
				"gasEstimates": {
					"creation": {
						"codeDepositCost": "611200",
						"executionCost": "infinite",
						"totalCost": "infinite"
					},
					"external": {
						"distribute(address,uint256)": "infinite",
						"distributeDecimal(address,uint256,uint256)": "infinite",
						"owner()": "2505",
						"usdtToken()": "infinite"
					}
				},
				"methodIdentifiers": {
					"distribute(address,uint256)": "fb932108",
					"distributeDecimal(address,uint256,uint256)": "8ba122e4",
					"owner()": "8da5cb5b",
					"usdtToken()": "a98ad46c"
				}
			},
			"storageLayout": {
				"storage": [
					{
						"astId": 22,
						"contract": "contracts/1_RadioDistUsdt.sol:USDTDistributor",
						"label": "owner",
						"offset": 0,
						"slot": "0",
						"type": "t_address"
					},
					{
						"astId": 25,
						"contract": "contracts/1_RadioDistUsdt.sol:USDTDistributor",
						"label": "usdtToken",
						"offset": 0,
						"slot": "1",
						"type": "t_contract(IERC20)20"
					}
				],
				"types": {
					"t_address": {
						"encoding": "inplace",
						"label": "address",
						"numberOfBytes": "20"
					},
					"t_contract(IERC20)20": {
						"encoding": "inplace",
						"label": "contract IERC20",
						"numberOfBytes": "20"
					}
				}
			},
			"userdoc": {
				"kind": "user",
				"methods": {},
				"version": 1
			}
		}
	}
}