{
	"contracts/1_RadioDist.sol": {
		"USDTDistributor": {
			"abi": [
				{
					"inputs": [
						{
							"internalType": "address",
							"name": "_usdtToken",
							"type": "address"
						},
						{
							"internalType": "uint256",
							"name": "_maxRecipients",
							"type": "uint256"
						}
					],
					"stateMutability": "nonpayable",
					"type": "constructor"
				},
				{
					"inputs": [
						{
							"internalType": "address[]",
							"name": "recipients",
							"type": "address[]"
						},
						{
							"internalType": "uint256[]",
							"name": "amounts",
							"type": "uint256[]"
						}
					],
					"name": "distribute",
					"outputs": [],
					"stateMutability": "nonpayable",
					"type": "function"
				},
				{
					"inputs": [],
					"name": "maxRecipients",
					"outputs": [
						{
							"internalType": "uint256",
							"name": "",
							"type": "uint256"
						}
					],
					"stateMutability": "view",
					"type": "function"
				},
				{
					"inputs": [],
					"name": "owner",
					"outputs": [
						{
							"internalType": "address",
							"name": "",
							"type": "address"
						}
					],
					"stateMutability": "view",
					"type": "function"
				},
				{
					"inputs": [
						{
							"internalType": "uint256",
							"name": "_maxRecipients",
							"type": "uint256"
						}
					],
					"name": "setMaxRecipients",
					"outputs": [],
					"stateMutability": "nonpayable",
					"type": "function"
				},
				{
					"inputs": [],
					"name": "usdtToken",
					"outputs": [
						{
							"internalType": "contract IERC20",
							"name": "",
							"type": "address"
						}
					],
					"stateMutability": "view",
					"type": "function"
				}
			],
			"devdoc": {
				"kind": "dev",
				"methods": {},
				"version": 1
			},
			"evm": {
				"assembly": "    /* \"contracts/1_RadioDist.sol\":263:1408  contract USDTDistributor {... */\n  mstore(0x40, 0x80)\n    /* \"contracts/1_RadioDist.sol\":389:596  constructor(address _usdtToken, uint256 _maxRecipients) {... */\n  callvalue\n  dup1\n  iszero\n  tag_1\n  jumpi\n  0x00\n  dup1\n  revert\ntag_1:\n  pop\n  mload(0x40)\n  sub(codesize, bytecodeSize)\n  dup1\n  bytecodeSize\n  dup4\n  codecopy\n  dup2\n  dup2\n  add\n  0x40\n  mstore\n  dup2\n  add\n  swap1\n  tag_2\n  swap2\n  swap1\n  tag_3\n  jump\t// in\ntag_2:\n    /* \"contracts/1_RadioDist.sol\":464:506  0x41b6d412e3051ED7b92b118265852c0F956a402b */\n  0x41b6d412e3051ed7b92b118265852c0f956a402b\n    /* \"contracts/1_RadioDist.sol\":456:461  owner */\n  0x00\n  dup1\n    /* \"contracts/1_RadioDist.sol\":456:506  owner = 0x41b6d412e3051ED7b92b118265852c0F956a402b */\n  0x0100\n  exp\n  dup2\n  sload\n  dup2\n  0xffffffffffffffffffffffffffffffffffffffff\n  mul\n  not\n  and\n  swap1\n  dup4\n  0xffffffffffffffffffffffffffffffffffffffff\n  and\n  mul\n  or\n  swap1\n  sstore\n  pop\n    /* \"contracts/1_RadioDist.sol\":536:546  _usdtToken */\n  dup2\n    /* \"contracts/1_RadioDist.sol\":517:526  usdtToken */\n  0x01\n  0x00\n    /* \"contracts/1_RadioDist.sol\":517:547  usdtToken = IERC20(_usdtToken) */\n  0x0100\n  exp\n  dup2\n  sload\n  dup2\n  0xffffffffffffffffffffffffffffffffffffffff\n  mul\n  not\n  and\n  swap1\n  dup4\n  0xffffffffffffffffffffffffffffffffffffffff\n  and\n  mul\n  or\n  swap1\n  sstore\n  pop\n    /* \"contracts/1_RadioDist.sol\":574:588  _maxRecipients */\n  dup1\n    /* \"contracts/1_RadioDist.sol\":558:571  maxRecipients */\n  0x02\n    /* \"contracts/1_RadioDist.sol\":558:588  maxRecipients = _maxRecipients */\n  dup2\n  swap1\n  sstore\n  pop\n    /* \"contracts/1_RadioDist.sol\":389:596  constructor(address _usdtToken, uint256 _maxRecipients) {... */\n  pop\n  pop\n    /* \"contracts/1_RadioDist.sol\":263:1408  contract USDTDistributor {... */\n  jump(tag_6)\n    /* \"#utility.yul\":88:205   */\ntag_8:\n    /* \"#utility.yul\":197:198   */\n  0x00\n    /* \"#utility.yul\":194:195   */\n  dup1\n    /* \"#utility.yul\":187:199   */\n  revert\n    /* \"#utility.yul\":334:460   */\ntag_10:\n    /* \"#utility.yul\":371:378   */\n  0x00\n    /* \"#utility.yul\":411:453   */\n  0xffffffffffffffffffffffffffffffffffffffff\n    /* \"#utility.yul\":404:409   */\n  dup3\n    /* \"#utility.yul\":400:454   */\n  and\n    /* \"#utility.yul\":389:454   */\n  swap1\n  pop\n    /* \"#utility.yul\":334:460   */\n  swap2\n  swap1\n  pop\n  jump\t// out\n    /* \"#utility.yul\":466:562   */\ntag_11:\n    /* \"#utility.yul\":503:510   */\n  0x00\n    /* \"#utility.yul\":532:556   */\n  tag_23\n    /* \"#utility.yul\":550:555   */\n  dup3\n    /* \"#utility.yul\":532:556   */\n  tag_10\n  jump\t// in\ntag_23:\n    /* \"#utility.yul\":521:556   */\n  swap1\n  pop\n    /* \"#utility.yul\":466:562   */\n  swap2\n  swap1\n  pop\n  jump\t// out\n    /* \"#utility.yul\":568:690   */\ntag_12:\n    /* \"#utility.yul\":641:665   */\n  tag_25\n    /* \"#utility.yul\":659:664   */\n  dup2\n    /* \"#utility.yul\":641:665   */\n  tag_11\n  jump\t// in\ntag_25:\n    /* \"#utility.yul\":634:639   */\n  dup2\n    /* \"#utility.yul\":631:666   */\n  eq\n    /* \"#utility.yul\":621:684   */\n  tag_26\n  jumpi\n    /* \"#utility.yul\":680:681   */\n  0x00\n    /* \"#utility.yul\":677:678   */\n  dup1\n    /* \"#utility.yul\":670:682   */\n  revert\n    /* \"#utility.yul\":621:684   */\ntag_26:\n    /* \"#utility.yul\":568:690   */\n  pop\n  jump\t// out\n    /* \"#utility.yul\":696:839   */\ntag_13:\n    /* \"#utility.yul\":753:758   */\n  0x00\n    /* \"#utility.yul\":784:790   */\n  dup2\n    /* \"#utility.yul\":778:791   */\n  mload\n    /* \"#utility.yul\":769:791   */\n  swap1\n  pop\n    /* \"#utility.yul\":800:833   */\n  tag_28\n    /* \"#utility.yul\":827:832   */\n  dup2\n    /* \"#utility.yul\":800:833   */\n  tag_12\n  jump\t// in\ntag_28:\n    /* \"#utility.yul\":696:839   */\n  swap3\n  swap2\n  pop\n  pop\n  jump\t// out\n    /* \"#utility.yul\":845:922   */\ntag_14:\n    /* \"#utility.yul\":882:889   */\n  0x00\n    /* \"#utility.yul\":911:916   */\n  dup2\n    /* \"#utility.yul\":900:916   */\n  swap1\n  pop\n    /* \"#utility.yul\":845:922   */\n  swap2\n  swap1\n  pop\n  jump\t// out\n    /* \"#utility.yul\":928:1050   */\ntag_15:\n    /* \"#utility.yul\":1001:1025   */\n  tag_31\n    /* \"#utility.yul\":1019:1024   */\n  dup2\n    /* \"#utility.yul\":1001:1025   */\n  tag_14\n  jump\t// in\ntag_31:\n    /* \"#utility.yul\":994:999   */\n  dup2\n    /* \"#utility.yul\":991:1026   */\n  eq\n    /* \"#utility.yul\":981:1044   */\n  tag_32\n  jumpi\n    /* \"#utility.yul\":1040:1041   */\n  0x00\n    /* \"#utility.yul\":1037:1038   */\n  dup1\n    /* \"#utility.yul\":1030:1042   */\n  revert\n    /* \"#utility.yul\":981:1044   */\ntag_32:\n    /* \"#utility.yul\":928:1050   */\n  pop\n  jump\t// out\n    /* \"#utility.yul\":1056:1199   */\ntag_16:\n    /* \"#utility.yul\":1113:1118   */\n  0x00\n    /* \"#utility.yul\":1144:1150   */\n  dup2\n    /* \"#utility.yul\":1138:1151   */\n  mload\n    /* \"#utility.yul\":1129:1151   */\n  swap1\n  pop\n    /* \"#utility.yul\":1160:1193   */\n  tag_34\n    /* \"#utility.yul\":1187:1192   */\n  dup2\n    /* \"#utility.yul\":1160:1193   */\n  tag_15\n  jump\t// in\ntag_34:\n    /* \"#utility.yul\":1056:1199   */\n  swap3\n  swap2\n  pop\n  pop\n  jump\t// out\n    /* \"#utility.yul\":1205:1712   */\ntag_3:\n    /* \"#utility.yul\":1284:1290   */\n  0x00\n    /* \"#utility.yul\":1292:1298   */\n  dup1\n    /* \"#utility.yul\":1341:1343   */\n  0x40\n    /* \"#utility.yul\":1329:1338   */\n  dup4\n    /* \"#utility.yul\":1320:1327   */\n  dup6\n    /* \"#utility.yul\":1316:1339   */\n  sub\n    /* \"#utility.yul\":1312:1344   */\n  slt\n    /* \"#utility.yul\":1309:1428   */\n  iszero\n  tag_36\n  jumpi\n    /* \"#utility.yul\":1347:1426   */\n  tag_37\n  tag_8\n  jump\t// in\ntag_37:\n    /* \"#utility.yul\":1309:1428   */\ntag_36:\n    /* \"#utility.yul\":1467:1468   */\n  0x00\n    /* \"#utility.yul\":1492:1556   */\n  tag_38\n    /* \"#utility.yul\":1548:1555   */\n  dup6\n    /* \"#utility.yul\":1539:1545   */\n  dup3\n    /* \"#utility.yul\":1528:1537   */\n  dup7\n    /* \"#utility.yul\":1524:1546   */\n  add\n    /* \"#utility.yul\":1492:1556   */\n  tag_13\n  jump\t// in\ntag_38:\n    /* \"#utility.yul\":1482:1556   */\n  swap3\n  pop\n    /* \"#utility.yul\":1438:1566   */\n  pop\n    /* \"#utility.yul\":1605:1607   */\n  0x20\n    /* \"#utility.yul\":1631:1695   */\n  tag_39\n    /* \"#utility.yul\":1687:1694   */\n  dup6\n    /* \"#utility.yul\":1678:1684   */\n  dup3\n    /* \"#utility.yul\":1667:1676   */\n  dup7\n    /* \"#utility.yul\":1663:1685   */\n  add\n    /* \"#utility.yul\":1631:1695   */\n  tag_16\n  jump\t// in\ntag_39:\n    /* \"#utility.yul\":1621:1695   */\n  swap2\n  pop\n    /* \"#utility.yul\":1576:1705   */\n  pop\n    /* \"#utility.yul\":1205:1712   */\n  swap3\n  pop\n  swap3\n  swap1\n  pop\n  jump\t// out\n    /* \"contracts/1_RadioDist.sol\":263:1408  contract USDTDistributor {... */\ntag_6:\n  dataSize(sub_0)\n  dup1\n  dataOffset(sub_0)\n  0x00\n  codecopy\n  0x00\n  return\nstop\n\nsub_0: assembly {\n        /* \"contracts/1_RadioDist.sol\":263:1408  contract USDTDistributor {... */\n      mstore(0x40, 0x80)\n      callvalue\n      dup1\n      iszero\n      tag_1\n      jumpi\n      0x00\n      dup1\n      revert\n    tag_1:\n      pop\n      jumpi(tag_2, lt(calldatasize, 0x04))\n      shr(0xe0, calldataload(0x00))\n      dup1\n      0x148ec9ab\n      eq\n      tag_3\n      jumpi\n      dup1\n      0x2929abe6\n      eq\n      tag_4\n      jumpi\n      dup1\n      0x88a13072\n      eq\n      tag_5\n      jumpi\n      dup1\n      0x8da5cb5b\n      eq\n      tag_6\n      jumpi\n      dup1\n      0xa98ad46c\n      eq\n      tag_7\n      jumpi\n    tag_2:\n      0x00\n      dup1\n      revert\n        /* \"contracts/1_RadioDist.sol\":1287:1405  function setMaxRecipients(uint256 _maxRecipients) external onlyOwner {... */\n    tag_3:\n      tag_8\n      0x04\n      dup1\n      calldatasize\n      sub\n      dup2\n      add\n      swap1\n      tag_9\n      swap2\n      swap1\n      tag_10\n      jump\t// in\n    tag_9:\n      tag_11\n      jump\t// in\n    tag_8:\n      stop\n        /* \"contracts/1_RadioDist.sol\":768:1279  function distribute(address[] calldata recipients, uint256[] calldata amounts) external onlyOwner {... */\n    tag_4:\n      tag_12\n      0x04\n      dup1\n      calldatasize\n      sub\n      dup2\n      add\n      swap1\n      tag_13\n      swap2\n      swap1\n      tag_14\n      jump\t// in\n    tag_13:\n      tag_15\n      jump\t// in\n    tag_12:\n      stop\n        /* \"contracts/1_RadioDist.sol\":352:380  uint256 public maxRecipients */\n    tag_5:\n      tag_16\n      tag_17\n      jump\t// in\n    tag_16:\n      mload(0x40)\n      tag_18\n      swap2\n      swap1\n      tag_19\n      jump\t// in\n    tag_18:\n      mload(0x40)\n      dup1\n      swap2\n      sub\n      swap1\n      return\n        /* \"contracts/1_RadioDist.sol\":295:315  address public owner */\n    tag_6:\n      tag_20\n      tag_21\n      jump\t// in\n    tag_20:\n      mload(0x40)\n      tag_22\n      swap2\n      swap1\n      tag_23\n      jump\t// in\n    tag_22:\n      mload(0x40)\n      dup1\n      swap2\n      sub\n      swap1\n      return\n        /* \"contracts/1_RadioDist.sol\":322:345  IERC20 public usdtToken */\n    tag_7:\n      tag_24\n      tag_25\n      jump\t// in\n    tag_24:\n      mload(0x40)\n      tag_26\n      swap2\n      swap1\n      tag_27\n      jump\t// in\n    tag_26:\n      mload(0x40)\n      dup1\n      swap2\n      sub\n      swap1\n      return\n        /* \"contracts/1_RadioDist.sol\":1287:1405  function setMaxRecipients(uint256 _maxRecipients) external onlyOwner {... */\n    tag_11:\n        /* \"contracts/1_RadioDist.sol\":690:695  owner */\n      0x00\n      dup1\n      sload\n      swap1\n      0x0100\n      exp\n      swap1\n      div\n      0xffffffffffffffffffffffffffffffffffffffff\n      and\n        /* \"contracts/1_RadioDist.sol\":644:695  0x41b6d412e3051ED7b92b118265852c0F956a402b == owner */\n      0xffffffffffffffffffffffffffffffffffffffff\n      and\n        /* \"contracts/1_RadioDist.sol\":644:686  0x41b6d412e3051ED7b92b118265852c0F956a402b */\n      0x41b6d412e3051ed7b92b118265852c0f956a402b\n        /* \"contracts/1_RadioDist.sol\":644:695  0x41b6d412e3051ED7b92b118265852c0F956a402b == owner */\n      0xffffffffffffffffffffffffffffffffffffffff\n      and\n      eq\n        /* \"contracts/1_RadioDist.sol\":636:740  require(0x41b6d412e3051ED7b92b118265852c0F956a402b == owner, \"Only the owner can execute this function\") */\n      tag_29\n      jumpi\n      mload(0x40)\n      0x08c379a000000000000000000000000000000000000000000000000000000000\n      dup2\n      mstore\n      0x04\n      add\n      tag_30\n      swap1\n      tag_31\n      jump\t// in\n    tag_30:\n      mload(0x40)\n      dup1\n      swap2\n      sub\n      swap1\n      revert\n    tag_29:\n        /* \"contracts/1_RadioDist.sol\":1383:1397  _maxRecipients */\n      dup1\n        /* \"contracts/1_RadioDist.sol\":1367:1380  maxRecipients */\n      0x02\n        /* \"contracts/1_RadioDist.sol\":1367:1397  maxRecipients = _maxRecipients */\n      dup2\n      swap1\n      sstore\n      pop\n        /* \"contracts/1_RadioDist.sol\":1287:1405  function setMaxRecipients(uint256 _maxRecipients) external onlyOwner {... */\n      pop\n      jump\t// out\n        /* \"contracts/1_RadioDist.sol\":768:1279  function distribute(address[] calldata recipients, uint256[] calldata amounts) external onlyOwner {... */\n    tag_15:\n        /* \"contracts/1_RadioDist.sol\":690:695  owner */\n      0x00\n      dup1\n      sload\n      swap1\n      0x0100\n      exp\n      swap1\n      div\n      0xffffffffffffffffffffffffffffffffffffffff\n      and\n        /* \"contracts/1_RadioDist.sol\":644:695  0x41b6d412e3051ED7b92b118265852c0F956a402b == owner */\n      0xffffffffffffffffffffffffffffffffffffffff\n      and\n        /* \"contracts/1_RadioDist.sol\":644:686  0x41b6d412e3051ED7b92b118265852c0F956a402b */\n      0x41b6d412e3051ed7b92b118265852c0f956a402b\n        /* \"contracts/1_RadioDist.sol\":644:695  0x41b6d412e3051ED7b92b118265852c0F956a402b == owner */\n      0xffffffffffffffffffffffffffffffffffffffff\n      and\n      eq\n        /* \"contracts/1_RadioDist.sol\":636:740  require(0x41b6d412e3051ED7b92b118265852c0F956a402b == owner, \"Only the owner can execute this function\") */\n      tag_34\n      jumpi\n      mload(0x40)\n      0x08c379a000000000000000000000000000000000000000000000000000000000\n      dup2\n      mstore\n      0x04\n      add\n      tag_35\n      swap1\n      tag_31\n      jump\t// in\n    tag_35:\n      mload(0x40)\n      dup1\n      swap2\n      sub\n      swap1\n      revert\n    tag_34:\n        /* \"contracts/1_RadioDist.sol\":906:913  amounts */\n      dup2\n      dup2\n        /* \"contracts/1_RadioDist.sol\":906:920  amounts.length */\n      swap1\n      pop\n        /* \"contracts/1_RadioDist.sol\":885:895  recipients */\n      dup5\n      dup5\n        /* \"contracts/1_RadioDist.sol\":885:902  recipients.length */\n      swap1\n      pop\n        /* \"contracts/1_RadioDist.sol\":885:920  recipients.length == amounts.length */\n      eq\n        /* \"contracts/1_RadioDist.sol\":877:969  require(recipients.length == amounts.length, \"Recipients and amounts array length mismatch\") */\n      tag_37\n      jumpi\n      mload(0x40)\n      0x08c379a000000000000000000000000000000000000000000000000000000000\n      dup2\n      mstore\n      0x04\n      add\n      tag_38\n      swap1\n      tag_39\n      jump\t// in\n    tag_38:\n      mload(0x40)\n      dup1\n      swap2\n      sub\n      swap1\n      revert\n    tag_37:\n        /* \"contracts/1_RadioDist.sol\":1009:1022  maxRecipients */\n      sload(0x02)\n        /* \"contracts/1_RadioDist.sol\":988:998  recipients */\n      dup5\n      dup5\n        /* \"contracts/1_RadioDist.sol\":988:1005  recipients.length */\n      swap1\n      pop\n        /* \"contracts/1_RadioDist.sol\":988:1022  recipients.length <= maxRecipients */\n      gt\n      iszero\n        /* \"contracts/1_RadioDist.sol\":980:1063  require(recipients.length <= maxRecipients, \"Exceeds maximum number of recipients\") */\n      tag_40\n      jumpi\n      mload(0x40)\n      0x08c379a000000000000000000000000000000000000000000000000000000000\n      dup2\n      mstore\n      0x04\n      add\n      tag_41\n      swap1\n      tag_42\n      jump\t// in\n    tag_41:\n      mload(0x40)\n      dup1\n      swap2\n      sub\n      swap1\n      revert\n    tag_40:\n        /* \"contracts/1_RadioDist.sol\":1081:1090  uint256 i */\n      0x00\n        /* \"contracts/1_RadioDist.sol\":1076:1272  for (uint256 i = 0; i < recipients.length; i++) {... */\n    tag_43:\n        /* \"contracts/1_RadioDist.sol\":1100:1110  recipients */\n      dup5\n      dup5\n        /* \"contracts/1_RadioDist.sol\":1100:1117  recipients.length */\n      swap1\n      pop\n        /* \"contracts/1_RadioDist.sol\":1096:1097  i */\n      dup2\n        /* \"contracts/1_RadioDist.sol\":1096:1117  i < recipients.length */\n      lt\n        /* \"contracts/1_RadioDist.sol\":1076:1272  for (uint256 i = 0; i < recipients.length; i++) {... */\n      iszero\n      tag_44\n      jumpi\n        /* \"contracts/1_RadioDist.sol\":1147:1156  usdtToken */\n      0x01\n      0x00\n      swap1\n      sload\n      swap1\n      0x0100\n      exp\n      swap1\n      div\n      0xffffffffffffffffffffffffffffffffffffffff\n      and\n        /* \"contracts/1_RadioDist.sol\":1147:1169  usdtToken.transferFrom */\n      0xffffffffffffffffffffffffffffffffffffffff\n      and\n      0x23b872dd\n        /* \"contracts/1_RadioDist.sol\":1170:1212  0x41b6d412e3051ED7b92b118265852c0F956a402b */\n      0x41b6d412e3051ed7b92b118265852c0f956a402b\n        /* \"contracts/1_RadioDist.sol\":1214:1224  recipients */\n      dup8\n      dup8\n        /* \"contracts/1_RadioDist.sol\":1225:1226  i */\n      dup6\n        /* \"contracts/1_RadioDist.sol\":1214:1227  recipients[i] */\n      dup2\n      dup2\n      lt\n      tag_46\n      jumpi\n      tag_47\n      tag_48\n      jump\t// in\n    tag_47:\n    tag_46:\n      swap1\n      pop\n      0x20\n      mul\n      add\n      0x20\n      dup2\n      add\n      swap1\n      tag_49\n      swap2\n      swap1\n      tag_50\n      jump\t// in\n    tag_49:\n        /* \"contracts/1_RadioDist.sol\":1229:1236  amounts */\n      dup7\n      dup7\n        /* \"contracts/1_RadioDist.sol\":1237:1238  i */\n      dup7\n        /* \"contracts/1_RadioDist.sol\":1229:1239  amounts[i] */\n      dup2\n      dup2\n      lt\n      tag_51\n      jumpi\n      tag_52\n      tag_48\n      jump\t// in\n    tag_52:\n    tag_51:\n      swap1\n      pop\n      0x20\n      mul\n      add\n      calldataload\n        /* \"contracts/1_RadioDist.sol\":1147:1240  usdtToken.transferFrom(0x41b6d412e3051ED7b92b118265852c0F956a402b, recipients[i], amounts[i]) */\n      mload(0x40)\n      dup5\n      0xffffffff\n      and\n      0xe0\n      shl\n      dup2\n      mstore\n      0x04\n      add\n      tag_53\n      swap4\n      swap3\n      swap2\n      swap1\n      tag_54\n      jump\t// in\n    tag_53:\n      0x20\n      mload(0x40)\n      dup1\n      dup4\n      sub\n      dup2\n      0x00\n      dup8\n      gas\n      call\n      iszero\n      dup1\n      iszero\n      tag_56\n      jumpi\n      returndatasize\n      0x00\n      dup1\n      returndatacopy\n      revert(0x00, returndatasize)\n    tag_56:\n      pop\n      pop\n      pop\n      pop\n      mload(0x40)\n      returndatasize\n      not(0x1f)\n      0x1f\n      dup3\n      add\n      and\n      dup3\n      add\n      dup1\n      0x40\n      mstore\n      pop\n      dup2\n      add\n      swap1\n      tag_57\n      swap2\n      swap1\n      tag_58\n      jump\t// in\n    tag_57:\n        /* \"contracts/1_RadioDist.sol\":1139:1260  require(usdtToken.transferFrom(0x41b6d412e3051ED7b92b118265852c0F956a402b, recipients[i], amounts[i]), \"Transfer failed\") */\n      tag_59\n      jumpi\n      mload(0x40)\n      0x08c379a000000000000000000000000000000000000000000000000000000000\n      dup2\n      mstore\n      0x04\n      add\n      tag_60\n      swap1\n      tag_61\n      jump\t// in\n    tag_60:\n      mload(0x40)\n      dup1\n      swap2\n      sub\n      swap1\n      revert\n    tag_59:\n        /* \"contracts/1_RadioDist.sol\":1119:1122  i++ */\n      dup1\n      dup1\n      0x01\n      add\n      swap2\n      pop\n      pop\n        /* \"contracts/1_RadioDist.sol\":1076:1272  for (uint256 i = 0; i < recipients.length; i++) {... */\n      jump(tag_43)\n    tag_44:\n      pop\n        /* \"contracts/1_RadioDist.sol\":768:1279  function distribute(address[] calldata recipients, uint256[] calldata amounts) external onlyOwner {... */\n      pop\n      pop\n      pop\n      pop\n      jump\t// out\n        /* \"contracts/1_RadioDist.sol\":352:380  uint256 public maxRecipients */\n    tag_17:\n      sload(0x02)\n      dup2\n      jump\t// out\n        /* \"contracts/1_RadioDist.sol\":295:315  address public owner */\n    tag_21:\n      0x00\n      dup1\n      sload\n      swap1\n      0x0100\n      exp\n      swap1\n      div\n      0xffffffffffffffffffffffffffffffffffffffff\n      and\n      dup2\n      jump\t// out\n        /* \"contracts/1_RadioDist.sol\":322:345  IERC20 public usdtToken */\n    tag_25:\n      0x01\n      0x00\n      swap1\n      sload\n      swap1\n      0x0100\n      exp\n      swap1\n      div\n      0xffffffffffffffffffffffffffffffffffffffff\n      and\n      dup2\n      jump\t// out\n        /* \"#utility.yul\":88:205   */\n    tag_63:\n        /* \"#utility.yul\":197:198   */\n      0x00\n        /* \"#utility.yul\":194:195   */\n      dup1\n        /* \"#utility.yul\":187:199   */\n      revert\n        /* \"#utility.yul\":211:328   */\n    tag_64:\n        /* \"#utility.yul\":320:321   */\n      0x00\n        /* \"#utility.yul\":317:318   */\n      dup1\n        /* \"#utility.yul\":310:322   */\n      revert\n        /* \"#utility.yul\":334:411   */\n    tag_65:\n        /* \"#utility.yul\":371:378   */\n      0x00\n        /* \"#utility.yul\":400:405   */\n      dup2\n        /* \"#utility.yul\":389:405   */\n      swap1\n      pop\n        /* \"#utility.yul\":334:411   */\n      swap2\n      swap1\n      pop\n      jump\t// out\n        /* \"#utility.yul\":417:539   */\n    tag_66:\n        /* \"#utility.yul\":490:514   */\n      tag_102\n        /* \"#utility.yul\":508:513   */\n      dup2\n        /* \"#utility.yul\":490:514   */\n      tag_65\n      jump\t// in\n    tag_102:\n        /* \"#utility.yul\":483:488   */\n      dup2\n        /* \"#utility.yul\":480:515   */\n      eq\n        /* \"#utility.yul\":470:533   */\n      tag_103\n      jumpi\n        /* \"#utility.yul\":529:530   */\n      0x00\n        /* \"#utility.yul\":526:527   */\n      dup1\n        /* \"#utility.yul\":519:531   */\n      revert\n        /* \"#utility.yul\":470:533   */\n    tag_103:\n        /* \"#utility.yul\":417:539   */\n      pop\n      jump\t// out\n        /* \"#utility.yul\":545:684   */\n    tag_67:\n        /* \"#utility.yul\":591:596   */\n      0x00\n        /* \"#utility.yul\":629:635   */\n      dup2\n        /* \"#utility.yul\":616:636   */\n      calldataload\n        /* \"#utility.yul\":607:636   */\n      swap1\n      pop\n        /* \"#utility.yul\":645:678   */\n      tag_105\n        /* \"#utility.yul\":672:677   */\n      dup2\n        /* \"#utility.yul\":645:678   */\n      tag_66\n      jump\t// in\n    tag_105:\n        /* \"#utility.yul\":545:684   */\n      swap3\n      swap2\n      pop\n      pop\n      jump\t// out\n        /* \"#utility.yul\":690:1019   */\n    tag_10:\n        /* \"#utility.yul\":749:755   */\n      0x00\n        /* \"#utility.yul\":798:800   */\n      0x20\n        /* \"#utility.yul\":786:795   */\n      dup3\n        /* \"#utility.yul\":777:784   */\n      dup5\n        /* \"#utility.yul\":773:796   */\n      sub\n        /* \"#utility.yul\":769:801   */\n      slt\n        /* \"#utility.yul\":766:885   */\n      iszero\n      tag_107\n      jumpi\n        /* \"#utility.yul\":804:883   */\n      tag_108\n      tag_63\n      jump\t// in\n    tag_108:\n        /* \"#utility.yul\":766:885   */\n    tag_107:\n        /* \"#utility.yul\":924:925   */\n      0x00\n        /* \"#utility.yul\":949:1002   */\n      tag_109\n        /* \"#utility.yul\":994:1001   */\n      dup5\n        /* \"#utility.yul\":985:991   */\n      dup3\n        /* \"#utility.yul\":974:983   */\n      dup6\n        /* \"#utility.yul\":970:992   */\n      add\n        /* \"#utility.yul\":949:1002   */\n      tag_67\n      jump\t// in\n    tag_109:\n        /* \"#utility.yul\":939:1002   */\n      swap2\n      pop\n        /* \"#utility.yul\":895:1012   */\n      pop\n        /* \"#utility.yul\":690:1019   */\n      swap3\n      swap2\n      pop\n      pop\n      jump\t// out\n        /* \"#utility.yul\":1025:1142   */\n    tag_68:\n        /* \"#utility.yul\":1134:1135   */\n      0x00\n        /* \"#utility.yul\":1131:1132   */\n      dup1\n        /* \"#utility.yul\":1124:1136   */\n      revert\n        /* \"#utility.yul\":1148:1265   */\n    tag_69:\n        /* \"#utility.yul\":1257:1258   */\n      0x00\n        /* \"#utility.yul\":1254:1255   */\n      dup1\n        /* \"#utility.yul\":1247:1259   */\n      revert\n        /* \"#utility.yul\":1271:1388   */\n    tag_70:\n        /* \"#utility.yul\":1380:1381   */\n      0x00\n        /* \"#utility.yul\":1377:1378   */\n      dup1\n        /* \"#utility.yul\":1370:1382   */\n      revert\n        /* \"#utility.yul\":1411:1979   */\n    tag_71:\n        /* \"#utility.yul\":1484:1492   */\n      0x00\n        /* \"#utility.yul\":1494:1500   */\n      dup1\n        /* \"#utility.yul\":1544:1547   */\n      dup4\n        /* \"#utility.yul\":1537:1541   */\n      0x1f\n        /* \"#utility.yul\":1529:1535   */\n      dup5\n        /* \"#utility.yul\":1525:1542   */\n      add\n        /* \"#utility.yul\":1521:1548   */\n      slt\n        /* \"#utility.yul\":1511:1633   */\n      tag_114\n      jumpi\n        /* \"#utility.yul\":1552:1631   */\n      tag_115\n      tag_68\n      jump\t// in\n    tag_115:\n        /* \"#utility.yul\":1511:1633   */\n    tag_114:\n        /* \"#utility.yul\":1665:1671   */\n      dup3\n        /* \"#utility.yul\":1652:1672   */\n      calldataload\n        /* \"#utility.yul\":1642:1672   */\n      swap1\n      pop\n        /* \"#utility.yul\":1695:1713   */\n      0xffffffffffffffff\n        /* \"#utility.yul\":1687:1693   */\n      dup2\n        /* \"#utility.yul\":1684:1714   */\n      gt\n        /* \"#utility.yul\":1681:1798   */\n      iszero\n      tag_116\n      jumpi\n        /* \"#utility.yul\":1717:1796   */\n      tag_117\n      tag_69\n      jump\t// in\n    tag_117:\n        /* \"#utility.yul\":1681:1798   */\n    tag_116:\n        /* \"#utility.yul\":1831:1835   */\n      0x20\n        /* \"#utility.yul\":1823:1829   */\n      dup4\n        /* \"#utility.yul\":1819:1836   */\n      add\n        /* \"#utility.yul\":1807:1836   */\n      swap2\n      pop\n        /* \"#utility.yul\":1885:1888   */\n      dup4\n        /* \"#utility.yul\":1877:1881   */\n      0x20\n        /* \"#utility.yul\":1869:1875   */\n      dup3\n        /* \"#utility.yul\":1865:1882   */\n      mul\n        /* \"#utility.yul\":1855:1863   */\n      dup4\n        /* \"#utility.yul\":1851:1883   */\n      add\n        /* \"#utility.yul\":1848:1889   */\n      gt\n        /* \"#utility.yul\":1845:1973   */\n      iszero\n      tag_118\n      jumpi\n        /* \"#utility.yul\":1892:1971   */\n      tag_119\n      tag_70\n      jump\t// in\n    tag_119:\n        /* \"#utility.yul\":1845:1973   */\n    tag_118:\n        /* \"#utility.yul\":1411:1979   */\n      swap3\n      pop\n      swap3\n      swap1\n      pop\n      jump\t// out\n        /* \"#utility.yul\":2002:2570   */\n    tag_72:\n        /* \"#utility.yul\":2075:2083   */\n      0x00\n        /* \"#utility.yul\":2085:2091   */\n      dup1\n        /* \"#utility.yul\":2135:2138   */\n      dup4\n        /* \"#utility.yul\":2128:2132   */\n      0x1f\n        /* \"#utility.yul\":2120:2126   */\n      dup5\n        /* \"#utility.yul\":2116:2133   */\n      add\n        /* \"#utility.yul\":2112:2139   */\n      slt\n        /* \"#utility.yul\":2102:2224   */\n      tag_121\n      jumpi\n        /* \"#utility.yul\":2143:2222   */\n      tag_122\n      tag_68\n      jump\t// in\n    tag_122:\n        /* \"#utility.yul\":2102:2224   */\n    tag_121:\n        /* \"#utility.yul\":2256:2262   */\n      dup3\n        /* \"#utility.yul\":2243:2263   */\n      calldataload\n        /* \"#utility.yul\":2233:2263   */\n      swap1\n      pop\n        /* \"#utility.yul\":2286:2304   */\n      0xffffffffffffffff\n        /* \"#utility.yul\":2278:2284   */\n      dup2\n        /* \"#utility.yul\":2275:2305   */\n      gt\n        /* \"#utility.yul\":2272:2389   */\n      iszero\n      tag_123\n      jumpi\n        /* \"#utility.yul\":2308:2387   */\n      tag_124\n      tag_69\n      jump\t// in\n    tag_124:\n        /* \"#utility.yul\":2272:2389   */\n    tag_123:\n        /* \"#utility.yul\":2422:2426   */\n      0x20\n        /* \"#utility.yul\":2414:2420   */\n      dup4\n        /* \"#utility.yul\":2410:2427   */\n      add\n        /* \"#utility.yul\":2398:2427   */\n      swap2\n      pop\n        /* \"#utility.yul\":2476:2479   */\n      dup4\n        /* \"#utility.yul\":2468:2472   */\n      0x20\n        /* \"#utility.yul\":2460:2466   */\n      dup3\n        /* \"#utility.yul\":2456:2473   */\n      mul\n        /* \"#utility.yul\":2446:2454   */\n      dup4\n        /* \"#utility.yul\":2442:2474   */\n      add\n        /* \"#utility.yul\":2439:2480   */\n      gt\n        /* \"#utility.yul\":2436:2564   */\n      iszero\n      tag_125\n      jumpi\n        /* \"#utility.yul\":2483:2562   */\n      tag_126\n      tag_70\n      jump\t// in\n    tag_126:\n        /* \"#utility.yul\":2436:2564   */\n    tag_125:\n        /* \"#utility.yul\":2002:2570   */\n      swap3\n      pop\n      swap3\n      swap1\n      pop\n      jump\t// out\n        /* \"#utility.yul\":2576:3510   */\n    tag_14:\n        /* \"#utility.yul\":2698:2704   */\n      0x00\n        /* \"#utility.yul\":2706:2712   */\n      dup1\n        /* \"#utility.yul\":2714:2720   */\n      0x00\n        /* \"#utility.yul\":2722:2728   */\n      dup1\n        /* \"#utility.yul\":2771:2773   */\n      0x40\n        /* \"#utility.yul\":2759:2768   */\n      dup6\n        /* \"#utility.yul\":2750:2757   */\n      dup8\n        /* \"#utility.yul\":2746:2769   */\n      sub\n        /* \"#utility.yul\":2742:2774   */\n      slt\n        /* \"#utility.yul\":2739:2858   */\n      iszero\n      tag_128\n      jumpi\n        /* \"#utility.yul\":2777:2856   */\n      tag_129\n      tag_63\n      jump\t// in\n    tag_129:\n        /* \"#utility.yul\":2739:2858   */\n    tag_128:\n        /* \"#utility.yul\":2925:2926   */\n      0x00\n        /* \"#utility.yul\":2914:2923   */\n      dup6\n        /* \"#utility.yul\":2910:2927   */\n      add\n        /* \"#utility.yul\":2897:2928   */\n      calldataload\n        /* \"#utility.yul\":2955:2973   */\n      0xffffffffffffffff\n        /* \"#utility.yul\":2947:2953   */\n      dup2\n        /* \"#utility.yul\":2944:2974   */\n      gt\n        /* \"#utility.yul\":2941:3058   */\n      iszero\n      tag_130\n      jumpi\n        /* \"#utility.yul\":2977:3056   */\n      tag_131\n      tag_64\n      jump\t// in\n    tag_131:\n        /* \"#utility.yul\":2941:3058   */\n    tag_130:\n        /* \"#utility.yul\":3090:3170   */\n      tag_132\n        /* \"#utility.yul\":3162:3169   */\n      dup8\n        /* \"#utility.yul\":3153:3159   */\n      dup3\n        /* \"#utility.yul\":3142:3151   */\n      dup9\n        /* \"#utility.yul\":3138:3160   */\n      add\n        /* \"#utility.yul\":3090:3170   */\n      tag_71\n      jump\t// in\n    tag_132:\n        /* \"#utility.yul\":3072:3170   */\n      swap5\n      pop\n      swap5\n      pop\n        /* \"#utility.yul\":2868:3180   */\n      pop\n        /* \"#utility.yul\":3247:3249   */\n      0x20\n        /* \"#utility.yul\":3236:3245   */\n      dup6\n        /* \"#utility.yul\":3232:3250   */\n      add\n        /* \"#utility.yul\":3219:3251   */\n      calldataload\n        /* \"#utility.yul\":3278:3296   */\n      0xffffffffffffffff\n        /* \"#utility.yul\":3270:3276   */\n      dup2\n        /* \"#utility.yul\":3267:3297   */\n      gt\n        /* \"#utility.yul\":3264:3381   */\n      iszero\n      tag_133\n      jumpi\n        /* \"#utility.yul\":3300:3379   */\n      tag_134\n      tag_64\n      jump\t// in\n    tag_134:\n        /* \"#utility.yul\":3264:3381   */\n    tag_133:\n        /* \"#utility.yul\":3413:3493   */\n      tag_135\n        /* \"#utility.yul\":3485:3492   */\n      dup8\n        /* \"#utility.yul\":3476:3482   */\n      dup3\n        /* \"#utility.yul\":3465:3474   */\n      dup9\n        /* \"#utility.yul\":3461:3483   */\n      add\n        /* \"#utility.yul\":3413:3493   */\n      tag_72\n      jump\t// in\n    tag_135:\n        /* \"#utility.yul\":3395:3493   */\n      swap3\n      pop\n      swap3\n      pop\n        /* \"#utility.yul\":3190:3503   */\n      pop\n        /* \"#utility.yul\":2576:3510   */\n      swap3\n      swap6\n      swap2\n      swap5\n      pop\n      swap3\n      pop\n      jump\t// out\n        /* \"#utility.yul\":3516:3634   */\n    tag_73:\n        /* \"#utility.yul\":3603:3627   */\n      tag_137\n        /* \"#utility.yul\":3621:3626   */\n      dup2\n        /* \"#utility.yul\":3603:3627   */\n      tag_65\n      jump\t// in\n    tag_137:\n        /* \"#utility.yul\":3598:3601   */\n      dup3\n        /* \"#utility.yul\":3591:3628   */\n      mstore\n        /* \"#utility.yul\":3516:3634   */\n      pop\n      pop\n      jump\t// out\n        /* \"#utility.yul\":3640:3862   */\n    tag_19:\n        /* \"#utility.yul\":3733:3737   */\n      0x00\n        /* \"#utility.yul\":3771:3773   */\n      0x20\n        /* \"#utility.yul\":3760:3769   */\n      dup3\n        /* \"#utility.yul\":3756:3774   */\n      add\n        /* \"#utility.yul\":3748:3774   */\n      swap1\n      pop\n        /* \"#utility.yul\":3784:3855   */\n      tag_139\n        /* \"#utility.yul\":3852:3853   */\n      0x00\n        /* \"#utility.yul\":3841:3850   */\n      dup4\n        /* \"#utility.yul\":3837:3854   */\n      add\n        /* \"#utility.yul\":3828:3834   */\n      dup5\n        /* \"#utility.yul\":3784:3855   */\n      tag_73\n      jump\t// in\n    tag_139:\n        /* \"#utility.yul\":3640:3862   */\n      swap3\n      swap2\n      pop\n      pop\n      jump\t// out\n        /* \"#utility.yul\":3868:3994   */\n    tag_74:\n        /* \"#utility.yul\":3905:3912   */\n      0x00\n        /* \"#utility.yul\":3945:3987   */\n      0xffffffffffffffffffffffffffffffffffffffff\n        /* \"#utility.yul\":3938:3943   */\n      dup3\n        /* \"#utility.yul\":3934:3988   */\n      and\n        /* \"#utility.yul\":3923:3988   */\n      swap1\n      pop\n        /* \"#utility.yul\":3868:3994   */\n      swap2\n      swap1\n      pop\n      jump\t// out\n        /* \"#utility.yul\":4000:4096   */\n    tag_75:\n        /* \"#utility.yul\":4037:4044   */\n      0x00\n        /* \"#utility.yul\":4066:4090   */\n      tag_142\n        /* \"#utility.yul\":4084:4089   */\n      dup3\n        /* \"#utility.yul\":4066:4090   */\n      tag_74\n      jump\t// in\n    tag_142:\n        /* \"#utility.yul\":4055:4090   */\n      swap1\n      pop\n        /* \"#utility.yul\":4000:4096   */\n      swap2\n      swap1\n      pop\n      jump\t// out\n        /* \"#utility.yul\":4102:4220   */\n    tag_76:\n        /* \"#utility.yul\":4189:4213   */\n      tag_144\n        /* \"#utility.yul\":4207:4212   */\n      dup2\n        /* \"#utility.yul\":4189:4213   */\n      tag_75\n      jump\t// in\n    tag_144:\n        /* \"#utility.yul\":4184:4187   */\n      dup3\n        /* \"#utility.yul\":4177:4214   */\n      mstore\n        /* \"#utility.yul\":4102:4220   */\n      pop\n      pop\n      jump\t// out\n        /* \"#utility.yul\":4226:4448   */\n    tag_23:\n        /* \"#utility.yul\":4319:4323   */\n      0x00\n        /* \"#utility.yul\":4357:4359   */\n      0x20\n        /* \"#utility.yul\":4346:4355   */\n      dup3\n        /* \"#utility.yul\":4342:4360   */\n      add\n        /* \"#utility.yul\":4334:4360   */\n      swap1\n      pop\n        /* \"#utility.yul\":4370:4441   */\n      tag_146\n        /* \"#utility.yul\":4438:4439   */\n      0x00\n        /* \"#utility.yul\":4427:4436   */\n      dup4\n        /* \"#utility.yul\":4423:4440   */\n      add\n        /* \"#utility.yul\":4414:4420   */\n      dup5\n        /* \"#utility.yul\":4370:4441   */\n      tag_76\n      jump\t// in\n    tag_146:\n        /* \"#utility.yul\":4226:4448   */\n      swap3\n      swap2\n      pop\n      pop\n      jump\t// out\n        /* \"#utility.yul\":4454:4514   */\n    tag_77:\n        /* \"#utility.yul\":4482:4485   */\n      0x00\n        /* \"#utility.yul\":4503:4508   */\n      dup2\n        /* \"#utility.yul\":4496:4508   */\n      swap1\n      pop\n        /* \"#utility.yul\":4454:4514   */\n      swap2\n      swap1\n      pop\n      jump\t// out\n        /* \"#utility.yul\":4520:4662   */\n    tag_78:\n        /* \"#utility.yul\":4570:4579   */\n      0x00\n        /* \"#utility.yul\":4603:4656   */\n      tag_149\n        /* \"#utility.yul\":4621:4655   */\n      tag_150\n        /* \"#utility.yul\":4630:4654   */\n      tag_151\n        /* \"#utility.yul\":4648:4653   */\n      dup5\n        /* \"#utility.yul\":4630:4654   */\n      tag_74\n      jump\t// in\n    tag_151:\n        /* \"#utility.yul\":4621:4655   */\n      tag_77\n      jump\t// in\n    tag_150:\n        /* \"#utility.yul\":4603:4656   */\n      tag_74\n      jump\t// in\n    tag_149:\n        /* \"#utility.yul\":4590:4656   */\n      swap1\n      pop\n        /* \"#utility.yul\":4520:4662   */\n      swap2\n      swap1\n      pop\n      jump\t// out\n        /* \"#utility.yul\":4668:4794   */\n    tag_79:\n        /* \"#utility.yul\":4718:4727   */\n      0x00\n        /* \"#utility.yul\":4751:4788   */\n      tag_153\n        /* \"#utility.yul\":4782:4787   */\n      dup3\n        /* \"#utility.yul\":4751:4788   */\n      tag_78\n      jump\t// in\n    tag_153:\n        /* \"#utility.yul\":4738:4788   */\n      swap1\n      pop\n        /* \"#utility.yul\":4668:4794   */\n      swap2\n      swap1\n      pop\n      jump\t// out\n        /* \"#utility.yul\":4800:4939   */\n    tag_80:\n        /* \"#utility.yul\":4863:4872   */\n      0x00\n        /* \"#utility.yul\":4896:4933   */\n      tag_155\n        /* \"#utility.yul\":4927:4932   */\n      dup3\n        /* \"#utility.yul\":4896:4933   */\n      tag_79\n      jump\t// in\n    tag_155:\n        /* \"#utility.yul\":4883:4933   */\n      swap1\n      pop\n        /* \"#utility.yul\":4800:4939   */\n      swap2\n      swap1\n      pop\n      jump\t// out\n        /* \"#utility.yul\":4945:5102   */\n    tag_81:\n        /* \"#utility.yul\":5045:5095   */\n      tag_157\n        /* \"#utility.yul\":5089:5094   */\n      dup2\n        /* \"#utility.yul\":5045:5095   */\n      tag_80\n      jump\t// in\n    tag_157:\n        /* \"#utility.yul\":5040:5043   */\n      dup3\n        /* \"#utility.yul\":5033:5096   */\n      mstore\n        /* \"#utility.yul\":4945:5102   */\n      pop\n      pop\n      jump\t// out\n        /* \"#utility.yul\":5108:5356   */\n    tag_27:\n        /* \"#utility.yul\":5214:5218   */\n      0x00\n        /* \"#utility.yul\":5252:5254   */\n      0x20\n        /* \"#utility.yul\":5241:5250   */\n      dup3\n        /* \"#utility.yul\":5237:5255   */\n      add\n        /* \"#utility.yul\":5229:5255   */\n      swap1\n      pop\n        /* \"#utility.yul\":5265:5349   */\n      tag_159\n        /* \"#utility.yul\":5346:5347   */\n      0x00\n        /* \"#utility.yul\":5335:5344   */\n      dup4\n        /* \"#utility.yul\":5331:5348   */\n      add\n        /* \"#utility.yul\":5322:5328   */\n      dup5\n        /* \"#utility.yul\":5265:5349   */\n      tag_81\n      jump\t// in\n    tag_159:\n        /* \"#utility.yul\":5108:5356   */\n      swap3\n      swap2\n      pop\n      pop\n      jump\t// out\n        /* \"#utility.yul\":5362:5531   */\n    tag_82:\n        /* \"#utility.yul\":5446:5457   */\n      0x00\n        /* \"#utility.yul\":5480:5486   */\n      dup3\n        /* \"#utility.yul\":5475:5478   */\n      dup3\n        /* \"#utility.yul\":5468:5487   */\n      mstore\n        /* \"#utility.yul\":5520:5524   */\n      0x20\n        /* \"#utility.yul\":5515:5518   */\n      dup3\n        /* \"#utility.yul\":5511:5525   */\n      add\n        /* \"#utility.yul\":5496:5525   */\n      swap1\n      pop\n        /* \"#utility.yul\":5362:5531   */\n      swap3\n      swap2\n      pop\n      pop\n      jump\t// out\n        /* \"#utility.yul\":5537:5764   */\n    tag_83:\n        /* \"#utility.yul\":5677:5711   */\n      0x4f6e6c7920746865206f776e65722063616e2065786563757465207468697320\n        /* \"#utility.yul\":5673:5674   */\n      0x00\n        /* \"#utility.yul\":5665:5671   */\n      dup3\n        /* \"#utility.yul\":5661:5675   */\n      add\n        /* \"#utility.yul\":5654:5712   */\n      mstore\n        /* \"#utility.yul\":5746:5756   */\n      0x66756e6374696f6e000000000000000000000000000000000000000000000000\n        /* \"#utility.yul\":5741:5743   */\n      0x20\n        /* \"#utility.yul\":5733:5739   */\n      dup3\n        /* \"#utility.yul\":5729:5744   */\n      add\n        /* \"#utility.yul\":5722:5757   */\n      mstore\n        /* \"#utility.yul\":5537:5764   */\n      pop\n      jump\t// out\n        /* \"#utility.yul\":5770:6136   */\n    tag_84:\n        /* \"#utility.yul\":5912:5915   */\n      0x00\n        /* \"#utility.yul\":5933:6000   */\n      tag_163\n        /* \"#utility.yul\":5997:5999   */\n      0x28\n        /* \"#utility.yul\":5992:5995   */\n      dup4\n        /* \"#utility.yul\":5933:6000   */\n      tag_82\n      jump\t// in\n    tag_163:\n        /* \"#utility.yul\":5926:6000   */\n      swap2\n      pop\n        /* \"#utility.yul\":6009:6102   */\n      tag_164\n        /* \"#utility.yul\":6098:6101   */\n      dup3\n        /* \"#utility.yul\":6009:6102   */\n      tag_83\n      jump\t// in\n    tag_164:\n        /* \"#utility.yul\":6127:6129   */\n      0x40\n        /* \"#utility.yul\":6122:6125   */\n      dup3\n        /* \"#utility.yul\":6118:6130   */\n      add\n        /* \"#utility.yul\":6111:6130   */\n      swap1\n      pop\n        /* \"#utility.yul\":5770:6136   */\n      swap2\n      swap1\n      pop\n      jump\t// out\n        /* \"#utility.yul\":6142:6561   */\n    tag_31:\n        /* \"#utility.yul\":6308:6312   */\n      0x00\n        /* \"#utility.yul\":6346:6348   */\n      0x20\n        /* \"#utility.yul\":6335:6344   */\n      dup3\n        /* \"#utility.yul\":6331:6349   */\n      add\n        /* \"#utility.yul\":6323:6349   */\n      swap1\n      pop\n        /* \"#utility.yul\":6395:6404   */\n      dup2\n        /* \"#utility.yul\":6389:6393   */\n      dup2\n        /* \"#utility.yul\":6385:6405   */\n      sub\n        /* \"#utility.yul\":6381:6382   */\n      0x00\n        /* \"#utility.yul\":6370:6379   */\n      dup4\n        /* \"#utility.yul\":6366:6383   */\n      add\n        /* \"#utility.yul\":6359:6406   */\n      mstore\n        /* \"#utility.yul\":6423:6554   */\n      tag_166\n        /* \"#utility.yul\":6549:6553   */\n      dup2\n        /* \"#utility.yul\":6423:6554   */\n      tag_84\n      jump\t// in\n    tag_166:\n        /* \"#utility.yul\":6415:6554   */\n      swap1\n      pop\n        /* \"#utility.yul\":6142:6561   */\n      swap2\n      swap1\n      pop\n      jump\t// out\n        /* \"#utility.yul\":6567:6798   */\n    tag_85:\n        /* \"#utility.yul\":6707:6741   */\n      0x526563697069656e747320616e6420616d6f756e7473206172726179206c656e\n        /* \"#utility.yul\":6703:6704   */\n      0x00\n        /* \"#utility.yul\":6695:6701   */\n      dup3\n        /* \"#utility.yul\":6691:6705   */\n      add\n        /* \"#utility.yul\":6684:6742   */\n      mstore\n        /* \"#utility.yul\":6776:6790   */\n      0x677468206d69736d617463680000000000000000000000000000000000000000\n        /* \"#utility.yul\":6771:6773   */\n      0x20\n        /* \"#utility.yul\":6763:6769   */\n      dup3\n        /* \"#utility.yul\":6759:6774   */\n      add\n        /* \"#utility.yul\":6752:6791   */\n      mstore\n        /* \"#utility.yul\":6567:6798   */\n      pop\n      jump\t// out\n        /* \"#utility.yul\":6804:7170   */\n    tag_86:\n        /* \"#utility.yul\":6946:6949   */\n      0x00\n        /* \"#utility.yul\":6967:7034   */\n      tag_169\n        /* \"#utility.yul\":7031:7033   */\n      0x2c\n        /* \"#utility.yul\":7026:7029   */\n      dup4\n        /* \"#utility.yul\":6967:7034   */\n      tag_82\n      jump\t// in\n    tag_169:\n        /* \"#utility.yul\":6960:7034   */\n      swap2\n      pop\n        /* \"#utility.yul\":7043:7136   */\n      tag_170\n        /* \"#utility.yul\":7132:7135   */\n      dup3\n        /* \"#utility.yul\":7043:7136   */\n      tag_85\n      jump\t// in\n    tag_170:\n        /* \"#utility.yul\":7161:7163   */\n      0x40\n        /* \"#utility.yul\":7156:7159   */\n      dup3\n        /* \"#utility.yul\":7152:7164   */\n      add\n        /* \"#utility.yul\":7145:7164   */\n      swap1\n      pop\n        /* \"#utility.yul\":6804:7170   */\n      swap2\n      swap1\n      pop\n      jump\t// out\n        /* \"#utility.yul\":7176:7595   */\n    tag_39:\n        /* \"#utility.yul\":7342:7346   */\n      0x00\n        /* \"#utility.yul\":7380:7382   */\n      0x20\n        /* \"#utility.yul\":7369:7378   */\n      dup3\n        /* \"#utility.yul\":7365:7383   */\n      add\n        /* \"#utility.yul\":7357:7383   */\n      swap1\n      pop\n        /* \"#utility.yul\":7429:7438   */\n      dup2\n        /* \"#utility.yul\":7423:7427   */\n      dup2\n        /* \"#utility.yul\":7419:7439   */\n      sub\n        /* \"#utility.yul\":7415:7416   */\n      0x00\n        /* \"#utility.yul\":7404:7413   */\n      dup4\n        /* \"#utility.yul\":7400:7417   */\n      add\n        /* \"#utility.yul\":7393:7440   */\n      mstore\n        /* \"#utility.yul\":7457:7588   */\n      tag_172\n        /* \"#utility.yul\":7583:7587   */\n      dup2\n        /* \"#utility.yul\":7457:7588   */\n      tag_86\n      jump\t// in\n    tag_172:\n        /* \"#utility.yul\":7449:7588   */\n      swap1\n      pop\n        /* \"#utility.yul\":7176:7595   */\n      swap2\n      swap1\n      pop\n      jump\t// out\n        /* \"#utility.yul\":7601:7824   */\n    tag_87:\n        /* \"#utility.yul\":7741:7775   */\n      0x45786365656473206d6178696d756d206e756d626572206f6620726563697069\n        /* \"#utility.yul\":7737:7738   */\n      0x00\n        /* \"#utility.yul\":7729:7735   */\n      dup3\n        /* \"#utility.yul\":7725:7739   */\n      add\n        /* \"#utility.yul\":7718:7776   */\n      mstore\n        /* \"#utility.yul\":7810:7816   */\n      0x656e747300000000000000000000000000000000000000000000000000000000\n        /* \"#utility.yul\":7805:7807   */\n      0x20\n        /* \"#utility.yul\":7797:7803   */\n      dup3\n        /* \"#utility.yul\":7793:7808   */\n      add\n        /* \"#utility.yul\":7786:7817   */\n      mstore\n        /* \"#utility.yul\":7601:7824   */\n      pop\n      jump\t// out\n        /* \"#utility.yul\":7830:8196   */\n    tag_88:\n        /* \"#utility.yul\":7972:7975   */\n      0x00\n        /* \"#utility.yul\":7993:8060   */\n      tag_175\n        /* \"#utility.yul\":8057:8059   */\n      0x24\n        /* \"#utility.yul\":8052:8055   */\n      dup4\n        /* \"#utility.yul\":7993:8060   */\n      tag_82\n      jump\t// in\n    tag_175:\n        /* \"#utility.yul\":7986:8060   */\n      swap2\n      pop\n        /* \"#utility.yul\":8069:8162   */\n      tag_176\n        /* \"#utility.yul\":8158:8161   */\n      dup3\n        /* \"#utility.yul\":8069:8162   */\n      tag_87\n      jump\t// in\n    tag_176:\n        /* \"#utility.yul\":8187:8189   */\n      0x40\n        /* \"#utility.yul\":8182:8185   */\n      dup3\n        /* \"#utility.yul\":8178:8190   */\n      add\n        /* \"#utility.yul\":8171:8190   */\n      swap1\n      pop\n        /* \"#utility.yul\":7830:8196   */\n      swap2\n      swap1\n      pop\n      jump\t// out\n        /* \"#utility.yul\":8202:8621   */\n    tag_42:\n        /* \"#utility.yul\":8368:8372   */\n      0x00\n        /* \"#utility.yul\":8406:8408   */\n      0x20\n        /* \"#utility.yul\":8395:8404   */\n      dup3\n        /* \"#utility.yul\":8391:8409   */\n      add\n        /* \"#utility.yul\":8383:8409   */\n      swap1\n      pop\n        /* \"#utility.yul\":8455:8464   */\n      dup2\n        /* \"#utility.yul\":8449:8453   */\n      dup2\n        /* \"#utility.yul\":8445:8465   */\n      sub\n        /* \"#utility.yul\":8441:8442   */\n      0x00\n        /* \"#utility.yul\":8430:8439   */\n      dup4\n        /* \"#utility.yul\":8426:8443   */\n      add\n        /* \"#utility.yul\":8419:8466   */\n      mstore\n        /* \"#utility.yul\":8483:8614   */\n      tag_178\n        /* \"#utility.yul\":8609:8613   */\n      dup2\n        /* \"#utility.yul\":8483:8614   */\n      tag_88\n      jump\t// in\n    tag_178:\n        /* \"#utility.yul\":8475:8614   */\n      swap1\n      pop\n        /* \"#utility.yul\":8202:8621   */\n      swap2\n      swap1\n      pop\n      jump\t// out\n        /* \"#utility.yul\":8627:8807   */\n    tag_48:\n        /* \"#utility.yul\":8675:8752   */\n      0x4e487b7100000000000000000000000000000000000000000000000000000000\n        /* \"#utility.yul\":8672:8673   */\n      0x00\n        /* \"#utility.yul\":8665:8753   */\n      mstore\n        /* \"#utility.yul\":8772:8776   */\n      0x32\n        /* \"#utility.yul\":8769:8770   */\n      0x04\n        /* \"#utility.yul\":8762:8777   */\n      mstore\n        /* \"#utility.yul\":8796:8800   */\n      0x24\n        /* \"#utility.yul\":8793:8794   */\n      0x00\n        /* \"#utility.yul\":8786:8801   */\n      revert\n        /* \"#utility.yul\":8813:8935   */\n    tag_89:\n        /* \"#utility.yul\":8886:8910   */\n      tag_181\n        /* \"#utility.yul\":8904:8909   */\n      dup2\n        /* \"#utility.yul\":8886:8910   */\n      tag_75\n      jump\t// in\n    tag_181:\n        /* \"#utility.yul\":8879:8884   */\n      dup2\n        /* \"#utility.yul\":8876:8911   */\n      eq\n        /* \"#utility.yul\":8866:8929   */\n      tag_182\n      jumpi\n        /* \"#utility.yul\":8925:8926   */\n      0x00\n        /* \"#utility.yul\":8922:8923   */\n      dup1\n        /* \"#utility.yul\":8915:8927   */\n      revert\n        /* \"#utility.yul\":8866:8929   */\n    tag_182:\n        /* \"#utility.yul\":8813:8935   */\n      pop\n      jump\t// out\n        /* \"#utility.yul\":8941:9080   */\n    tag_90:\n        /* \"#utility.yul\":8987:8992   */\n      0x00\n        /* \"#utility.yul\":9025:9031   */\n      dup2\n        /* \"#utility.yul\":9012:9032   */\n      calldataload\n        /* \"#utility.yul\":9003:9032   */\n      swap1\n      pop\n        /* \"#utility.yul\":9041:9074   */\n      tag_184\n        /* \"#utility.yul\":9068:9073   */\n      dup2\n        /* \"#utility.yul\":9041:9074   */\n      tag_89\n      jump\t// in\n    tag_184:\n        /* \"#utility.yul\":8941:9080   */\n      swap3\n      swap2\n      pop\n      pop\n      jump\t// out\n        /* \"#utility.yul\":9086:9415   */\n    tag_50:\n        /* \"#utility.yul\":9145:9151   */\n      0x00\n        /* \"#utility.yul\":9194:9196   */\n      0x20\n        /* \"#utility.yul\":9182:9191   */\n      dup3\n        /* \"#utility.yul\":9173:9180   */\n      dup5\n        /* \"#utility.yul\":9169:9192   */\n      sub\n        /* \"#utility.yul\":9165:9197   */\n      slt\n        /* \"#utility.yul\":9162:9281   */\n      iszero\n      tag_186\n      jumpi\n        /* \"#utility.yul\":9200:9279   */\n      tag_187\n      tag_63\n      jump\t// in\n    tag_187:\n        /* \"#utility.yul\":9162:9281   */\n    tag_186:\n        /* \"#utility.yul\":9320:9321   */\n      0x00\n        /* \"#utility.yul\":9345:9398   */\n      tag_188\n        /* \"#utility.yul\":9390:9397   */\n      dup5\n        /* \"#utility.yul\":9381:9387   */\n      dup3\n        /* \"#utility.yul\":9370:9379   */\n      dup6\n        /* \"#utility.yul\":9366:9388   */\n      add\n        /* \"#utility.yul\":9345:9398   */\n      tag_90\n      jump\t// in\n    tag_188:\n        /* \"#utility.yul\":9335:9398   */\n      swap2\n      pop\n        /* \"#utility.yul\":9291:9408   */\n      pop\n        /* \"#utility.yul\":9086:9415   */\n      swap3\n      swap2\n      pop\n      pop\n      jump\t// out\n        /* \"#utility.yul\":9421:9863   */\n    tag_54:\n        /* \"#utility.yul\":9570:9574   */\n      0x00\n        /* \"#utility.yul\":9608:9610   */\n      0x60\n        /* \"#utility.yul\":9597:9606   */\n      dup3\n        /* \"#utility.yul\":9593:9611   */\n      add\n        /* \"#utility.yul\":9585:9611   */\n      swap1\n      pop\n        /* \"#utility.yul\":9621:9692   */\n      tag_190\n        /* \"#utility.yul\":9689:9690   */\n      0x00\n        /* \"#utility.yul\":9678:9687   */\n      dup4\n        /* \"#utility.yul\":9674:9691   */\n      add\n        /* \"#utility.yul\":9665:9671   */\n      dup7\n        /* \"#utility.yul\":9621:9692   */\n      tag_76\n      jump\t// in\n    tag_190:\n        /* \"#utility.yul\":9702:9774   */\n      tag_191\n        /* \"#utility.yul\":9770:9772   */\n      0x20\n        /* \"#utility.yul\":9759:9768   */\n      dup4\n        /* \"#utility.yul\":9755:9773   */\n      add\n        /* \"#utility.yul\":9746:9752   */\n      dup6\n        /* \"#utility.yul\":9702:9774   */\n      tag_76\n      jump\t// in\n    tag_191:\n        /* \"#utility.yul\":9784:9856   */\n      tag_192\n        /* \"#utility.yul\":9852:9854   */\n      0x40\n        /* \"#utility.yul\":9841:9850   */\n      dup4\n        /* \"#utility.yul\":9837:9855   */\n      add\n        /* \"#utility.yul\":9828:9834   */\n      dup5\n        /* \"#utility.yul\":9784:9856   */\n      tag_73\n      jump\t// in\n    tag_192:\n        /* \"#utility.yul\":9421:9863   */\n      swap5\n      swap4\n      pop\n      pop\n      pop\n      pop\n      jump\t// out\n        /* \"#utility.yul\":9869:9959   */\n    tag_91:\n        /* \"#utility.yul\":9903:9910   */\n      0x00\n        /* \"#utility.yul\":9946:9951   */\n      dup2\n        /* \"#utility.yul\":9939:9952   */\n      iszero\n        /* \"#utility.yul\":9932:9953   */\n      iszero\n        /* \"#utility.yul\":9921:9953   */\n      swap1\n      pop\n        /* \"#utility.yul\":9869:9959   */\n      swap2\n      swap1\n      pop\n      jump\t// out\n        /* \"#utility.yul\":9965:10081   */\n    tag_92:\n        /* \"#utility.yul\":10035:10056   */\n      tag_195\n        /* \"#utility.yul\":10050:10055   */\n      dup2\n        /* \"#utility.yul\":10035:10056   */\n      tag_91\n      jump\t// in\n    tag_195:\n        /* \"#utility.yul\":10028:10033   */\n      dup2\n        /* \"#utility.yul\":10025:10057   */\n      eq\n        /* \"#utility.yul\":10015:10075   */\n      tag_196\n      jumpi\n        /* \"#utility.yul\":10071:10072   */\n      0x00\n        /* \"#utility.yul\":10068:10069   */\n      dup1\n        /* \"#utility.yul\":10061:10073   */\n      revert\n        /* \"#utility.yul\":10015:10075   */\n    tag_196:\n        /* \"#utility.yul\":9965:10081   */\n      pop\n      jump\t// out\n        /* \"#utility.yul\":10087:10224   */\n    tag_93:\n        /* \"#utility.yul\":10141:10146   */\n      0x00\n        /* \"#utility.yul\":10172:10178   */\n      dup2\n        /* \"#utility.yul\":10166:10179   */\n      mload\n        /* \"#utility.yul\":10157:10179   */\n      swap1\n      pop\n        /* \"#utility.yul\":10188:10218   */\n      tag_198\n        /* \"#utility.yul\":10212:10217   */\n      dup2\n        /* \"#utility.yul\":10188:10218   */\n      tag_92\n      jump\t// in\n    tag_198:\n        /* \"#utility.yul\":10087:10224   */\n      swap3\n      swap2\n      pop\n      pop\n      jump\t// out\n        /* \"#utility.yul\":10230:10575   */\n    tag_58:\n        /* \"#utility.yul\":10297:10303   */\n      0x00\n        /* \"#utility.yul\":10346:10348   */\n      0x20\n        /* \"#utility.yul\":10334:10343   */\n      dup3\n        /* \"#utility.yul\":10325:10332   */\n      dup5\n        /* \"#utility.yul\":10321:10344   */\n      sub\n        /* \"#utility.yul\":10317:10349   */\n      slt\n        /* \"#utility.yul\":10314:10433   */\n      iszero\n      tag_200\n      jumpi\n        /* \"#utility.yul\":10352:10431   */\n      tag_201\n      tag_63\n      jump\t// in\n    tag_201:\n        /* \"#utility.yul\":10314:10433   */\n    tag_200:\n        /* \"#utility.yul\":10472:10473   */\n      0x00\n        /* \"#utility.yul\":10497:10558   */\n      tag_202\n        /* \"#utility.yul\":10550:10557   */\n      dup5\n        /* \"#utility.yul\":10541:10547   */\n      dup3\n        /* \"#utility.yul\":10530:10539   */\n      dup6\n        /* \"#utility.yul\":10526:10548   */\n      add\n        /* \"#utility.yul\":10497:10558   */\n      tag_93\n      jump\t// in\n    tag_202:\n        /* \"#utility.yul\":10487:10558   */\n      swap2\n      pop\n        /* \"#utility.yul\":10443:10568   */\n      pop\n        /* \"#utility.yul\":10230:10575   */\n      swap3\n      swap2\n      pop\n      pop\n      jump\t// out\n        /* \"#utility.yul\":10581:10746   */\n    tag_94:\n        /* \"#utility.yul\":10721:10738   */\n      0x5472616e73666572206661696c65640000000000000000000000000000000000\n        /* \"#utility.yul\":10717:10718   */\n      0x00\n        /* \"#utility.yul\":10709:10715   */\n      dup3\n        /* \"#utility.yul\":10705:10719   */\n      add\n        /* \"#utility.yul\":10698:10739   */\n      mstore\n        /* \"#utility.yul\":10581:10746   */\n      pop\n      jump\t// out\n        /* \"#utility.yul\":10752:11118   */\n    tag_95:\n        /* \"#utility.yul\":10894:10897   */\n      0x00\n        /* \"#utility.yul\":10915:10982   */\n      tag_205\n        /* \"#utility.yul\":10979:10981   */\n      0x0f\n        /* \"#utility.yul\":10974:10977   */\n      dup4\n        /* \"#utility.yul\":10915:10982   */\n      tag_82\n      jump\t// in\n    tag_205:\n        /* \"#utility.yul\":10908:10982   */\n      swap2\n      pop\n        /* \"#utility.yul\":10991:11084   */\n      tag_206\n        /* \"#utility.yul\":11080:11083   */\n      dup3\n        /* \"#utility.yul\":10991:11084   */\n      tag_94\n      jump\t// in\n    tag_206:\n        /* \"#utility.yul\":11109:11111   */\n      0x20\n        /* \"#utility.yul\":11104:11107   */\n      dup3\n        /* \"#utility.yul\":11100:11112   */\n      add\n        /* \"#utility.yul\":11093:11112   */\n      swap1\n      pop\n        /* \"#utility.yul\":10752:11118   */\n      swap2\n      swap1\n      pop\n      jump\t// out\n        /* \"#utility.yul\":11124:11543   */\n    tag_61:\n        /* \"#utility.yul\":11290:11294   */\n      0x00\n        /* \"#utility.yul\":11328:11330   */\n      0x20\n        /* \"#utility.yul\":11317:11326   */\n      dup3\n        /* \"#utility.yul\":11313:11331   */\n      add\n        /* \"#utility.yul\":11305:11331   */\n      swap1\n      pop\n        /* \"#utility.yul\":11377:11386   */\n      dup2\n        /* \"#utility.yul\":11371:11375   */\n      dup2\n        /* \"#utility.yul\":11367:11387   */\n      sub\n        /* \"#utility.yul\":11363:11364   */\n      0x00\n        /* \"#utility.yul\":11352:11361   */\n      dup4\n        /* \"#utility.yul\":11348:11365   */\n      add\n        /* \"#utility.yul\":11341:11388   */\n      mstore\n        /* \"#utility.yul\":11405:11536   */\n      tag_208\n        /* \"#utility.yul\":11531:11535   */\n      dup2\n        /* \"#utility.yul\":11405:11536   */\n      tag_95\n      jump\t// in\n    tag_208:\n        /* \"#utility.yul\":11397:11536   */\n      swap1\n      pop\n        /* \"#utility.yul\":11124:11543   */\n      swap2\n      swap1\n      pop\n      jump\t// out\n\n    auxdata: 0xa2646970667358221220194532b3554912d9e36a44d37c8b2e24ffb724d3ca361dee81c3ba53366c81a064736f6c63430008190033\n}\n",
				"bytecode": {
					"linkReferences": {},
					"object": "608060405234801561000f575f80fd5b50604051610c12380380610c1283398181016040528101906100319190610163565b7341b6d412e3051ed7b92b118265852c0f956a402b5f806101000a81548173ffffffffffffffffffffffffffffffffffffffff021916908373ffffffffffffffffffffffffffffffffffffffff1602179055508160015f6101000a81548173ffffffffffffffffffffffffffffffffffffffff021916908373ffffffffffffffffffffffffffffffffffffffff1602179055508060028190555050506101a1565b5f80fd5b5f73ffffffffffffffffffffffffffffffffffffffff82169050919050565b5f6100ff826100d6565b9050919050565b61010f816100f5565b8114610119575f80fd5b50565b5f8151905061012a81610106565b92915050565b5f819050919050565b61014281610130565b811461014c575f80fd5b50565b5f8151905061015d81610139565b92915050565b5f8060408385031215610179576101786100d2565b5b5f6101868582860161011c565b92505060206101978582860161014f565b9150509250929050565b610a64806101ae5f395ff3fe608060405234801561000f575f80fd5b5060043610610055575f3560e01c8063148ec9ab146100595780632929abe61461007557806388a13072146100915780638da5cb5b146100af578063a98ad46c146100cd575b5f80fd5b610073600480360381019061006e91906104a2565b6100eb565b005b61008f600480360381019061008a9190610583565b610196565b005b610099610419565b6040516100a69190610610565b60405180910390f35b6100b761041f565b6040516100c49190610668565b60405180910390f35b6100d5610442565b6040516100e291906106dc565b60405180910390f35b5f8054906101000a900473ffffffffffffffffffffffffffffffffffffffff1673ffffffffffffffffffffffffffffffffffffffff167341b6d412e3051ed7b92b118265852c0f956a402b73ffffffffffffffffffffffffffffffffffffffff161461018c576040517f08c379a000000000000000000000000000000000000000000000000000000000815260040161018390610775565b60405180910390fd5b8060028190555050565b5f8054906101000a900473ffffffffffffffffffffffffffffffffffffffff1673ffffffffffffffffffffffffffffffffffffffff167341b6d412e3051ed7b92b118265852c0f956a402b73ffffffffffffffffffffffffffffffffffffffff1614610237576040517f08c379a000000000000000000000000000000000000000000000000000000000815260040161022e90610775565b60405180910390fd5b81819050848490501461027f576040517f08c379a000000000000000000000000000000000000000000000000000000000815260040161027690610803565b60405180910390fd5b6002548484905011156102c7576040517f08c379a00000000000000000000000000000000000000000000000000000000081526004016102be90610891565b60405180910390fd5b5f5b848490508110156104125760015f9054906101000a900473ffffffffffffffffffffffffffffffffffffffff1673ffffffffffffffffffffffffffffffffffffffff166323b872dd7341b6d412e3051ed7b92b118265852c0f956a402b878785818110610339576103386108af565b5b905060200201602081019061034e9190610906565b868686818110610361576103606108af565b5b905060200201356040518463ffffffff1660e01b815260040161038693929190610931565b6020604051808303815f875af11580156103a2573d5f803e3d5ffd5b505050506040513d601f19601f820116820180604052508101906103c6919061099b565b610405576040517f08c379a00000000000000000000000000000000000000000000000000000000081526004016103fc90610a10565b60405180910390fd5b80806001019150506102c9565b5050505050565b60025481565b5f8054906101000a900473ffffffffffffffffffffffffffffffffffffffff1681565b60015f9054906101000a900473ffffffffffffffffffffffffffffffffffffffff1681565b5f80fd5b5f80fd5b5f819050919050565b6104818161046f565b811461048b575f80fd5b50565b5f8135905061049c81610478565b92915050565b5f602082840312156104b7576104b6610467565b5b5f6104c48482850161048e565b91505092915050565b5f80fd5b5f80fd5b5f80fd5b5f8083601f8401126104ee576104ed6104cd565b5b8235905067ffffffffffffffff81111561050b5761050a6104d1565b5b602083019150836020820283011115610527576105266104d5565b5b9250929050565b5f8083601f840112610543576105426104cd565b5b8235905067ffffffffffffffff8111156105605761055f6104d1565b5b60208301915083602082028301111561057c5761057b6104d5565b5b9250929050565b5f805f806040858703121561059b5761059a610467565b5b5f85013567ffffffffffffffff8111156105b8576105b761046b565b5b6105c4878288016104d9565b9450945050602085013567ffffffffffffffff8111156105e7576105e661046b565b5b6105f38782880161052e565b925092505092959194509250565b61060a8161046f565b82525050565b5f6020820190506106235f830184610601565b92915050565b5f73ffffffffffffffffffffffffffffffffffffffff82169050919050565b5f61065282610629565b9050919050565b61066281610648565b82525050565b5f60208201905061067b5f830184610659565b92915050565b5f819050919050565b5f6106a461069f61069a84610629565b610681565b610629565b9050919050565b5f6106b58261068a565b9050919050565b5f6106c6826106ab565b9050919050565b6106d6816106bc565b82525050565b5f6020820190506106ef5f8301846106cd565b92915050565b5f82825260208201905092915050565b7f4f6e6c7920746865206f776e65722063616e20657865637574652074686973205f8201527f66756e6374696f6e000000000000000000000000000000000000000000000000602082015250565b5f61075f6028836106f5565b915061076a82610705565b604082019050919050565b5f6020820190508181035f83015261078c81610753565b9050919050565b7f526563697069656e747320616e6420616d6f756e7473206172726179206c656e5f8201527f677468206d69736d617463680000000000000000000000000000000000000000602082015250565b5f6107ed602c836106f5565b91506107f882610793565b604082019050919050565b5f6020820190508181035f83015261081a816107e1565b9050919050565b7f45786365656473206d6178696d756d206e756d626572206f66207265636970695f8201527f656e747300000000000000000000000000000000000000000000000000000000602082015250565b5f61087b6024836106f5565b915061088682610821565b604082019050919050565b5f6020820190508181035f8301526108a88161086f565b9050919050565b7f4e487b71000000000000000000000000000000000000000000000000000000005f52603260045260245ffd5b6108e581610648565b81146108ef575f80fd5b50565b5f81359050610900816108dc565b92915050565b5f6020828403121561091b5761091a610467565b5b5f610928848285016108f2565b91505092915050565b5f6060820190506109445f830186610659565b6109516020830185610659565b61095e6040830184610601565b949350505050565b5f8115159050919050565b61097a81610966565b8114610984575f80fd5b50565b5f8151905061099581610971565b92915050565b5f602082840312156109b0576109af610467565b5b5f6109bd84828501610987565b91505092915050565b7f5472616e73666572206661696c656400000000000000000000000000000000005f82015250565b5f6109fa600f836106f5565b9150610a05826109c6565b602082019050919050565b5f6020820190508181035f830152610a27816109ee565b905091905056fea2646970667358221220194532b3554912d9e36a44d37c8b2e24ffb724d3ca361dee81c3ba53366c81a064736f6c63430008190033",
					"opcodes": "PUSH1 0x80 PUSH1 0x40 MSTORE CALLVALUE DUP1 ISZERO PUSH2 0xF JUMPI PUSH0 DUP1 REVERT JUMPDEST POP PUSH1 0x40 MLOAD PUSH2 0xC12 CODESIZE SUB DUP1 PUSH2 0xC12 DUP4 CODECOPY DUP2 DUP2 ADD PUSH1 0x40 MSTORE DUP2 ADD SWAP1 PUSH2 0x31 SWAP2 SWAP1 PUSH2 0x163 JUMP JUMPDEST PUSH20 0x41B6D412E3051ED7B92B118265852C0F956A402B PUSH0 DUP1 PUSH2 0x100 EXP DUP2 SLOAD DUP2 PUSH20 0xFFFFFFFFFFFFFFFFFFFFFFFFFFFFFFFFFFFFFFFF MUL NOT AND SWAP1 DUP4 PUSH20 0xFFFFFFFFFFFFFFFFFFFFFFFFFFFFFFFFFFFFFFFF AND MUL OR SWAP1 SSTORE POP DUP2 PUSH1 0x1 PUSH0 PUSH2 0x100 EXP DUP2 SLOAD DUP2 PUSH20 0xFFFFFFFFFFFFFFFFFFFFFFFFFFFFFFFFFFFFFFFF MUL NOT AND SWAP1 DUP4 PUSH20 0xFFFFFFFFFFFFFFFFFFFFFFFFFFFFFFFFFFFFFFFF AND MUL OR SWAP1 SSTORE POP DUP1 PUSH1 0x2 DUP2 SWAP1 SSTORE POP POP POP PUSH2 0x1A1 JUMP JUMPDEST PUSH0 DUP1 REVERT JUMPDEST PUSH0 PUSH20 0xFFFFFFFFFFFFFFFFFFFFFFFFFFFFFFFFFFFFFFFF DUP3 AND SWAP1 POP SWAP2 SWAP1 POP JUMP JUMPDEST PUSH0 PUSH2 0xFF DUP3 PUSH2 0xD6 JUMP JUMPDEST SWAP1 POP SWAP2 SWAP1 POP JUMP JUMPDEST PUSH2 0x10F DUP2 PUSH2 0xF5 JUMP JUMPDEST DUP2 EQ PUSH2 0x119 JUMPI PUSH0 DUP1 REVERT JUMPDEST POP JUMP JUMPDEST PUSH0 DUP2 MLOAD SWAP1 POP PUSH2 0x12A DUP2 PUSH2 0x106 JUMP JUMPDEST SWAP3 SWAP2 POP POP JUMP JUMPDEST PUSH0 DUP2 SWAP1 POP SWAP2 SWAP1 POP JUMP JUMPDEST PUSH2 0x142 DUP2 PUSH2 0x130 JUMP JUMPDEST DUP2 EQ PUSH2 0x14C JUMPI PUSH0 DUP1 REVERT JUMPDEST POP JUMP JUMPDEST PUSH0 DUP2 MLOAD SWAP1 POP PUSH2 0x15D DUP2 PUSH2 0x139 JUMP JUMPDEST SWAP3 SWAP2 POP POP JUMP JUMPDEST PUSH0 DUP1 PUSH1 0x40 DUP4 DUP6 SUB SLT ISZERO PUSH2 0x179 JUMPI PUSH2 0x178 PUSH2 0xD2 JUMP JUMPDEST JUMPDEST PUSH0 PUSH2 0x186 DUP6 DUP3 DUP7 ADD PUSH2 0x11C JUMP JUMPDEST SWAP3 POP POP PUSH1 0x20 PUSH2 0x197 DUP6 DUP3 DUP7 ADD PUSH2 0x14F JUMP JUMPDEST SWAP2 POP POP SWAP3 POP SWAP3 SWAP1 POP JUMP JUMPDEST PUSH2 0xA64 DUP1 PUSH2 0x1AE PUSH0 CODECOPY PUSH0 RETURN INVALID PUSH1 0x80 PUSH1 0x40 MSTORE CALLVALUE DUP1 ISZERO PUSH2 0xF JUMPI PUSH0 DUP1 REVERT JUMPDEST POP PUSH1 0x4 CALLDATASIZE LT PUSH2 0x55 JUMPI PUSH0 CALLDATALOAD PUSH1 0xE0 SHR DUP1 PUSH4 0x148EC9AB EQ PUSH2 0x59 JUMPI DUP1 PUSH4 0x2929ABE6 EQ PUSH2 0x75 JUMPI DUP1 PUSH4 0x88A13072 EQ PUSH2 0x91 JUMPI DUP1 PUSH4 0x8DA5CB5B EQ PUSH2 0xAF JUMPI DUP1 PUSH4 0xA98AD46C EQ PUSH2 0xCD JUMPI JUMPDEST PUSH0 DUP1 REVERT JUMPDEST PUSH2 0x73 PUSH1 0x4 DUP1 CALLDATASIZE SUB DUP2 ADD SWAP1 PUSH2 0x6E SWAP2 SWAP1 PUSH2 0x4A2 JUMP JUMPDEST PUSH2 0xEB JUMP JUMPDEST STOP JUMPDEST PUSH2 0x8F PUSH1 0x4 DUP1 CALLDATASIZE SUB DUP2 ADD SWAP1 PUSH2 0x8A SWAP2 SWAP1 PUSH2 0x583 JUMP JUMPDEST PUSH2 0x196 JUMP JUMPDEST STOP JUMPDEST PUSH2 0x99 PUSH2 0x419 JUMP JUMPDEST PUSH1 0x40 MLOAD PUSH2 0xA6 SWAP2 SWAP1 PUSH2 0x610 JUMP JUMPDEST PUSH1 0x40 MLOAD DUP1 SWAP2 SUB SWAP1 RETURN JUMPDEST PUSH2 0xB7 PUSH2 0x41F JUMP JUMPDEST PUSH1 0x40 MLOAD PUSH2 0xC4 SWAP2 SWAP1 PUSH2 0x668 JUMP JUMPDEST PUSH1 0x40 MLOAD DUP1 SWAP2 SUB SWAP1 RETURN JUMPDEST PUSH2 0xD5 PUSH2 0x442 JUMP JUMPDEST PUSH1 0x40 MLOAD PUSH2 0xE2 SWAP2 SWAP1 PUSH2 0x6DC JUMP JUMPDEST PUSH1 0x40 MLOAD DUP1 SWAP2 SUB SWAP1 RETURN JUMPDEST PUSH0 DUP1 SLOAD SWAP1 PUSH2 0x100 EXP SWAP1 DIV PUSH20 0xFFFFFFFFFFFFFFFFFFFFFFFFFFFFFFFFFFFFFFFF AND PUSH20 0xFFFFFFFFFFFFFFFFFFFFFFFFFFFFFFFFFFFFFFFF AND PUSH20 0x41B6D412E3051ED7B92B118265852C0F956A402B PUSH20 0xFFFFFFFFFFFFFFFFFFFFFFFFFFFFFFFFFFFFFFFF AND EQ PUSH2 0x18C JUMPI PUSH1 0x40 MLOAD PUSH32 0x8C379A000000000000000000000000000000000000000000000000000000000 DUP2 MSTORE PUSH1 0x4 ADD PUSH2 0x183 SWAP1 PUSH2 0x775 JUMP JUMPDEST PUSH1 0x40 MLOAD DUP1 SWAP2 SUB SWAP1 REVERT JUMPDEST DUP1 PUSH1 0x2 DUP2 SWAP1 SSTORE POP POP JUMP JUMPDEST PUSH0 DUP1 SLOAD SWAP1 PUSH2 0x100 EXP SWAP1 DIV PUSH20 0xFFFFFFFFFFFFFFFFFFFFFFFFFFFFFFFFFFFFFFFF AND PUSH20 0xFFFFFFFFFFFFFFFFFFFFFFFFFFFFFFFFFFFFFFFF AND PUSH20 0x41B6D412E3051ED7B92B118265852C0F956A402B PUSH20 0xFFFFFFFFFFFFFFFFFFFFFFFFFFFFFFFFFFFFFFFF AND EQ PUSH2 0x237 JUMPI PUSH1 0x40 MLOAD PUSH32 0x8C379A000000000000000000000000000000000000000000000000000000000 DUP2 MSTORE PUSH1 0x4 ADD PUSH2 0x22E SWAP1 PUSH2 0x775 JUMP JUMPDEST PUSH1 0x40 MLOAD DUP1 SWAP2 SUB SWAP1 REVERT JUMPDEST DUP2 DUP2 SWAP1 POP DUP5 DUP5 SWAP1 POP EQ PUSH2 0x27F JUMPI PUSH1 0x40 MLOAD PUSH32 0x8C379A000000000000000000000000000000000000000000000000000000000 DUP2 MSTORE PUSH1 0x4 ADD PUSH2 0x276 SWAP1 PUSH2 0x803 JUMP JUMPDEST PUSH1 0x40 MLOAD DUP1 SWAP2 SUB SWAP1 REVERT JUMPDEST PUSH1 0x2 SLOAD DUP5 DUP5 SWAP1 POP GT ISZERO PUSH2 0x2C7 JUMPI PUSH1 0x40 MLOAD PUSH32 0x8C379A000000000000000000000000000000000000000000000000000000000 DUP2 MSTORE PUSH1 0x4 ADD PUSH2 0x2BE SWAP1 PUSH2 0x891 JUMP JUMPDEST PUSH1 0x40 MLOAD DUP1 SWAP2 SUB SWAP1 REVERT JUMPDEST PUSH0 JUMPDEST DUP5 DUP5 SWAP1 POP DUP2 LT ISZERO PUSH2 0x412 JUMPI PUSH1 0x1 PUSH0 SWAP1 SLOAD SWAP1 PUSH2 0x100 EXP SWAP1 DIV PUSH20 0xFFFFFFFFFFFFFFFFFFFFFFFFFFFFFFFFFFFFFFFF AND PUSH20 0xFFFFFFFFFFFFFFFFFFFFFFFFFFFFFFFFFFFFFFFF AND PUSH4 0x23B872DD PUSH20 0x41B6D412E3051ED7B92B118265852C0F956A402B DUP8 DUP8 DUP6 DUP2 DUP2 LT PUSH2 0x339 JUMPI PUSH2 0x338 PUSH2 0x8AF JUMP JUMPDEST JUMPDEST SWAP1 POP PUSH1 0x20 MUL ADD PUSH1 0x20 DUP2 ADD SWAP1 PUSH2 0x34E SWAP2 SWAP1 PUSH2 0x906 JUMP JUMPDEST DUP7 DUP7 DUP7 DUP2 DUP2 LT PUSH2 0x361 JUMPI PUSH2 0x360 PUSH2 0x8AF JUMP JUMPDEST JUMPDEST SWAP1 POP PUSH1 0x20 MUL ADD CALLDATALOAD PUSH1 0x40 MLOAD DUP5 PUSH4 0xFFFFFFFF AND PUSH1 0xE0 SHL DUP2 MSTORE PUSH1 0x4 ADD PUSH2 0x386 SWAP4 SWAP3 SWAP2 SWAP1 PUSH2 0x931 JUMP JUMPDEST PUSH1 0x20 PUSH1 0x40 MLOAD DUP1 DUP4 SUB DUP2 PUSH0 DUP8 GAS CALL ISZERO DUP1 ISZERO PUSH2 0x3A2 JUMPI RETURNDATASIZE PUSH0 DUP1 RETURNDATACOPY RETURNDATASIZE PUSH0 REVERT JUMPDEST POP POP POP POP PUSH1 0x40 MLOAD RETURNDATASIZE PUSH1 0x1F NOT PUSH1 0x1F DUP3 ADD AND DUP3 ADD DUP1 PUSH1 0x40 MSTORE POP DUP2 ADD SWAP1 PUSH2 0x3C6 SWAP2 SWAP1 PUSH2 0x99B JUMP JUMPDEST PUSH2 0x405 JUMPI PUSH1 0x40 MLOAD PUSH32 0x8C379A000000000000000000000000000000000000000000000000000000000 DUP2 MSTORE PUSH1 0x4 ADD PUSH2 0x3FC SWAP1 PUSH2 0xA10 JUMP JUMPDEST PUSH1 0x40 MLOAD DUP1 SWAP2 SUB SWAP1 REVERT JUMPDEST DUP1 DUP1 PUSH1 0x1 ADD SWAP2 POP POP PUSH2 0x2C9 JUMP JUMPDEST POP POP POP POP POP JUMP JUMPDEST PUSH1 0x2 SLOAD DUP2 JUMP JUMPDEST PUSH0 DUP1 SLOAD SWAP1 PUSH2 0x100 EXP SWAP1 DIV PUSH20 0xFFFFFFFFFFFFFFFFFFFFFFFFFFFFFFFFFFFFFFFF AND DUP2 JUMP JUMPDEST PUSH1 0x1 PUSH0 SWAP1 SLOAD SWAP1 PUSH2 0x100 EXP SWAP1 DIV PUSH20 0xFFFFFFFFFFFFFFFFFFFFFFFFFFFFFFFFFFFFFFFF AND DUP2 JUMP JUMPDEST PUSH0 DUP1 REVERT JUMPDEST PUSH0 DUP1 REVERT JUMPDEST PUSH0 DUP2 SWAP1 POP SWAP2 SWAP1 POP JUMP JUMPDEST PUSH2 0x481 DUP2 PUSH2 0x46F JUMP JUMPDEST DUP2 EQ PUSH2 0x48B JUMPI PUSH0 DUP1 REVERT JUMPDEST POP JUMP JUMPDEST PUSH0 DUP2 CALLDATALOAD SWAP1 POP PUSH2 0x49C DUP2 PUSH2 0x478 JUMP JUMPDEST SWAP3 SWAP2 POP POP JUMP JUMPDEST PUSH0 PUSH1 0x20 DUP3 DUP5 SUB SLT ISZERO PUSH2 0x4B7 JUMPI PUSH2 0x4B6 PUSH2 0x467 JUMP JUMPDEST JUMPDEST PUSH0 PUSH2 0x4C4 DUP5 DUP3 DUP6 ADD PUSH2 0x48E JUMP JUMPDEST SWAP2 POP POP SWAP3 SWAP2 POP POP JUMP JUMPDEST PUSH0 DUP1 REVERT JUMPDEST PUSH0 DUP1 REVERT JUMPDEST PUSH0 DUP1 REVERT JUMPDEST PUSH0 DUP1 DUP4 PUSH1 0x1F DUP5 ADD SLT PUSH2 0x4EE JUMPI PUSH2 0x4ED PUSH2 0x4CD JUMP JUMPDEST JUMPDEST DUP3 CALLDATALOAD SWAP1 POP PUSH8 0xFFFFFFFFFFFFFFFF DUP2 GT ISZERO PUSH2 0x50B JUMPI PUSH2 0x50A PUSH2 0x4D1 JUMP JUMPDEST JUMPDEST PUSH1 0x20 DUP4 ADD SWAP2 POP DUP4 PUSH1 0x20 DUP3 MUL DUP4 ADD GT ISZERO PUSH2 0x527 JUMPI PUSH2 0x526 PUSH2 0x4D5 JUMP JUMPDEST JUMPDEST SWAP3 POP SWAP3 SWAP1 POP JUMP JUMPDEST PUSH0 DUP1 DUP4 PUSH1 0x1F DUP5 ADD SLT PUSH2 0x543 JUMPI PUSH2 0x542 PUSH2 0x4CD JUMP JUMPDEST JUMPDEST DUP3 CALLDATALOAD SWAP1 POP PUSH8 0xFFFFFFFFFFFFFFFF DUP2 GT ISZERO PUSH2 0x560 JUMPI PUSH2 0x55F PUSH2 0x4D1 JUMP JUMPDEST JUMPDEST PUSH1 0x20 DUP4 ADD SWAP2 POP DUP4 PUSH1 0x20 DUP3 MUL DUP4 ADD GT ISZERO PUSH2 0x57C JUMPI PUSH2 0x57B PUSH2 0x4D5 JUMP JUMPDEST JUMPDEST SWAP3 POP SWAP3 SWAP1 POP JUMP JUMPDEST PUSH0 DUP1 PUSH0 DUP1 PUSH1 0x40 DUP6 DUP8 SUB SLT ISZERO PUSH2 0x59B JUMPI PUSH2 0x59A PUSH2 0x467 JUMP JUMPDEST JUMPDEST PUSH0 DUP6 ADD CALLDATALOAD PUSH8 0xFFFFFFFFFFFFFFFF DUP2 GT ISZERO PUSH2 0x5B8 JUMPI PUSH2 0x5B7 PUSH2 0x46B JUMP JUMPDEST JUMPDEST PUSH2 0x5C4 DUP8 DUP3 DUP9 ADD PUSH2 0x4D9 JUMP JUMPDEST SWAP5 POP SWAP5 POP POP PUSH1 0x20 DUP6 ADD CALLDATALOAD PUSH8 0xFFFFFFFFFFFFFFFF DUP2 GT ISZERO PUSH2 0x5E7 JUMPI PUSH2 0x5E6 PUSH2 0x46B JUMP JUMPDEST JUMPDEST PUSH2 0x5F3 DUP8 DUP3 DUP9 ADD PUSH2 0x52E JUMP JUMPDEST SWAP3 POP SWAP3 POP POP SWAP3 SWAP6 SWAP2 SWAP5 POP SWAP3 POP JUMP JUMPDEST PUSH2 0x60A DUP2 PUSH2 0x46F JUMP JUMPDEST DUP3 MSTORE POP POP JUMP JUMPDEST PUSH0 PUSH1 0x20 DUP3 ADD SWAP1 POP PUSH2 0x623 PUSH0 DUP4 ADD DUP5 PUSH2 0x601 JUMP JUMPDEST SWAP3 SWAP2 POP POP JUMP JUMPDEST PUSH0 PUSH20 0xFFFFFFFFFFFFFFFFFFFFFFFFFFFFFFFFFFFFFFFF DUP3 AND SWAP1 POP SWAP2 SWAP1 POP JUMP JUMPDEST PUSH0 PUSH2 0x652 DUP3 PUSH2 0x629 JUMP JUMPDEST SWAP1 POP SWAP2 SWAP1 POP JUMP JUMPDEST PUSH2 0x662 DUP2 PUSH2 0x648 JUMP JUMPDEST DUP3 MSTORE POP POP JUMP JUMPDEST PUSH0 PUSH1 0x20 DUP3 ADD SWAP1 POP PUSH2 0x67B PUSH0 DUP4 ADD DUP5 PUSH2 0x659 JUMP JUMPDEST SWAP3 SWAP2 POP POP JUMP JUMPDEST PUSH0 DUP2 SWAP1 POP SWAP2 SWAP1 POP JUMP JUMPDEST PUSH0 PUSH2 0x6A4 PUSH2 0x69F PUSH2 0x69A DUP5 PUSH2 0x629 JUMP JUMPDEST PUSH2 0x681 JUMP JUMPDEST PUSH2 0x629 JUMP JUMPDEST SWAP1 POP SWAP2 SWAP1 POP JUMP JUMPDEST PUSH0 PUSH2 0x6B5 DUP3 PUSH2 0x68A JUMP JUMPDEST SWAP1 POP SWAP2 SWAP1 POP JUMP JUMPDEST PUSH0 PUSH2 0x6C6 DUP3 PUSH2 0x6AB JUMP JUMPDEST SWAP1 POP SWAP2 SWAP1 POP JUMP JUMPDEST PUSH2 0x6D6 DUP2 PUSH2 0x6BC JUMP JUMPDEST DUP3 MSTORE POP POP JUMP JUMPDEST PUSH0 PUSH1 0x20 DUP3 ADD SWAP1 POP PUSH2 0x6EF PUSH0 DUP4 ADD DUP5 PUSH2 0x6CD JUMP JUMPDEST SWAP3 SWAP2 POP POP JUMP JUMPDEST PUSH0 DUP3 DUP3 MSTORE PUSH1 0x20 DUP3 ADD SWAP1 POP SWAP3 SWAP2 POP POP JUMP JUMPDEST PUSH32 0x4F6E6C7920746865206F776E65722063616E2065786563757465207468697320 PUSH0 DUP3 ADD MSTORE PUSH32 0x66756E6374696F6E000000000000000000000000000000000000000000000000 PUSH1 0x20 DUP3 ADD MSTORE POP JUMP JUMPDEST PUSH0 PUSH2 0x75F PUSH1 0x28 DUP4 PUSH2 0x6F5 JUMP JUMPDEST SWAP2 POP PUSH2 0x76A DUP3 PUSH2 0x705 JUMP JUMPDEST PUSH1 0x40 DUP3 ADD SWAP1 POP SWAP2 SWAP1 POP JUMP JUMPDEST PUSH0 PUSH1 0x20 DUP3 ADD SWAP1 POP DUP2 DUP2 SUB PUSH0 DUP4 ADD MSTORE PUSH2 0x78C DUP2 PUSH2 0x753 JUMP JUMPDEST SWAP1 POP SWAP2 SWAP1 POP JUMP JUMPDEST PUSH32 0x526563697069656E747320616E6420616D6F756E7473206172726179206C656E PUSH0 DUP3 ADD MSTORE PUSH32 0x677468206D69736D617463680000000000000000000000000000000000000000 PUSH1 0x20 DUP3 ADD MSTORE POP JUMP JUMPDEST PUSH0 PUSH2 0x7ED PUSH1 0x2C DUP4 PUSH2 0x6F5 JUMP JUMPDEST SWAP2 POP PUSH2 0x7F8 DUP3 PUSH2 0x793 JUMP JUMPDEST PUSH1 0x40 DUP3 ADD SWAP1 POP SWAP2 SWAP1 POP JUMP JUMPDEST PUSH0 PUSH1 0x20 DUP3 ADD SWAP1 POP DUP2 DUP2 SUB PUSH0 DUP4 ADD MSTORE PUSH2 0x81A DUP2 PUSH2 0x7E1 JUMP JUMPDEST SWAP1 POP SWAP2 SWAP1 POP JUMP JUMPDEST PUSH32 0x45786365656473206D6178696D756D206E756D626572206F6620726563697069 PUSH0 DUP3 ADD MSTORE PUSH32 0x656E747300000000000000000000000000000000000000000000000000000000 PUSH1 0x20 DUP3 ADD MSTORE POP JUMP JUMPDEST PUSH0 PUSH2 0x87B PUSH1 0x24 DUP4 PUSH2 0x6F5 JUMP JUMPDEST SWAP2 POP PUSH2 0x886 DUP3 PUSH2 0x821 JUMP JUMPDEST PUSH1 0x40 DUP3 ADD SWAP1 POP SWAP2 SWAP1 POP JUMP JUMPDEST PUSH0 PUSH1 0x20 DUP3 ADD SWAP1 POP DUP2 DUP2 SUB PUSH0 DUP4 ADD MSTORE PUSH2 0x8A8 DUP2 PUSH2 0x86F JUMP JUMPDEST SWAP1 POP SWAP2 SWAP1 POP JUMP JUMPDEST PUSH32 0x4E487B7100000000000000000000000000000000000000000000000000000000 PUSH0 MSTORE PUSH1 0x32 PUSH1 0x4 MSTORE PUSH1 0x24 PUSH0 REVERT JUMPDEST PUSH2 0x8E5 DUP2 PUSH2 0x648 JUMP JUMPDEST DUP2 EQ PUSH2 0x8EF JUMPI PUSH0 DUP1 REVERT JUMPDEST POP JUMP JUMPDEST PUSH0 DUP2 CALLDATALOAD SWAP1 POP PUSH2 0x900 DUP2 PUSH2 0x8DC JUMP JUMPDEST SWAP3 SWAP2 POP POP JUMP JUMPDEST PUSH0 PUSH1 0x20 DUP3 DUP5 SUB SLT ISZERO PUSH2 0x91B JUMPI PUSH2 0x91A PUSH2 0x467 JUMP JUMPDEST JUMPDEST PUSH0 PUSH2 0x928 DUP5 DUP3 DUP6 ADD PUSH2 0x8F2 JUMP JUMPDEST SWAP2 POP POP SWAP3 SWAP2 POP POP JUMP JUMPDEST PUSH0 PUSH1 0x60 DUP3 ADD SWAP1 POP PUSH2 0x944 PUSH0 DUP4 ADD DUP7 PUSH2 0x659 JUMP JUMPDEST PUSH2 0x951 PUSH1 0x20 DUP4 ADD DUP6 PUSH2 0x659 JUMP JUMPDEST PUSH2 0x95E PUSH1 0x40 DUP4 ADD DUP5 PUSH2 0x601 JUMP JUMPDEST SWAP5 SWAP4 POP POP POP POP JUMP JUMPDEST PUSH0 DUP2 ISZERO ISZERO SWAP1 POP SWAP2 SWAP1 POP JUMP JUMPDEST PUSH2 0x97A DUP2 PUSH2 0x966 JUMP JUMPDEST DUP2 EQ PUSH2 0x984 JUMPI PUSH0 DUP1 REVERT JUMPDEST POP JUMP JUMPDEST PUSH0 DUP2 MLOAD SWAP1 POP PUSH2 0x995 DUP2 PUSH2 0x971 JUMP JUMPDEST SWAP3 SWAP2 POP POP JUMP JUMPDEST PUSH0 PUSH1 0x20 DUP3 DUP5 SUB SLT ISZERO PUSH2 0x9B0 JUMPI PUSH2 0x9AF PUSH2 0x467 JUMP JUMPDEST JUMPDEST PUSH0 PUSH2 0x9BD DUP5 DUP3 DUP6 ADD PUSH2 0x987 JUMP JUMPDEST SWAP2 POP POP SWAP3 SWAP2 POP POP JUMP JUMPDEST PUSH32 0x5472616E73666572206661696C65640000000000000000000000000000000000 PUSH0 DUP3 ADD MSTORE POP JUMP JUMPDEST PUSH0 PUSH2 0x9FA PUSH1 0xF DUP4 PUSH2 0x6F5 JUMP JUMPDEST SWAP2 POP PUSH2 0xA05 DUP3 PUSH2 0x9C6 JUMP JUMPDEST PUSH1 0x20 DUP3 ADD SWAP1 POP SWAP2 SWAP1 POP JUMP JUMPDEST PUSH0 PUSH1 0x20 DUP3 ADD SWAP1 POP DUP2 DUP2 SUB PUSH0 DUP4 ADD MSTORE PUSH2 0xA27 DUP2 PUSH2 0x9EE JUMP JUMPDEST SWAP1 POP SWAP2 SWAP1 POP JUMP INVALID LOG2 PUSH5 0x6970667358 0x22 SLT KECCAK256 NOT GASLIMIT ORIGIN 0xB3 SSTORE BLOBHASH SLT 0xD9 0xE3 PUSH11 0x44D37C8B2E24FFB724D3CA CALLDATASIZE SAR 0xEE DUP2 0xC3 0xBA MSTORE8 CALLDATASIZE PUSH13 0x81A064736F6C63430008190033 "
				},
				"gasEstimates": {
					"creation": {
						"codeDepositCost": "532000",
						"executionCost": "infinite",
						"totalCost": "infinite"
					},
					"external": {
						"distribute(address[],uint256[])": "infinite",
						"maxRecipients()": "2447",
						"owner()": "2549",
						"setMaxRecipients(uint256)": "24660",
						"usdtToken()": "infinite"
					}
				},
				"methodIdentifiers": {
					"distribute(address[],uint256[])": "2929abe6",
					"maxRecipients()": "88a13072",
					"owner()": "8da5cb5b",
					"setMaxRecipients(uint256)": "148ec9ab",
					"usdtToken()": "a98ad46c"
				}
			},
			"storageLayout": {
				"storage": [
					{
						"astId": 22,
						"contract": "contracts/1_RadioDist.sol:USDTDistributor",
						"label": "owner",
						"offset": 0,
						"slot": "0",
						"type": "t_address"
					},
					{
						"astId": 25,
						"contract": "contracts/1_RadioDist.sol:USDTDistributor",
						"label": "usdtToken",
						"offset": 0,
						"slot": "1",
						"type": "t_contract(IERC20)20"
					},
					{
						"astId": 27,
						"contract": "contracts/1_RadioDist.sol:USDTDistributor",
						"label": "maxRecipients",
						"offset": 0,
						"slot": "2",
						"type": "t_uint256"
					}
				],
				"types": {
					"t_address": {
						"encoding": "inplace",
						"label": "address",
						"numberOfBytes": "20"
					},
					"t_contract(IERC20)20": {
						"encoding": "inplace",
						"label": "contract IERC20",
						"numberOfBytes": "20"
					},
					"t_uint256": {
						"encoding": "inplace",
						"label": "uint256",
						"numberOfBytes": "32"
					}
				}
			},
			"userdoc": {
				"kind": "user",
				"methods": {},
				"version": 1
			}
		}
	}
}